:100000000C9458000C9480000C9480000C94800098
:100010000C9480000C9480000C9480000C94800060
:100020000C9480000C9480000C9480000C94800050
:100030000C9480000C9480000C9480000C94800040
:100040000C9422040C9480000C9492040C946C0484
:100050000C9480000C9480000C9480000C94800020
:100060000C94C4040C9480000000000025002800BB
:100070002B00040404040404040402020202020229
:10008000030303030303010204081020408001025C
:1000900004081020010204081020000000080002DB
:1000A0000100000304070000000000000000F2054A
:1000B00011241FBECFEFD8E0DEBFCDBF11E0A0E01E
:1000C000B1E0E6E3F2E102C005900D92A033B10782
:1000D000D9F722E0A0E3B1E001C01D92AD39B2072B
:1000E000E1F710E0C8E5D0E004C02197FE010E94CE
:1000F0000E09C735D107C9F70E9434060C941909B7
:100100000C9400002091EC019091EB01213208F059
:100110004AC08091C8018111FCCF32E03093C80100
:1001200031E03093C7013FEF3093C6011092C50113
:100130002093C401ABECB1E044EA51E0FA013E2F58
:10014000341B321718F43D913193F9CF1092A3016B
:100150002091A301990F922B9093A3019091A2015A
:10016000913061F41092A2019091A3019093BB0091
:100170009091BC0093FDF8CF95EC01C095EE909363
:10018000BC009091C8019230E1F39091C6019F3F6D
:1001900079F08091C601803241F08091C6018033B0
:1001A00031F084E005C081E003C082E001C083E05B
:1001B0001092CA011092EC011092C9010895909119
:1001C000C8019111FCCF91E09093C8019093C701B1
:1001D0002FEF2093C6011092C501260F2093C40172
:1001E0009093A3019091A301880F892B8093A30181
:1001F0008091A201813061F41092A2018091A3014B
:100200008093BB008091BC0083FDF8CF85EC01C0DA
:1002100085EE8093BC008091C8018130E1F380912C
:10022000C501861710F46091C501A4EAB1E022E887
:1002300031E0F9018E2F821B861718F48D9181937E
:10024000F9CF862F089590E0FC01E656FF4F2491E8
:10025000FC01EA57FF4F3491FC01EE58FF4FE49147
:10026000EE23B1F1222339F1233091F038F421301B
:10027000A9F0223001F584B58F7D12C0273091F0AE
:100280002830A1F02430B9F4809180008F7D03C024
:10029000809180008F77809380000DC084B58F7728
:1002A00084BD09C08091B0008F7703C08091B000F9
:1002B0008F7D8093B000F0E0EE0FFF1FE859FF4FF5
:1002C000A591B4918FB7F894EC913E2B3C938FBFDE
:1002D00008953FB7F89480917C0190917D01A091A1
:1002E0007E01B0917F0126B5A89B05C02F3F19F074
:1002F0000196A11DB11D3FBFBA2FA92F982F8827A6
:10030000820F911DA11DB11DBC01CD0142E0660F00
:10031000771F881F991F4A95D1F70895CF92DF92D2
:10032000EF92FF920F931F93CF93DF936C017A01AB
:100330008B01C0E0D0E0CE15DF0589F0D8016D91CA
:100340008D01D601ED91FC910190F081E02DC60167
:100350000995892B11F47E0102C02196ECCFC701CB
:10036000DF91CF911F910F91FF90EF90DF90CF9091
:100370000895FC01538D448D252F30E0842F90E0AB
:10038000821B930B541710F0CF9608950197089590
:10039000FC01918D828D981761F0828DDF01A80F8D
:1003A000B11D5D968C91928D9F5F9F73928F90E0AF
:1003B00008958FEF9FEF0895FC01918D828D98171E
:1003C00031F0828DE80FF11D858D90E008958FEF5B
:1003D0009FEF0895FC01918D228D892F90E0805C24
:1003E0009F4F821B91098F73992708958DEE91E09D
:1003F0000E94EA0121E0892B09F420E0822F089570
:10040000FC01848DDF01A80FB11DA35ABF4F2C91B1
:10041000848D90E001968F739927848FA689B78980
:100420002C93A089B1898C9180648C93938D848D59
:10043000981306C00288F389E02D80818F7D808328
:100440000895EF92FF920F931F93CF93DF93EC01E8
:1004500081E0888F9B8D8C8D981305C0E889F98980
:10046000808185FD24C0F62E0B8D10E00F5F1F4F9D
:100470000F731127E02E8C8DE8120CC00FB607FC0D
:10048000FACFE889F989808185FFF5CFCE010E94F6
:100490000002F1CF8B8DFE01E80FF11DE35AFF4FF3
:1004A000F0820B8FEA89FB898081806207C0EE8928
:1004B000FF896083E889F98980818064808381E095
:1004C00090E0DF91CF911F910F91FF90EF900895F1
:1004D000CF93DF93EC01888D8823C9F0EA89FB89EB
:1004E000808185FD05C0A889B9898C9186FD0FC0E2
:1004F0000FB607FCF5CF808185FFF2CFA889B989B7
:100500008C9185FFEDCFCE010E940002E7CFDF91F5
:10051000CF91089580E090E0892B29F00E94F601A8
:1005200081110C94000008950895E091810180915B
:100530008001E81730F4F0E0EE57FE4F808190E044
:1005400008958FEF9FEF0895909181018091800130
:10055000981750F4E92FF0E0EE57FE4F208130E07D
:100560009F5F9093810102C02FEF3FEFC901089573
:100570008091800190E020918101821B9109089572
:10058000089580E090E0089585ED8093BC0080910F
:10059000BC0084FDFCCF1092C80108954091520127
:1005A000262F30E0240F311D21323105DCF420915B
:1005B000C8012430C9F4FC0180E090E0861758F4AB
:1005C000309152012191DC01A05DBE4FA30FB11DFE
:1005D0002C930196F3CF80915201680F60935201E2
:1005E00080E0089581E0089582E00895CF92DF923F
:1005F000EF92FF920F931F93CF93DF937C01262FEF
:10060000972F8A018091C901882391F0C62FD72F97
:100610006E01C40ED51ECC15DD0571F06991D701B0
:10062000ED91FC910190F081E02DC7010995F3CF88
:10063000642F822F0E94CE02C801DF91CF911F91BB
:100640000F91FF90EF90DF90CF900895CF93DF93BD
:100650001F92CDB7DEB769832091C9012223D1F063
:100660002091EC01203240F021E030E0FC013383A6
:10067000228380E090E015C08091CA01E82FF0E06D
:10068000E553FE4F998190838F5F8093CA018093D9
:10069000EC0105C061E0CE0101960E94CE0281E02E
:1006A00090E00F90DF91CF910895682F8AE892E053
:1006B0000C942603EF92FF920F931F93CF93DF9337
:1006C0007C018B01C6E9D2E0898191E09093C90158
:1006D0008093EB011092CA011092EC018F2D90E0F3
:1006E0000E945503C70199270E945503812F90E06E
:1006F0000E945503C80199270E9455030E94820059
:100700008883DF91CF911F910F91FF90EF90089513
:10071000EF92FF920F931F93CF93DF931F92CDB76A
:10072000DEB78C0186E9E82E82E0F82EF7018181A0
:1007300091E09093C9018093EB011092CA0110924D
:10074000EC01812F90E069830E945503C80199272D
:100750000E94550369818AE892E00E9426030E9464
:100760008200F70180830F90DF91CF911F910F914D
:10077000FF90EF9008950F931F93CF93DF938C0119
:10078000C6E9D2E0898191E09093C9018093EB01A1
:100790001092CA011092EC01812F90E00E94550343
:1007A000C80199270E9455030E948200888361E056
:1007B00089810E94DF0010928101809380018AE884
:1007C00092E00E94A402C82F0E9482008C2FDF9129
:1007D000CF911F910F91089580939802E82FF0E038
:1007E000EE0FFF1FE050FF4F6081718186E990E0BE
:1007F0000E945A0380919902609198020E94A90870
:10080000682F84E290E00E9488036091980270E073
:1008100084E190E00E94B50881E290E00E948803A4
:100820008DE290E00E94BB038E7F61E09091980280
:10083000913009F060E0682B8DE290E00C94880321
:100840000E9414091F920F920FB60F9211242F933A
:100850003F938F939F93AF93BF9380917801909133
:100860007901A0917A01B0917B013091770123E069
:10087000230F2D3720F40196A11DB11D05C026E8D8
:10088000230F0296A11DB11D20937701809378015B
:1008900090937901A0937A01B0937B0180917C01C0
:1008A00090917D01A0917E01B0917F010196A11DE3
:1008B000B11D80937C0190937D01A0937E01B09344
:1008C0007F01BF91AF919F918F913F912F910F9099
:1008D0000FBE0F901F9018951F920F920FB60F9298
:1008E00011242F933F934F935F936F937F938F9335
:1008F0009F93AF93BF93EF93FF938DEE91E00E9490
:100900000002FF91EF91BF91AF919F918F917F91E5
:100910006F915F914F913F912F910F900FBE0F906C
:100920001F9018951F920F920FB60F9211242F93BC
:100930008F939F93EF93FF93E091FD01F091FE0160
:100940008081E0910302F091040282FD12C0908147
:10095000809106028F5F8F7320910702821751F0FA
:10096000E0910602F0E0E351FE4F958F809306027E
:1009700001C08081FF91EF919F918F912F910F90F6
:100980000FBE0F901F9018951F920F920FB60F92E7
:1009900011242F933F934F935F936F937F938F9384
:1009A0009F93AF93BF93EF93FF938091B900887F9C
:1009B000803609F49CC068F5883209F45BC090F475
:1009C000803109F454C038F4882309F4F6C0883023
:1009D00009F44DC0F6C0883109F44CC0803209F4E6
:1009E0005DC0EFC0803409F468C048F4803309F476
:1009F00055C0883309F0E5C08093C601D8C0803562
:100A000009F44FC0883509F45DC0883409F0D9C0B5
:100A1000D6C0883909F4C7C0A8F4883709F467C07C
:100A200038F4883609F463C0803709F460C0C9C05F
:100A3000883809F4B8C0803909F45FC0803809F0FB
:100A4000C0C05BC0803B09F486C038F4803A09F42A
:100A500066C0883A09F47FC0B4C0803C09F4A7C0DE
:100A6000883C09F4A4C0883B09F48AC0AAC08091DC
:100A7000A30110C09091C5018091C401981770F531
:100A8000E091C50181E08E0F8093C501F0E0EC5547
:100A9000FE4F80818093BB0085EC86C08093C601A9
:100AA0008EC0E091C50181E08E0F8093C5018091D9
:100AB000BB00F0E0EC55FE4F80839091C501809122
:100AC000C4016EC0E091C50181E08E0F8093C50125
:100AD0008091BB00F0E0EC55FE4F80838091C70110
:100AE00081116DC081E08093A20184EA61C083E03E
:100AF0008093C80110927601CFCF80917601803229
:100B000008F051C0E091760181E08E0F809376016C
:100B10008091BB00F0E0EA5AFE4F8083BDCF85ECA8
:100B20008093BC001092C80180917601803230F42D
:100B3000E0917601F0E0EA5AFE4F10826091760172
:100B400070E0E0915401F091550186E591E009953E
:100B50001092760136C084E08093C8011092530150
:100B600010925201E0915001F0915101099580914C
:100B70005201811105C081E0809352011092300131
:100B8000E091530181E08E0F80935301F0E0E05D2E
:100B9000FE4F80818093BB00909153018091520160
:100BA000981708F479CF85E88093BC000AC085ECDB
:100BB0008093BC001092C80104C01092C6010E942C
:100BC000C402FF91EF91BF91AF919F918F917F915F
:100BD0006F915F914F913F912F910F900FBE0F90AA
:100BE0001F901895EDEEF1E01382128288EE93E0EB
:100BF000A0E0B0E084839583A683B7832CE031E046
:100C00003183208325EC30E03587248724EC30E0E5
:100C10003787268720EC30E0318B208B21EC30E0C9
:100C2000338B228B22EC30E0358B248B26EC30E0AA
:100C3000378B268B118E128E138E148EEAE8F2E01B
:100C40001382128284839583A683B7838EE191E019
:100C500091838083E6E9F2E089E281831282138244
:100C60001582148216820895CF93DF93CDB7DEB735
:100C7000A1970FB6F894DEBF0FBECDBF789484B5B0
:100C8000826084BD84B5816084BD85B5826085BD88
:100C900085B5816085BD80916E00816080936E0016
:100CA0001092810080918100826080938100809108
:100CB00081008160809381008091800081608093B9
:100CC00080008091B10084608093B1008091B00079
:100CD00081608093B00080917A00846080937A0074
:100CE00080917A00826080937A0080917A0081609E
:100CF00080937A0080917A00806880937A001092C5
:100D0000C100E091FD01F091FE0122E0E22EE082BF
:100D1000E091F901F091FA011082E091FB01F0916C
:100D2000FC0180E1808310920502E0910102F091C4
:100D3000020286E08083E091FF01F0910002808151
:100D400080618083E091FF01F091000280818860E2
:100D50008083E091FF01F0910002808180688083B0
:100D6000E091FF01F091000280818F7D80831092DD
:100D70008101109280011092CA011092EC01109230
:100D8000C801FF24F394F092C7011092A20182E1FE
:100D90000E94230183E10E9423018091B9008E7F8C
:100DA0008093B9008091B9008D7F8093B90088E469
:100DB0008093B80085E48093BC0084E290E00E94B8
:100DC000BB038093990286E190E00E94BB038130CF
:100DD00009F09EC08093980261E087E092E00E9453
:100DE000880361E088E092E00E94880360E086E981
:100DF00090E00E9488036DEF87E990E00E948803ED
:100E000060E083EE90E00E94880364E084EE90E06E
:100E10000E94880362E085EE90E00E94880361E012
:100E200086EE90E00E94880363E087EE90E00E94E7
:100E3000880362E085EF90E00E94880365E089ED19
:100E400090E00E9488036EEC8BED90E00E94880396
:100E500063E08CED90E00E94880368EF8DED90E0F8
:100E60000E94880360E08FE990E00E9488036CE3B1
:100E700083EA90E00E94880360E087EB90E00E94A4
:100E800088036CE38BEB90E00E94880369E082EBBF
:100E900090E00E94880369E08AEC90E00E94880359
:100EA00061E088E991E00E94880367E180EB91E0CE
:100EB0000E94880360E08DEA91E00E94880365E06B
:100EC0008FEF90E00E94880365E080E091E00E944F
:100ED000880365E089E991E00E9488036BE186EA76
:100EE00091E00E9488036EE38CEA91E00E948803FF
:100EF0006FE187EA91E00E94880360E080E390E080
:100F00000E94880360E086E190E00E94880348C068
:100F100080919702F092C9018093EB011092CA016F
:100F20001092EC0180E090E00E94550386E990E089
:100F30000E9455030E9482008093960262E0809195
:100F400097020E94DF0010928101809380018AE85D
:100F500092E00E94A402182F8AE892E00E94A40264
:100F600020E030E0312F8901082B192B0E948200EC
:100F70000435110521F483E08093980208C00F37EF
:100F8000110519F4E092980202C0F0929802809143
:100F9000980290919902899F802D11248093990243
:100FA00060E38AE091E00E94880366E48FE390E0CA
:100FB0000E9488036FEF81E390E00E94880363E65C
:100FC00070E080E490E00E945A0361E08EE290E0DD
:100FD0000E94880369E08BE190E00E94880361E34E
:100FE0008EE390E00E94880364E284E190E00E9436
:100FF000880361E38CE190E00E94880360E083EA6B
:1010000092E00E94880381E00E94EC0383E00E944A
:10101000EC039AE0C92ED12CE12CF12CB09098026F
:1010200061E088E190E00E9488038FB7F894009116
:1010300078011091790120917A0130917B018FBF65
:101040008FE490E00E94BB0382FD1FC080919A0252
:1010500090919B02892BA1F32FB7F894809178018E
:1010600090917901A0917A01B0917B012FBF801BF3
:10107000910B20919A0230919B022817390700F7B3
:1010800081E080939C022FEF0BC082E690E00E94EB
:10109000BB03182F61E085E190E00E948803212FB7
:1010A00030E0AB2DB0E00E94EB089B01AC0119A22F
:1010B0008E010F5D1F4FCA01B901A70196010E9461
:1010C000C908605DF80162938F0121153105410562
:1010D000510589F7309761F001900020E9F73197C9
:1010E000AF01401B510BB8018DEE91E00E948E01C3
:1010F00042E050E06CE271E08DEE91E00E948E01E2
:101100000E9469012B013C0184E6882E912CA12CC0
:10111000B12C0E946901DC01CB0184199509A60953
:10112000B709883E9340A105B10558F0F1E08F1A48
:101130009108A108B10828EE420E23E0521E611C5E
:10114000711C81149104A104B10419F70E948A0250
:1011500065CF991B79E004C0991F961708F0961B7C
:10116000881F7A95C9F78095089597FB072E16F486
:10117000009407D077FD09D00E94FA0807FC05D03B
:101180003EF4909581959F4F0895709561957F4F9E
:101190000895A1E21A2EAA1BBB1BFD010DC0AA1FB8
:1011A000BB1FEE1FFF1FA217B307E407F50720F0D0
:1011B000A21BB30BE40BF50B661F771F881F991F4B
:1011C0001A9469F760957095809590959B01AC0194
:1011D000BD01CF010895A29FB001B39FC001A39F9D
:1011E000700D811D1124911DB29F700D811D112460
:1011F000911D0895AA1BBB1B51E107C0AA1FBB1F6D
:10120000A617B70710F0A61BB70B881F991F5A9592
:10121000A9F780959095BC01CD010895EE0FFF1FB1
:101220000590F491E02D099481E090E0F8940C94FD
:061230001909F894FFCF3C
:101236000000FD007F0054000000000021028E0126
:10124600B9016802EA01C801DC01000000002603BA
:10125600F602C1029402B802A40295020D0A000029
:00000001FF
