:1000000019C1000047C1000045C1000043C1000004
:1000100041C100003FC100003DC100003BC10000E4
:1000200039C1000037C1000035C1000033C10000F4
:1000300031C100002FC100002DC100002BC1000004
:1000400029C1000027C1000025C1000023C1000014
:1000500090C300001FC100001DC100007FC7000049
:1000600019C1000050C3000025C3000013C10000E7
:1000700011C100000FC100000DC100000BC1000044
:1000800009C1000007C1000005C1000003C1000054
:1000900001C10000FFC00000FDC0000095C30000CA
:1000A000F9C00000F7C00000F5C00000F3C0000078
:1000B000F1C00000EFC00000EDC00000EBC0000088
:1000C000E9C00000E7C00000E5C00000E3C0000098
:1000D000E1C00000DFC00000DDC00000DBC00000A8
:1000E000D9C00000450B4A0B4F0B590B630BDC0BBF
:1000F0006D0B750B7D0B870B910B9B0BAA0BB40B38
:10010000DC0BBE0BC80BD20B3B073E072D0731079C
:1001100035077507420746074C07500754075A072B
:100120005E076207750768076C07700700000A0B17
:1001300002090C0D0E080703040100000000000076
:1001400000000000000000000000000000000000AF
:10015000000000000000000012111000000000006C
:10016000000000000000000000000000000000008F
:10017000000000002200250028002B002E00310086
:10018000340002010000050108010B0100002100FC
:10019000240027002A002D00300033000101000058
:1001A000040107010A0105050505070508080808F7
:1001B000020202020A0A08080404040401010101FF
:1001C00001010101030303030303030304070707FA
:1001D0000C0C0C0C0C0C0C0C02020202060606069F
:1001E000060606060B0B0B0B0B0B0B0B010210206C
:1001F000200808102040102040800201020108045D
:1002000002010102040810204080804020100804F0
:100210000201800402018040201008040201080449
:10022000020101020408102040800102040810208D
:100230004080720C11241FBECFEFD1E2DEBFCDBFD4
:1002400000E00CBF12E0A0E0B2E0EEEFFDE100E064
:100250000BBF02C007900D92AC33B107D9F723E072
:10026000ACE3B2E001C01D92AD3CB207E1F711E092
:10027000CAE1D1E000E006C021970109802FFE010C
:100280000E94DD0EC931D10780E00807A9F7B0D67A
:100290000C94FD0EB5CE80913D0290913E02A0914E
:1002A0003F02B09140020196A11DB11D80933D0215
:1002B00090933E02A0933F02B093400281E080936E
:1002C000A6028093A00280933C028093A10208952D
:1002D000CF92DF92EF92FF920F931F93CF93DF9312
:1002E0006C017A018B01C0E0D0E0CE15DF0589F00A
:1002F000D8016D918D01D601ED91FC910190F081B5
:10030000E02DC6011995892B11F47E0102C02196BA
:10031000ECCFC701DF91CF911F910F91FF90EF902C
:10032000DF90CF900895FC01538D448D252F30E050
:10033000842F90E0821B930B541710F0CF960895F2
:1003400001970895FC01918D828D981761F0828D3F
:10035000DF01A80FB11D5D968C91928D9F5F9F73F9
:10036000928F90E008958FEF9FEF0895FC01918D9B
:10037000828D981731F0828DE80FF11D858D90E008
:1003800008958FEF9FEF0895FC01918D228D892FA5
:1003900090E0805C9F4F821B91098F73992708958D
:1003A00088E193E0F1DF21E0892B09F420E0822F3E
:1003B0000895FC01848DDF01A80FB11DA35ABF4F22
:1003C0002C91848D90E001968F739927848FA68954
:1003D000B7892C93A089B1898C9180648C93938D7B
:1003E000848D981306C00288F389E02D80818F7D6B
:1003F00080830895EF92FF920F931F93CF93DF9323
:10040000EC0181E0888F9B8D8C8D981305C0E88965
:10041000F989808185FD23C0F62E0B8D10E00F5FDA
:100420001F4F0F731127E02E8C8DE8120BC00FB6F3
:1004300007FCFACFE889F989808185FFF5CFCE01E5
:10044000B8DFF2CF8B8DFE01E80FF11DE35AFF4FAD
:10045000F0820B8FEA89FB898081806207C0EE8978
:10046000FF896083E889F98980818064808381E0E5
:1004700090E0DF91CF911F910F91FF90EF90089541
:10048000CF93DF93EC01888D8823C1F0EA89FB8943
:10049000808185FD05C0A889B9898C9186FD0EC033
:1004A0000FB607FCF5CF808185FFF2CFA889B98907
:1004B0008C9185FFEDCFCE017CDFE8CFDF91CF912E
:1004C000089580E090E0892B19F06ADF811125C042
:1004D00080E090E0892B41F080E090E0892B21F0D2
:1004E0000E94000081111CC080E090E0892B41F047
:1004F00080E090E0892B21F00E940000811113C060
:1005000080E090E0892BA1F080E090E0892B81F0E1
:100510000E94000081110AC008950E940000D8CFF7
:100520000E940000E1CF0E940000EACF0C9400007E
:1005300008950895E091AC028091AB02E81730F481
:10054000F0E0E355FD4F808190E008958FEF9FEF3D
:1005500008959091AC028091AB02981750F4E92F66
:10056000F0E0E355FD4F208130E09F5F9093AC02B7
:1005700002C02FEF3FEFC90108958091AB0290E0D8
:100580002091AC02821B91090895089580E090E0CB
:10059000089585ED8093BC008091BC0084FDFCCF64
:1005A0001092F302089540916302262F30E0240F49
:1005B000311D21323105DCF42091F3022430C9F4DD
:1005C000FC0180E090E0861758F43091630221919D
:1005D000DC01AF5BBD4FA30FB11D2C930196F3CF90
:1005E00080916302680F6093630280E0089581E068
:1005F000089582E00895CF92DF92EF92FF920F93D9
:100600001F93CF93DF937C01262F972F8A01809130
:10061000F402882391F0C62FD72F6E01C40ED51E89
:10062000CC15DD0569F06991D701ED91FC91019040
:10063000F081E02DC7011995F3CF642F822FB3DF2E
:10064000C801DF91CF911F910F91FF90EF90DF9044
:10065000CF900895CF93DF931F92CDB7DEB7698314
:100660002091F4022223D1F020911703203240F090
:1006700021E030E0FC013383228380E090E014C06D
:100680008091F502E82FF0E0EA50FD4F99819083C8
:100690008F5F8093F5028093170304C061E0CE0161
:1006A000019681DF81E090E00F90DF91CF91089576
:1006B0000E94F90E1F920F920FB60F9211240BB6E3
:1006C0000F922F933F934F935F936F937F938F93EB
:1006D0009F93AF93BF93EF93FF9388E193E069DE1D
:1006E000FF91EF91BF91AF919F918F917F916F910A
:1006F0005F914F913F912F910F900BBE0F900FBEC6
:100700000F901F9018951F920F920FB60F92112401
:100710000BB60F922F938F939F93EF93FF93E091DC
:100720002803F09129038081E0912E03F0912F039B
:1007300082FD12C09081809131038F5F8F73209171
:100740003203821751F0E0913103F0E0E85EFC4F94
:10075000958F8093310301C08081FF91EF919F912C
:100760008F912F910F900BBE0F900FBE0F901F9087
:1007700018951F920F920FB60F9211240BB60F927D
:100780002F933F934F935F936F937F938F939F9399
:10079000AF93BF93EF93FF93E0918802F0918902AA
:1007A0001995FF91EF91BF91AF919F918F917F919B
:1007B0006F915F914F913F912F910F900BBE0F90D2
:1007C0000FBE0F901F9018951F920F920FB60F92A9
:1007D00011240BB60F922F933F934F935F936F9318
:1007E0007F938F939F93AF93BF93EF93FF938091EA
:1007F000B900887F803609F49CC068F5883209F416
:100800005BC090F4803109F454C038F4882309F4B3
:10081000F6C0883009F44DC0F5C0883109F44CC0E9
:10082000803209F45DC0EEC0803409F468C048F439
:10083000803309F455C0883309F0E4C08093F10295
:10084000D8C0803509F44FC0883509F45DC08834BC
:1008500009F0D8C0D6C0883909F4C7C0A8F48837D1
:1008600009F467C038F4883609F463C0803709F4A6
:1008700060C0C8C0883809F4B8C0803909F45FC0C6
:10088000803809F0BFC05BC0803B09F486C038F4F3
:10089000803A09F466C0883A09F47FC0B3C0803C4E
:1008A00009F4A7C0883C09F4A4C0883B09F48AC0B5
:1008B000A9C08091CE0210C09091F0028091EF0209
:1008C000981770F5E091F00281E08E0F8093F002AE
:1008D000F0E0E153FD4F80818093BB0085EC86C042
:1008E0008093F1028EC0E091F00281E08E0F809340
:1008F000F0028091BB00F0E0E153FD4F80839091C6
:10090000F0028091EF026EC0E091F00281E08E0F64
:100910008093F0028091BB00F0E0E153FD4F8083B3
:100920008091F20281116DC081E08093CD0284EA52
:1009300061C083E08093F30210928702CFCF809151
:100940008702803208F051C0E091870281E08E0F6B
:10095000809387028091BB00F0E0E959FD4F8083CE
:10096000BDCF85EC8093BC001092F302809187028A
:10097000803230F4E0918702F0E0E959FD4F1082B7
:100980006091870270E0E0916502F091660287E66F
:1009900092E019951092870235C084E08093F302AB
:1009A0001092640210926302E0916102F09162027F
:1009B000199580916302811105C081E080936302E3
:1009C00010924102E091640281E08E0F80936402F4
:1009D000F0E0EF5BFD4F80818093BB00909164025B
:1009E00080916302981708F479CF85E88093BC0062
:1009F00009C085EC8093BC001092F30203C01092F2
:100A0000F102C7DDFF91EF91BF91AF919F918F915F
:100A10007F916F915F914F913F912F910F900BBEFE
:100A20000F900FBE0F901F90189520911703909173
:100A30001603213208F04AC08091F3028111FCCFE5
:100A400032E03093F30231E03093F2023FEF309323
:100A5000F1021092F0022093EF02A6EFB2E04FEC09
:100A600052E0FA013E2F341B321718F43D913193B6
:100A7000F9CF1092CE022091CE02990F922B909333
:100A8000CE029091CD02913061F41092CD029091FE
:100A9000CE029093BB009091BC0093FDF8CF95ECF3
:100AA00001C095EE9093BC009091F3029230E1F377
:100AB0009091F1029F3F79F08091F102803241F0F4
:100AC0008091F102803331F084E005C081E003C001
:100AD00082E001C083E01092F50210921703109299
:100AE000F40208959091F3029111FCCF91E090935C
:100AF000F3029093F2022FEF2093F1021092F00292
:100B0000260F2093EF029093CE029091CE02880F91
:100B1000892B8093CE028091CD02813061F41092B6
:100B2000CD028091CE028093BB008091BC0083FDFA
:100B3000F8CF85EC01C085EE8093BC008091F30274
:100B40008130E1F38091F002861710F46091F00299
:100B5000AFECB2E02DEA32E0F9018E2F821B86174E
:100B600018F48D918193F9CF862F0895682F85EB26
:100B700093E070CD0F931F93CF93DF938C01C1EC63
:100B8000D3E0898191E09093F40280931603109250
:100B9000F50210921703812F90E0E8DFC801992732
:100BA000E5DF43DF888361E089819CDF1092AC023E
:100BB0008093AB0285EB93E0CCDCC82F36DF8C2F23
:100BC000DF91CF911F910F910895EF92FF920F93B4
:100BD0001F93CF93DF931F92CDB7DEB78C0181ECCB
:100BE000E82E83E0F82EF701818191E09093F402E2
:100BF000809316031092F50210921703812F90E054
:100C00006983B4DFC8019927B1DF698185EB93E07F
:100C100021DD0BDFF70180830F90DF91CF911F91D2
:100C20000F91FF90EF90089590E0FC01E451FE4F8A
:100C30002491FC01EA55FE4F8491882399F090E0BD
:100C4000880F991FFC01E457FE4FA591B491FC0158
:100C5000EE58FE4F859194918FB7F894EC91E22B6A
:100C6000EC938FBF0895009761F0FC010190002084
:100C7000E9F73197AF01481B590BBC0188E193E0BC
:100C800027CB80E090E008958F929F92AF92BF9221
:100C90000F931F93CF93DF93CDB7DEB7A1970FB616
:100CA000F894DEBF0FBECDBF19A2423008F44AE06F
:100CB0008E010F5D1F4F842E912CA12CB12CA5010C
:100CC000940178D6E62FB901CA0101501109EA3022
:100CD00014F4E05D01C0E95CD801EC93232B242BD4
:100CE000252B69F7C801BFDFA1960FB6F894DEBFC8
:100CF0000FBECDBFDF91CF911F910F91BF90AF90ED
:100D00009F908F900895CF92DF92EF92FF92CF93B2
:100D1000DF936C01990FEE08FF08F7FE1EC0E0910B
:100D20001803F09119030190F081E02D6DE288E144
:100D300093E01995EC0166277727CB016C197D09A3
:100D40008E099F094AE0A0DF8C0F9D1FDF91CF9194
:100D5000FF90EF90DF90CF9008954AE0C701B60171
:100D6000DF91CF91FF90EF90DF90CF908DCFEF92FA
:100D7000FF920F931F93CF93DF937C018B01C1EC04
:100D8000D3E0898191E09093F4028093160310924E
:100D9000F502109217038F2D90E0E8DEC701992726
:100DA000E5DE812F90E0E2DEC8019927DFDE3DDE3F
:100DB0008883DF91CF911F910F91FF90EF9008955D
:100DC0008093C303E82FF0E0EE0FFF1FE45FFD4FB9
:100DD0006081718186E990E0CADF8091C4036091EF
:100DE000C303CCD7682F84E290E0EFDE6091C303A9
:100DF00070E084E190E0CED781E290E0E6DE8DE223
:100E000090E0B8DE8E7F61E09091C303913009F0ED
:100E100060E0682B8DE290E0D8CE362F90E0FC01A8
:100E2000E45DFE4F4491FC01E451FE4F2491FC012E
:100E3000EA55FE4F9491992309F46AC0442309F4BA
:100E400054C050E0FA013197E231F10508F04DC08D
:100E50008827EC57FF4F8F4FB0C7809180008F7766
:100E600007C0809180008F7D03C080918000877FC4
:100E7000809380003AC084B58F7702C084B58F7D9F
:100E800084BD33C08091B0008F7703C08091B000E3
:100E90008F7D8093B00029C0809190008F7707C02C
:100EA000809190008F7D03C080919000877F809318
:100EB00090001BC08091A0008F7707C08091A00098
:100EC0008F7D03C08091A000877F8093A0000DC01C
:100ED000809120018F7707C0809120018F7D03C012
:100EE00080912001877F80932001E92FF0E0EE0FB1
:100EF000FF1FEE58FE4FA591B4918FB7F894EC9177
:100F0000311103C020952E2301C02E2B2C938FBFAF
:100F100008953FB7F8948091C9039091CA03A091B6
:100F2000CB03B091CC0326B5A89B05C02F3F19F089
:100F30000196A11DB11D3FBFBA2FA92F982F882759
:100F4000820F911DA11DB11DBC01CD0142E0660FB4
:100F5000771F881F991F4A95D1F708951F920F9206
:100F60000FB60F9211242F933F938F939F93AF93BC
:100F7000BF938091A7029091A802A091A902B0917D
:100F8000AA023091C80323E0230F2D3720F40196E5
:100F9000A11DB11D05C026E8230F0296A11DB11D9C
:100FA0002093C8038093A7029093A802A093A9025C
:100FB000B093AA028091C9039091CA03A091CB0378
:100FC000B091CC030196A11DB11D8093C9039093EC
:100FD000CA03A093CB03B093CC03BF91AF919F9171
:100FE0008F913F912F910F900FBE0F901F901895EA
:100FF000CF93DF931F92CDB7DEB7789484B582602C
:1010000084BD84B5816084BD85B5826085BD85B5AC
:10101000816085BD80916E00816080936E0010922A
:1010200081008091810082608093810080918100A5
:101030008160809381008091800081608093800036
:101040008091B10084608093B1008091B000816094
:101050008093B00080919100826080939100809194
:1010600091008160809391008091900081608093D5
:1010700090008091A10082608093A1008091A100E6
:1010800081608093A1008091A00081608093A00086
:1010900080912101826080932101809121018160F2
:1010A00080932101809120018160809320018091B3
:1010B0007A00846080937A0080917A0082608093C5
:1010C0007A0080917A00816080937A0080917A0022
:1010D000806880937A001092C1008BE1A5DD8AE1DF
:1010E000A3DD84E0A1DD60E08BE197DE61E08AE1D1
:1010F00094DE61E084E091DEE0912803F091290321
:1011000092E09083E0912403F09125031082E09116
:101110002603F091270320E1208310923003E09111
:101120002C03F0912D0386E08083E0912A03F09157
:101130002B03808180618083E0912A03F0912B034F
:10114000808188608083E0912A03F0912B03808165
:1011500080688083E0912A03F0912B0380818F7D4A
:101160008083209381001092800090938C0280E510
:1011700093EC90938B0280938A02909387008093E4
:10118000860082E180938100C4DE4B015C0134E67D
:10119000C32ED12CE12CF12CBCDEDC01CB01881953
:1011A0009909AA09BB09883E9340A105B10558F0E9
:1011B00021E0C21AD108E108F10888EE880E83E028
:1011C000981EA11CB11CC114D104E104F10421F743
:1011D0008BE491E0909389028093880211E0109350
:1011E0006F001092AC021092AB021092F5021092B6
:1011F00017031092F3021093F2021092CD0261E0F5
:1012000084E10BDE61E085E108DE8091B9008E7F2C
:101210008093B9008091B9008D7F8093B90088E4F4
:101220008093B80085E48093BC0084E290E0A2DC67
:101230008093C40386E190E09DDC813009F07FC09B
:101240008093C30361E087E092E0BFDC61E088E067
:1012500092E0BBDC60E086E990E0B7DC6DEF87E907
:1012600090E0B3DC60E083EE90E0AFDC64E084EE1D
:1012700090E0ABDC62E085EE90E0A7DC61E086EE1A
:1012800090E0A3DC63E087EE90E09FDC62E085EF16
:1012900090E09BDC65E089ED90E097DC6EEC8BEDF7
:1012A00090E093DC63E08CED90E08FDC68EF8DEDF7
:1012B00090E08BDC60E08FE990E087DC6CE383EA10
:1012C00090E083DC60E087EB90E07FDC6CE38BEB0D
:1012D00090E07BDC69E082EB90E077DC69E08AEC0F
:1012E00090E073DC61E088E991E06FDC67E180EB1E
:1012F00091E06BDC60E08DEA91E067DC65E08FEF08
:1013000090E063DC65E080E091E05FDC65E089E926
:1013100091E05BDC6BE186EA91E057DC6EE38CEAFE
:1013200091E053DC6FE187EA91E04FDC60E080E31D
:1013300090E04BDC60E086E190E047DC42C08091C9
:10134000C2031093F402809316031092F5021092D8
:10135000170380E090E00ADC86E990E007DC65DBBB
:101360008093C10362E08091C203BCDB1092AC02A7
:101370008093AB0285EB93E0ECD8F82E85EB93E0FD
:10138000E8D820E030E03F2D7901E82AF92A4DDB4A
:10139000F4E5EF16F10411F483E005C02FE7E2163F
:1013A000F10421F482E08093C30302C01093C303CD
:1013B0008091C3039091C403899F802D1124809351
:1013C000C40360E38AE091E000DC66E48FE390E030
:1013D000FCDB6FEF81E390E0F8DB63E670E080E434
:1013E00090E0C5DC61E08EE290E0EFDB69E08BE14C
:1013F00090E0EBDB61E38EE390E0E7DB64E284E125
:1014000090E0E3DB61E38CE190E0DFDB60E083EA26
:1014100092E0DBDB81E0D4DC82E0D2DC20E3222E30
:1014200021E0322E8091A602882309F44EC010924A
:10143000A6021091C30361E088E190E0C6DB2FB7FC
:10144000F8948091A7029091A802A091A902B0916E
:10145000AA022FBF7C018FE490E08CDB82FD1FC0CD
:101460008091C5039091C603892BA9F32FB7F894F7
:101470008091A7029091A802A091A902B091AA021E
:101480002FBF8E199F092091C5033091C6032817DD
:10149000390708F781E08093C7032FEF09C082E680
:1014A00090E068DBF82E61E085E190E08EDB2F2D87
:1014B00030E0A12FB0E0A0D248D36093A202709395
:1014C000A3028093A4029093A5028091A102882395
:1014D00009F4A8C11092A102C0909B02D0909C0276
:1014E000E0909D02F0909E0220E030E04AEF53E44D
:1014F000C701B601F5D2882351F011E020E030E0B9
:101500004AEF53ECC701B601EBD2811101C010E0E4
:10151000612E712C70929A02609299022091A2021F
:101520003091A3024091A4025091A502609108025B
:101530007091090280910A0290910B026CD26B01AA
:101540007C0160939502709396028093970290932A
:10155000980280908D0290908E02A0908F02B090A1
:101560009002B301770C880B990BF1D22DEC3CEC77
:101570004CEC5DE3A0D320E030E040E85EE39BD399
:101580002B013C01A5019401C701B60145D29B0185
:10159000AC01C301B2018FD320919102309192022C
:1015A000409193025091940237D22B013C01A50146
:1015B0009401C701B6012FD29B01AC012DD29B0132
:1015C000AC01C301B20128D26B017C01609304021B
:1015D00070930502809306029093070220E030E0AA
:1015E0004AEF53E464D3181684F020E030E04AEF69
:1015F00053ECC701B60174D287FF0DC0C12CD12CAA
:101600008AEFE82E83ECF82E06C0C12CD12C9AEF7D
:10161000E92E93E4F92EC0929B02D0929C02E092B4
:101620009D02F0929E02C701B6015ED29B01AC0101
:10163000245F314041095109AFEFB0E0B1D128E159
:101640003CEF4FEF5FEF90D1122F20939F02E22EDD
:10165000F12C84E02983E8DA2981111102C060E0CD
:1016600003C01F3F21F461E084E0D7DBABC0F10190
:10167000849190E0FC013197E231F10508F09CC0C3
:101680008827EE58FF4F8F4F98C384B5806884BD7C
:1016900027BD98C084B5806284BD28BD93C0809169
:1016A0008000806880938000F0928900E09288003A
:1016B00089C080918000806280938000F0928B00CE
:1016C000E0928A007FC080918000886080938000D3
:1016D000F0928D00E0928C0075C08091B00080681F
:1016E0008093B0002093B3006DC08091B000806201
:1016F0008093B0002093B40065C080919000806812
:1017000080939000F0929900E09298005BC08091E5
:101710009000806280939000F0929B00E0929A008B
:1017200051C080919000886080939000F0929D005D
:10173000E0929C0047C08091A00080688093A00048
:101740008091A0008F7B8093A000F092A900E0928E
:10175000A80038C08091A00080628093A000F09221
:10176000AB00E092AA002EC08091A0008860809318
:10177000A000F092AD00E092AC0024C08091200166
:10178000806880932001F0922901E09228011AC01C
:1017900080912001806280932001F0922B01E092E1
:1017A0002A0110C080912001886080932001F0926E
:1017B0002D01E0922C0106C0F0E8EF16F1040CF0C8
:1017C00052CF4DCF8091950290919602A0919702B1
:1017D000B091980280938D0290938E02A0938F0215
:1017E000B093900280919B0290919C02A0919D02E7
:1017F000B0919E028093910290939202A0939302E3
:10180000B09394028091080290910902A0910A027B
:10181000B0910B028093000290930102A093020208
:10182000B09303028091A002882309F458C088E194
:1018300093E00E94C401892BB9F088E193E00E94F3
:10184000C401892B89F088E193E00E94A201BC01C8
:10185000990F880B990B7BD1609308027093090252
:1018600080930A0290930B021092A00280919F0233
:10187000843618F090E047DA0AC080E090E043DA5E
:1018800060919F0270E080E090E04AE0FDD988E33B
:1018900092E0E9D9C090A202D090A302E090A40205
:1018A000F090A50220E030E046EC52E4C701B6011A
:1018B000FED118161CF4C701B6010BC080E090E001
:1018C00022DA6091A2027091A3028091A402909109
:1018D000A5020AD1CB0117DA8AE392E0C4D90E94AB
:1018E0006102A0CDE8E1F3E01382128288EE93E07A
:1018F000A0E0B0E084839583A683B78328E132E03B
:101900003183208325EC30E03587248724EC30E0D8
:101910003787268720EC30E0318B208B21EC30E0BC
:10192000338B228B22EC30E0358B248B26EC30E09D
:10193000378B268B118E128E138E148EE5EBF3E00F
:101940001382128284839583A683B7838AE292E00E
:1019500091838083E1ECF3E089E281831282138238
:101960001582148216820895052E97FB16F40094B2
:101970000FD057FD05D01ED007FC02D046F408C09A
:1019800050954095309521953F4F4F4F5F4F0895AB
:1019900090958095709561957F4F8F4F9F4F0895DB
:1019A0002BD0A59F900DB49F900DA49F800D911DED
:1019B00011240895A1E21A2EAA1BBB1BFD010DC024
:1019C000AA1FBB1FEE1FFF1FA217B307E407F507EF
:1019D00020F0A21BB30BE40BF50B661F771F881FCB
:1019E000991F1A9469F760957095809590959B0161
:1019F000AC01BD01CF010895A29FB001B39FC0010A
:101A0000A39F700D811D1124911DB29F700D811D2A
:101A10001124911D08955058BB27AA270ED00DC13F
:101A2000FED030F003D120F031F49F3F11F41EF4CA
:101A3000F3C00EF4E095E7FBE9C0E92F0FD180F386
:101A4000BA17620773078407950718F071F49EF5BB
:101A500027C10EF4E0950B2EBA2FA02D0B01B90172
:101A600090010C01CA01A0011124FF27591B99F014
:101A7000593F50F4503E68F11A16F040A22F232F20
:101A8000342F4427585FF3CF469537952795A79570
:101A9000F0405395C9F77EF41F16BA0B620B730B17
:101AA000840BBAF09150A1F0FF0FBB1F661F771F88
:101AB000881FC2F70EC0BA0F621F731F841F48F43D
:101AC000879577956795B795F7959E3F08F0B3CFC3
:101AD0009395880F08F09927EE0F979587950895AD
:101AE00071D008F481E0089504D06894B111D9C090
:101AF0000895BCD088F09F5790F0B92F9927B7511F
:101B0000A0F0D1F0660F771F881F991F1AF0BA95C1
:101B1000C9F712C0B13081F0C3D0B1E00895C0C0A0
:101B2000672F782F8827B85F39F0B93FCCF38695B7
:101B300077956795B395D9F73EF490958095709514
:101B400061957F4F8F4F9F4F0895E89409C097FB91
:101B50003EF490958095709561957F4F8F4F9F4F84
:101B60009923A9F0F92F96E9BB279395F6958795C8
:101B700077956795B795F111F8CFFAF4BB0F11F48B
:101B800060FF1BC06F5F7F4F8F4F9F4F16C0882332
:101B900011F096E911C0772321F09EE8872F762F68
:101BA00005C0662371F096E8862F70E060E02AF0A9
:101BB0009A95660F771F881FDAF7880F9695879595
:101BC00097F90895990F0008550FAA0BE0E8FEEF6A
:101BD00016161706E807F907C0F012161306E407F1
:101BE000F50798F0621B730B840B950B39F40A26EA
:101BF00061F0232B242B252B21F408950A2609F4C8
:101C0000A140A6958FEF811D811D089597F99F67CB
:101C100080E870E060E008959FEF80EC0895002474
:101C20000A941616170618060906089500240A9441
:101C300012161306140605060895092E0394000CC7
:101C400011F4882352F0BB0F40F4BF2B11F460FF56
:101C500004C06F5F7F4F8F4F9F4F089557FD90587F
:101C6000440F551F59F05F3F71F04795880F97FB60
:101C7000991F61F09F3F79F087950895121613061A
:101C80001406551FF2CF4695F1DF08C01616170649
:101C90001806991FF1CF869571056105089408957E
:101CA000E894BB2766277727CB0197F908958ADF49
:101CB00008F48FEF08950BD0C0CFB1DF28F0B6DF66
:101CC00018F0952309F0A2CFA7CF1124EACFC6DFE1
:101CD000A0F3959FD1F3950F50E0551F629FF0013F
:101CE000729FBB27F00DB11D639FAA27F00DB11D98
:101CF000AA1F649F6627B00DA11D661F829F222721
:101D0000B00DA11D621F739FB00DA11D621F839FA7
:101D1000A00D611D221F749F3327A00D611D231F7D
:101D2000849F600D211D822F762F6A2F11249F57CB
:101D300050408AF0E1F088234AF0EE0FFF1FBB1FEE
:101D4000661F771F881F91505040A9F79E3F51058D
:101D500070F05CCFA6CF5F3FECF3983EDCF3869546
:101D600077956795B795F795E7959F5FC1F7FE2B38
:101D7000880F911D9695879597F90895991B79E09D
:101D800004C0991F961708F0961B881F7A95C9F70B
:101D90008095089597FB072E16F4009406D077FDE2
:101DA00008D013D007FC05D03EF4909581959F4F45
:101DB0000895709561957F4F0895EE0FFF1F881F5E
:101DC0008BBF0790F691E02D1994AA1BBB1B51E124
:101DD00007C0AA1FBB1FA617B70710F0A61BB70B9B
:101DE000881F991F5A95A9F780959095BC01CD0140
:0E1DF000089581E090E0F89400C0F894FFCFD1
:101DFE000000F042000048C20000F0420000FD006A
:101E0E007F00540000000000FA01680193014002B7
:101E1E00C401A201B601000000002A03FB02C602A3
:0C1E2E009902BD02A9029A022C003B00A0
:00000001FF
