:1000000014C1000042C1000040C100003EC1000018
:100010003CC100003AC1000038C1000036C10000F8
:1000200034C1000032C1000030C100002EC1000008
:100030002CC100002AC1000028C1000026C1000018
:1000400024C1000022C1000020C100001EC1000028
:1000500066C600001AC1000018C1000019C30000E4
:1000600014C1000026C60000FBC500000EC1000040
:100070000CC100000AC1000008C1000006C1000058
:1000800004C1000002C1000000C1000073C60000EE
:10009000FCC00000FAC00000F8C0000096C60000D6
:1000A000F4C00000F2C00000F0C00000EEC000008C
:1000B000ECC00000EAC00000E8C00000E6C000009C
:1000C000E4C00000E2C00000E0C00000DEC00000AC
:1000D000DCC00000DAC00000D8C00000D6C00000BC
:1000E000D4C00000DE02E102D002D402DA0218031A
:1000F000E502E902EF02F302F702FD020103050344
:1001000018030B030F03130300000A0B02090C0D65
:100110000E080703040100000000000000000000BA
:1001200000000000000000000000000000000000CF
:10013000000000001211100000000000000000008C
:1001400000000000000000000000000000000000AF
:100150002200250028002B002E003100340002016F
:100160000000050108010B01000021002400270008
:100170002A002D00300033000101000004010701B6
:100180000A0105050505070508080808020202021C
:100190000A0A080804040404010101010101010123
:1001A0000303030303030303040707070C0C0C0CEE
:1001B0000C0C0C0C020202020606060606060606D7
:1001C0000B0B0B0B0B0B0B0B010210202008081064
:1001D00020401020408002010201080402010102B7
:1001E0000408102040808040201008040201800490
:1001F00002018040201008040201080402010102EB
:1002000004081020408001020408102040800000F3
:1002100020002300260029002C002F0032000001BE
:100220000000030106010901160811241FBECFEFCB
:10023000D1E2DEBFCDBF00E00CBF12E0A0E0B2E033
:10024000E4E8F6E100E00BBF02C007900D92A6368D
:10025000B107D9F723E0A6E6B2E001C01D92AD3D9B
:10026000B207E1F711E0C5E1D1E000E006C0219757
:100270000109802FFE010E94110BC431D10780E0DB
:100280000807A9F715D70C94400BBACE2091D902D4
:1002900090918903213208F04AC08091B602811101
:1002A000FCCF32E03093B60231E03093B5023FEF3D
:1002B0003093B4021092B3022093B202A9EBB2E0E1
:1002C00042E952E0FA013E2F341B321718F43D91F7
:1002D0003193F9CF1092910220919102990F922BB4
:1002E0009093910290919002913061F4109290025B
:1002F000909191029093BB009091BC0093FDF8CF38
:1003000095EC01C095EE9093BC009091B6029230AE
:10031000E1F39091B4029F3F79F08091B402803272
:1003200041F08091B402803331F084E005C081E077
:1003300003C082E001C083E01092B8021092D9029B
:100340001092B70208959091B6029111FCCF91E0FE
:100350009093B6029093B5022FEF2093B4021092BF
:10036000B302260F2093B2029093910290919102D2
:10037000880F892B8093910280919002813061F4E3
:1003800010929002809191028093BB008091BC00FA
:1003900083FDF8CF85EC01C085EE8093BC00809191
:1003A000B6028130E1F38091B302861710F46091B8
:1003B000B302A2E9B2E020E732E0F9018E2F821BFE
:1003C000861718F48D918193F9CF862F089590E0C8
:1003D000FC01E853FE4F2491FC01EE57FE4F84913F
:1003E000882399F090E0880F991FFC01E859FE4F8F
:1003F000A591B491FC01E25BFE4F859194918FB77A
:10040000F894EC91E22BEC938FBF08953FB7F894EA
:100410008091850390918603A0918703B091880312
:1004200026B5A89B05C02F3F19F00196A11DB11D4F
:100430003FBFBA2FA92F982F8827820F911DA11D8A
:10044000B11DBC01CD0142E0660F771F881F991FC7
:100450004A95D1F70895682F8AE893E025C3EF9273
:10046000FF920F931F93CF93DF937C018B01C7E71C
:10047000D3E0898191E09093B70280938903109231
:10048000B8021092D9028F2D90E0E5DFC7019927BD
:10049000E2DF812F90E0DFDFC8019927DCDFF6DEA5
:1004A0008883DF91CF911F910F91FF90EF90089576
:1004B000009761F0FC0101900020E9F73197AF014E
:1004C000481B590BBC018AED92E02CC180E090E002
:1004D00008950F931F93CF93DF938C01C7E7D3E069
:1004E000898191E09093B702809389031092B802BA
:1004F0001092D902812F90E0AEDFC8019927ABDFBF
:10050000C5DE888361E089811EDF10926F028093CF
:100510006E028AE893E047D2C82FB8DE8C2FDF91B5
:10052000CF911F910F910895EF92FF920F931F9318
:10053000CF93DF931F92CDB7DEB78C0187E7E82E0C
:1005400083E0F82EF701818191E09093B7028093C8
:1005500089031092B8021092D902812F90E069832A
:100560007ADFC801992777DF69818AE893E09CD216
:100570008DDEF70180830F90DF91CF911F910F9156
:10058000FF90EF90089590E0FC013197E231F10582
:1005900008F04EC08827EE58FF4F8F4F0C94110B78
:1005A000809180008F7703C0809180008F7D809341
:1005B0008000089580918000877FF9CF84B58F7780
:1005C00002C084B58F7D84BD08958091B0008F777F
:1005D00003C08091B0008F7D8093B000089580911A
:1005E00090008F7707C0809190008F7D03C080912D
:1005F0009000877F8093900008958091A0008F776E
:1006000007C08091A0008F7D03C08091A000877FEC
:100610008093A0000895809120018F7707C080917A
:1006200020018F7D03C080912001877F809320016E
:1006300008951F93CF93DF93282F30E0F901E85FEF
:10064000FE4F8491F901E853FE4FD491F901EE5722
:10065000FE4FC491CC23C1F0162F811194DFEC2FF3
:10066000F0E0EE0FFF1FE25BFE4FA591B4918FB754
:10067000F894111105C09C91ED2FE095E92302C07B
:10068000EC91ED2BEC938FBFDF91CF911F910895EB
:100690001F920F920FB60F9211242F933F938F93B7
:1006A0009F93AF93BF9380916A0290916B02A09148
:1006B0006C02B0916D023091840323E0230F2D373B
:1006C00020F40196A11DB11D05C026E8230F029656
:1006D000A11DB11D2093840380936A0290936B0245
:1006E000A0936C02B0936D02809185039091860374
:1006F000A0918703B09188030196A11DB11D80933D
:10070000850390938603A0938703B0938803BF91DA
:10071000AF919F918F913F912F910F900FBE0F90AE
:100720001F901895CF92DF92EF92FF920F931F9335
:10073000CF93DF936C017A018B01C0E0D0E0CE153E
:10074000DF0589F0D8016D918D01D601ED91FC9105
:100750000190F081E02DC6011995892B11F47E01DD
:1007600002C02196ECCFC701DF91CF911F910F916D
:10077000FF90EF90DF90CF900895FC01538D448D52
:10078000252F30E0842F90E0821B930B541710F03C
:10079000CF96089501970895FC01918D828D981749
:1007A00061F0828DDF01A80FB11D5D968C91928D55
:1007B0009F5F9F73928F90E008958FEF9FEF089552
:1007C000FC01918D828D981731F0828DE80FF11D1B
:1007D000858D90E008958FEF9FEF0895FC01918D36
:1007E000228D892F90E0805C9F4F821B91098F732F
:1007F000992708958AED92E0F1DF21E0892B09F431
:1008000020E0822F0895FC01848DDF01A80FB11D27
:10081000A35ABF4F2C91848D90E001968F73992736
:10082000848FA689B7892C93A089B1898C91806423
:100830008C93938D848D981306C00288F389E02DE4
:1008400080818F7D80830895EF92FF920F931F9395
:10085000CF93DF93EC0181E0888F9B8D8C8D981373
:1008600005C0E889F989808185FD23C0F62E0B8DAE
:1008700010E00F5F1F4F0F731127E02E8C8DE812D1
:100880000BC00FB607FCFACFE889F989808185FF94
:10089000F5CFCE01B8DFF2CF8B8DFE01E80FF11D51
:1008A000E35AFF4FF0820B8FEA89FB8980818062D7
:1008B00007C0EE89FF896083E889F98980818064B7
:1008C000808381E090E0DF91CF911F910F91FF90A5
:1008D000EF900895CF93DF93EC01888D8823C1F0CA
:1008E000EA89FB89808185FD05C0A889B9898C9139
:1008F00086FD0EC00FB607FCF5CF808185FFF2CFD5
:10090000A889B9898C9185FFEDCFCE017CDFE8CF36
:10091000DF91CF91089580E090E0892B19F06ADF94
:10092000811125C080E090E0892B41F080E090E0CB
:10093000892B21F00E94000081111CC080E090E012
:10094000892B41F080E090E0892B21F00E9400008B
:10095000811113C080E090E0892BA1F080E090E04D
:10096000892B81F00E94000081110AC008950E9425
:100970000000D8CF0E940000E1CF0E940000EACF23
:100980000C94000008950895E0916F0280916E022A
:10099000E81730F4F0E0E059FD4F808190E00895D1
:1009A0008FEF9FEF089590916F0280916E029817DC
:1009B00050F4E92FF0E0E059FD4F208130E09F5FD7
:1009C00090936F0202C02FEF3FEFC901089580910D
:1009D0006E0290E020916F02821B910908950895A4
:1009E00080E090E0089585ED8093BC008091BC008C
:1009F00084FDFCCF1092B60208954091B803262FD3
:100A000030E0240F311D21323105DCF42091B60293
:100A10002430C9F4FC0180E090E0861758F430914E
:100A2000B8032191DC01AA56BC4FA30FB11D2C9332
:100A30000196F3CF8091B803680F6093B80380E00C
:100A4000089581E0089582E00895CF92DF92EF92B9
:100A5000FF920F931F93CF93DF937C01262F972F45
:100A60008A018091B702882391F0C62FD72F6E019B
:100A7000C40ED51ECC15DD0569F06991D701ED9145
:100A8000FC910190F081E02DC7011995F3CF642FFF
:100A9000822FB3DFC801DF91CF911F910F91FF909B
:100AA000EF90DF90CF900895CF93DF931F92CDB753
:100AB000DEB769832091B7022223D1F02091D902B9
:100AC000203240F021E030E0FC013383228380E0DB
:100AD00090E014C08091B802E82FF0E0E754FD4F99
:100AE000998190838F5F8093B8028093D90204C06C
:100AF00061E0CE01019681DF81E090E00F90DF910F
:100B0000CF910895B9D5CF93DF9386E592E0D0DCFD
:100B100083E592E0CDDCECE0F1E08491ECECF1E0F7
:100B2000D491E6E8F1E0C491CC2399F081112BDD5A
:100B3000EC2FF0E0EE0FFF1FE25FFD4FA591B491A7
:100B4000EC91ED2391E080E009F490E0692F782F9B
:100B500002C060E070E081E0682784E0DF91CF911F
:100B600068CDCF92DF92EF92FF920F931F93CF93B6
:100B7000DF93CDB7DEB7A1970FB6F894DEBF0FBEF7
:100B8000CDBFF090790361E088E190E0CDDC8FB7D4
:100B9000F89400916A0210916B0220916C023091DE
:100BA0006D028FBF8FE490E094DC82FD1FC08091C6
:100BB0007B0390917C03892BA9F32FB7F894809144
:100BC0006A0290916B02A0916C02B0916D022FBFEE
:100BD000801B910B20917B0330917C0328173907F0
:100BE00008F781E080937D032FEF09C082E690E053
:100BF00070DC182F61E085E190E096DC212F30E079
:100C0000AF2DB0E016D59B01AC0119A28E010F5D8E
:100C10001F4F8AE0C82ED12CE12CF12CCA01B9015A
:100C2000A7019601DCD4605DF80162938F01211564
:100C300031054105510591F7CF013ADC83E592E09A
:100C400037DCA1960FB6F894DEBF0FBECDBFDF91A3
:100C5000CF911F910F91FF90EF90DF90CF9008956B
:100C60001F920F920FB60F9211240BB60F922F9373
:100C70003F934F935F936F937F938F939F93AF9324
:100C8000BF93EF93FF938AED92E0BDDDFF91EF916B
:100C9000BF91AF919F918F917F916F915F914F9194
:100CA0003F912F910F900BBE0F900FBE0F901F9092
:100CB00018951F920F920FB60F9211240BB60F9238
:100CC0002F938F939F93EF93FF93E091EA02F0911C
:100CD000EB028081E091F002F091F10282FD12C0FE
:100CE00090818091F3028F5F8F732091F4028217BD
:100CF00051F0E091F302F0E0E652FD4F958F8093C2
:100D0000F30201C08081FF91EF919F918F912F910C
:100D10000F900BBE0F900FBE0F901F9018951F9253
:100D20000F920FB60F9211240BB60F922F933F9391
:100D30004F935F936F937F938F939F93AF93BF93E3
:100D4000EF93FF93E0916802F09169021995FF918A
:100D5000EF91BF91AF919F918F917F916F915F9133
:100D60004F913F912F910F900BBE0F900FBE0F90A0
:100D70001F9018951F920F920FB60F9211240BB669
:100D80000F922F933F934F935F936F937F938F9324
:100D90009F93AF93BF93EF93FF93E0916602F0911F
:100DA00067021995FF91EF91BF91AF919F918F913C
:100DB0007F916F915F914F913F912F910F900BBE5B
:100DC0000F900FBE0F901F9018951F920F920FB6A5
:100DD0000F9211240BB60F922F933F934F935F9373
:100DE0006F937F938F939F93AF93BF93EF93FF93F3
:100DF0008091B900887F803609F49CC068F58832FC
:100E000009F45BC090F4803109F454C038F48823AD
:100E100009F4F6C0883009F44DC0F5C0883109F4F2
:100E20004CC0803209F45DC0EEC0803409F468C063
:100E300048F4803309F455C0883309F0E4C0809346
:100E4000B402D8C0803509F44FC0883509F45DC0BC
:100E5000883409F0D8C0D6C0883909F4C7C0A8F4CE
:100E6000883709F467C038F4883609F463C08037DE
:100E700009F460C0C8C0883809F4B8C0803909F4E2
:100E80005FC0803809F0BFC05BC0803B09F486C0FA
:100E900038F4803A09F466C0883A09F47FC0B3C0D8
:100EA000803C09F4A7C0883C09F4A4C0883B09F43D
:100EB0008AC0A9C08091910210C09091B302809124
:100EC000B202981770F5E091B30281E08E0F809323
:100ED000B302F0E0EE56FD4F80818093BB0085ECBD
:100EE00086C08093B4028EC0E091B30281E08E0F81
:100EF0008093B3028091BB00F0E0EE56FD4F8083FB
:100F00009091B3028091B2026EC0E091B30281E091
:100F10008E0F8093B3028091BB00F0E0EE56FD4F40
:100F200080838091B50281116DC081E08093900231
:100F300084EA61C083E08093B6021092DC03CFCFD5
:100F40008091DC03803208F051C0E091DC0381E045
:100F50008E0F8093DC038091BB00F0E0E454FC4FE3
:100F60008083BDCF85EC8093BC001092B602809147
:100F7000DC03803230F4E091DC03F0E0E454FC4F19
:100F800010826091DC0370E0E091BA03F091BB0342
:100F90008CEB93E019951092DC0335C084E08093CC
:100FA000B6021092B9031092B803E091B603F09123
:100FB000B70319958091B803811105C081E0809332
:100FC000B80310929603E091B90381E08E0F8093ED
:100FD000B903F0E0EA56FC4F80818093BB0090910A
:100FE000B9038091B803981708F479CF85E8809306
:100FF000BC0009C085EC8093BC001092B60203C00F
:101000001092B402F0DCFF91EF91BF91AF919F91EC
:101010008F917F916F915F914F913F912F910F90A1
:101020000BBE0F900FBE0F901F901895EAEDF2E0E7
:101030001382128288EE93E0A0E0B0E0848395836F
:10104000A683B78324E032E03183208325EC30E0AF
:101050003587248724EC30E03787268720EC30E082
:10106000318B208B21EC30E0338B228B22EC30E073
:10107000358B248B26EC30E0378B268B118E128E2D
:10108000138E148EEAE8F3E0138212828483958330
:10109000A683B78386E192E091838083E7E7F3E05C
:1010A00089E2818312821382158214821682089546
:1010B000789484B5826084BD84B5816084BD85B533
:1010C000826085BD85B5816085BD80916E0081603F
:1010D00080936E00109281008091810082608093E5
:1010E00081008091810081608093810080918000E7
:1010F0008160809380008091B10084608093B10012
:101100008091B00081608093B000809191008260F6
:1011100080939100809191008160809391008091F3
:1011200090008160809390008091A1008260809304
:10113000A1008091A10081608093A1008091A00016
:1011400081608093A00080912101826080932101C1
:101150008091210181608093210180912001816033
:101160008093200180917A00846080937A0080913E
:101170007A00826080937A0080917A008160809307
:101180007A0080917A00806880937A001092C10082
:10119000E091EA02F091EB02D2E0D083E091E60226
:1011A000F091E7021082E091E802F091E90280E11B
:1011B00080831092F202E091EE02F091EF0286E05D
:1011C0008083E091EC02F091ED0280818061808368
:1011D000E091EC02F091ED02808188608083E091E3
:1011E000EC02F091ED02808180688083E091EC0256
:1011F000F091ED0280818F7D808310926F021092BA
:101200006E021092B8021092D9021092B602C1E09A
:10121000C093B5021092900261E084E10ADA61E0C5
:1012200085E107DA8091B9008E7F8093B9008091C3
:10123000B9008D7F8093B90088E48093B80085E47D
:101240008093BC0084E290E044D980937A0386E1E5
:1012500090E03FD9813009F07FC08093790361E04D
:1012600087E092E061D961E088E092E05DD960E0DA
:1012700086E990E059D96DEF87E990E055D960E0B3
:1012800083EE90E051D964E084EE90E04DD962E0C5
:1012900085EE90E049D961E086EE90E045D963E0C3
:1012A00087EE90E041D962E085EF90E03DD965E0BE
:1012B00089ED90E039D96EEC8BED90E035D963E0A3
:1012C0008CED90E031D968EF8DED90E02DD960E0A4
:1012D0008FE990E029D96CE383EA90E025D960E0BA
:1012E00087EB90E021D96CE38BEB90E01DD969E0AE
:1012F00082EB90E019D969E08AEC90E015D961E0C1
:1013000088E991E011D967E180EB91E00DD960E0C7
:101310008DEA91E009D965E08FEF90E005D965E0AD
:1013200080E091E001D965E089E991E0FDD86BE1C9
:1013300086EA91E0F9D86EE38CEA91E0F5D86FE1A6
:1013400087EA91E0F1D860E080E390E0EDD860E0DA
:1013500086E190E0E9D846C080917803C093B70257
:10136000809389031092B8021092D90280E090E035
:1013700072D886E990E06FD80E9446018093770387
:1013800062E0809178030E94A30110926F02809323
:101390006E028AE893E007DBF82E8AE893E003DB2D
:1013A00020E030E03F2D7901E82AF92A0E94460129
:1013B00024E5E216F10421F483E08093790309C067
:1013C0008FE7E816F10419F4D093790302C0C093B3
:1013D00079038091790390917A03899F802D11245C
:1013E00080937A0360E38AE091E09ED866E48FE31D
:1013F00090E09AD86FEF81E390E096D863E670E0D2
:1014000080E490E02CD861E08EE290E08DD869E035
:101410008BE190E089D861E38EE390E085D864E2C7
:1014200084E190E081D861E38CE190E07DD860E0D8
:1014300083EA92E079D881E0809379036DEF70E0E0
:1014400086E990E00CD880917A0360917903A8D066
:10145000682F84E290E068D86091790370E084E1BD
:1014600090E0AAD081E290E05FD88DE290E031D8A0
:101470008E7F61E090917903913009F060E0682BF4
:101480008DE290E051D80E9406024B015C0188EE8B
:10149000C82E83E0D82EE12CF12C0E940602DC013C
:1014A000CB0188199909AA09BB09883E9340A10577
:1014B000B10558F021E0C21AD108E108F10888EE20
:1014C000880E83E0981EA11CB11CC114D104E10454
:1014D000F10419F78BE10E94E7018AE10E94E7011C
:1014E00084E00E94E70160E08BE1A3D861E08AE13B
:1014F000A0D861E084E09DD880E1809381001092C3
:10150000800093E09093830324E234EF30938203CE
:1015100020938103309387002093860093E190937A
:101520008100809391001092900082E0809380036C
:1015300080E593EC90937F0380937E0390939700D4
:101540008093960082E18093910083E895E09093E8
:1015500069028093680281E080936F0021EB35E09F
:1015600030936702209366028093710084E292E0D8
:101570000E9458028BE292E00E9458028DE292E0B3
:101580000E9458028BE292E00E9458028DE392E0A2
:101590000E94580283E592E00E945802BCD9FECF17
:1015A000991B79E004C0991F961708F0961B881FB5
:1015B0007A95C9F78095089597FB072E16F4009445
:1015C00006D077FD08D044D007FC05D03EF49095B6
:1015D00081959F4F0895709561957F4F0895A1E281
:1015E0001A2EAA1BBB1BFD010DC0AA1FBB1FEE1F9D
:1015F000FF1FA217B307E407F50720F0A21BB30BE8
:10160000E40BF50B661F771F881F991F1A9469F763
:1016100060957095809590959B01AC01BD01CF01BF
:101620000895EE0FFF1F881F8BBF0790F691E02DE6
:101630001994A29FB001B39FC001A39F700D811D9B
:101640001124911DB29F700D811D1124911D0895CB
:10165000AA1BBB1B51E107C0AA1FBB1FA617B707D8
:1016600010F0A61BB70B881F991F5A95A9F78095F4
:101670009095BC01CD01089581E090E0F89400C000
:04168000F894FFCF0C
:101684000000000024049203BD036A04EE03CC03AB
:10169400E0030000000054052505F004C304E7043A
:1016A400D304C4046D696C6C6973003B0070776D7E
:1016B4002066696C6C20666163746F720073656E7A
:1016C400736F722064697374616E636520696E2040
:1016D4006D6D000D0A00656E61626C6520696E7641
:0616E400657274656400EC
:00000001FF
