:1000000019C1000047C1000045C1000043C1000004
:1000100041C100003FC100003DC100003BC10000E4
:1000200039C1000037C1000035C1000033C10000F4
:1000300031C100002FC100002DC100002BC1000004
:1000400029C1000027C1000025C1000023C1000014
:10005000EAC300001FC100001DC100003BC3000037
:1000600019C10000AAC300007FC3000013C1000033
:1000700011C100000FC100000DC100000BC1000044
:1000800009C1000007C1000005C10000F7C300005E
:1000900001C10000FFC00000FDC000001AC4000044
:1000A000F9C00000F7C00000F5C00000F3C0000078
:1000B000F1C00000EFC00000EDC00000EBC0000088
:1000C000E9C00000E7C00000E5C00000E3C0000098
:1000D000E1C00000DFC00000DDC00000DBC00000A8
:1000E000D9C0000060076307520756075A079A07EE
:1000F00067076B077107750779077F07830787070E
:100100009A078D0791079507CF07D407D907E3070B
:10011000ED076608F707FF07070811081B08250801
:1001200034083E086608480852085C0800000A0BBC
:1001300002090C0D0E080703040100000000000076
:1001400000000000000000000000000000000000AF
:10015000000000000000000012111000000000006C
:10016000000000000000000000000000000000008F
:10017000000000002200250028002B002E00310086
:10018000340002010000050108010B0100002100FC
:10019000240027002A002D00300033000101000058
:1001A000040107010A0105050505070508080808F7
:1001B000020202020A0A08080404040401010101FF
:1001C00001010101030303030303030304070707FA
:1001D0000C0C0C0C0C0C0C0C02020202060606069F
:1001E000060606060B0B0B0B0B0B0B0B010210206C
:1001F000200808102040102040800201020108045D
:1002000002010102040810204080804020100804F0
:100210000201800402018040201008040201080449
:10022000020101020408102040800102040810208D
:100230004080290C11241FBECFEFD1E2DEBFCDBF1D
:1002400000E00CBF12E0A0E0B2E0EEE1FDE100E072
:100250000BBF02C007900D92A236B107D9F723E079
:10026000A2E6B2E001C01D92A03EB207E1F711E0A4
:10027000CAE1D1E000E006C021970109802FFE010C
:100280000E945E0EC931D10780E00807A9F75ED74A
:100290000C948D0EB5CE81E08093B402089581E078
:1002A0008093B9020895CF92DF92EF92FF920F935D
:1002B0001F93CF93DF936C017A018B01C0E0D0E0F4
:1002C000CE15DF0589F0D8016D918D01D601ED9134
:1002D000FC910190F081E02DC6011995892B11F454
:1002E0007E0102C02196ECCFC701DF91CF911F9113
:1002F0000F91FF90EF90DF90CF900895FC01538D08
:10030000448D252F30E0842F90E0821B930B5417EF
:1003100010F0CF96089501970895FC01918D828D7C
:10032000981761F0828DDF01A80FB11D5D968C9149
:10033000928D9F5F9F73928F90E008958FEF9FEF54
:100340000895FC01918D828D981731F0828DE80F10
:10035000F11D858D90E008958FEF9FEF0895FC01CA
:10036000918D228D892F90E0805C9F4F821B910997
:100370008F739927089580E393E0F1DF21E0892BC3
:1003800009F420E0822F0895FC01848DDF01A80F7D
:10039000B11DA35ABF4F2C91848D90E001968F73AD
:1003A0009927848FA689B7892C93A089B1898C91CC
:1003B00080648C93938D848D981306C00288F38992
:1003C000E02D80818F7D80830895EF92FF920F93BF
:1003D0001F93CF93DF93EC0181E0888F9B8D8C8DF1
:1003E000981305C0E889F989808185FD23C0F62E20
:1003F0000B8D10E00F5F1F4F0F731127E02E8C8DB8
:10040000E8120BC00FB607FCFACFE889F9898081A2
:1004100085FFF5CFCE01B8DFF2CF8B8DFE01E80F5F
:10042000F11DE35AFF4FF0820B8FEA89FB8980812F
:10043000806207C0EE89FF896083E889F98980813D
:100440008064808381E090E0DF91CF911F910F91D4
:10045000FF90EF900895CF93DF93EC01888D882370
:10046000C1F0EA89FB89808185FD05C0A889B98929
:100470008C9186FD0EC00FB607FCF5CF808185FFFD
:10048000F2CFA889B9898C9185FFEDCFCE017CDFB1
:10049000E8CFDF91CF91089580E090E0892B19F0AB
:1004A0006ADF811125C080E090E0892B41F080E077
:1004B00090E0892B21F00E94000081111CC080E097
:1004C00090E0892B41F080E090E0892B21F00E94A0
:1004D0000000811113C080E090E0892BA1F080E042
:1004E00090E0892B81F00E94000081110AC00895DC
:1004F0000E940000D8CF0E940000E1CF0E940000BF
:10050000EACF0C94000008950895E091C402809110
:10051000C302E81730F4F0E0EB53FD4F808190E028
:1005200008958FEF9FEF08959091C4028091C302C8
:10053000981750F4E92FF0E0EB53FD4F208130E0A5
:100540009F5F9093C40202C02FEF3FEFC90108954F
:100550008091C30290E02091C402821B910908950A
:10056000089580E090E0089585ED8093BC0080912F
:10057000BC0084FDFCCF10920B03089540918402CF
:10058000262F30E0240F311D21323105DCF420917B
:100590000B032430C9F4FC0180E090E0861758F486
:1005A000309184022191DC01AE59BD4FA30FB11DE2
:1005B0002C930196F3CF80918402680F609384029C
:1005C00080E0089581E0089582E00895CF92DF925F
:1005D000EF92FF920F931F93CF93DF937C01262F0F
:1005E000972F8A0180910C03882391F0C62FD72F73
:1005F0006E01C40ED51ECC15DD0569F06991D701D9
:10060000ED91FC910190F081E02DC7011995F3CF98
:10061000642F822FB3DFC801DF91CF911F910F911B
:10062000FF90EF90DF90CF900895CF93DF931F92CC
:10063000CDB7DEB7698320910C032223D1F020913E
:100640002F03203240F021E030E0FC01338322838D
:1006500080E090E014C080910D03E82FF0E0E25FAD
:10066000FC4F998190838F5F80930D0380932F03BC
:1006700004C061E0CE01019681DF81E090E00F903F
:10068000DF91CF9108950E94890E3FB7F894809131
:10069000BF029091C002A091C102B091C20226B5E2
:1006A000A89B05C02F3F19F00196A11DB11D3FBFAA
:1006B000BA2FA92F982F8827820F911DA11DB11D38
:1006C000BC01CD0142E0660F771F881F991F4A9534
:1006D000D1F708951F920F920FB60F9211242F9306
:1006E0003F938F939F93AF93BF938091BB02909161
:1006F000BC02A091BD02B091BE023091BA0223E0CB
:10070000230F2D3720F40196A11DB11D05C026E849
:10071000230F0296A11DB11D2093BA028093BB0244
:100720009093BC02A093BD02B093BE028091BF0221
:100730009091C002A091C102B091C2020196A11D88
:10074000B11D8093BF029093C002A093C102B093E9
:10075000C202BF91AF919F918F913F912F910F90C6
:100760000FBE0F901F9018951F920F920FB60F9209
:1007700011240BB60F922F933F934F935F936F9378
:100780007F938F939F93AF93BF93EF93FF9380E3F8
:1007900093E0FADDFF91EF91BF91AF919F918F911F
:1007A0007F916F915F914F913F912F910F900BBE71
:1007B0000F900FBE0F901F9018951F920F920FB6BB
:1007C0000F9211240BB60F922F938F939F93EF9359
:1007D000FF93E0914003F09141038081E091460353
:1007E000F091470382FD12C09081809149038F5F91
:1007F0008F7320914A03821751F0E0914903F0E092
:10080000E05DFC4F958F8093490301C08081FF918B
:10081000EF919F918F912F910F900BBE0F900FBE74
:100820000F901F9018951F920F920FB60F921124E0
:100830000BB60F922F933F934F935F936F937F93DA
:100840008F939F93AF93BF93EF93FF93E091AB028E
:10085000F091AC021995FF91EF91BF91AF919F91EB
:100860008F917F916F915F914F913F912F910F9059
:100870000BBE0F900FBE0F901F9018951F920F92F6
:100880000FB60F9211240BB60F922F933F934F93F5
:100890005F936F937F938F939F93AF93BF93EF93E8
:1008A000FF93E091A902F091AA021995FF91EF91AF
:1008B000BF91AF919F918F917F916F915F914F9178
:1008C0003F912F910F900BBE0F900FBE0F901F9076
:1008D00018951F920F920FB60F9211240BB60F921C
:1008E0002F933F934F935F936F937F938F939F9338
:1008F000AF93BF93EF93FF938091B900887F8036C9
:1009000009F49CC068F5883209F45BC090F480312A
:1009100009F454C038F4882309F4F6C0883009F487
:100920004DC0F5C0883109F44CC0803209F45DC077
:10093000EEC0803409F468C048F4803309F455C02F
:10094000883309F0E4C080930903D8C0803509F4E6
:100950004FC0883509F45DC0883409F0D8C0D6C0CE
:10096000883909F4C7C0A8F4883709F467C038F497
:10097000883609F463C0803709F460C0C8C088387D
:1009800009F4B8C0803909F45FC0803809F0BFC0ED
:100990005BC0803B09F486C038F4803A09F466C035
:1009A000883A09F47FC0B3C0803C09F4A7C0883CF2
:1009B00009F4A4C0883B09F48AC0A9C08091E6026A
:1009C00010C09091080380910703981770F5E0918B
:1009D000080381E08E0F80930803F0E0E951FD4F9A
:1009E00080818093BB0085EC86C0809309038EC014
:1009F000E091080381E08E0F809308038091BB0093
:100A0000F0E0E951FD4F8083909108038091070346
:100A10006EC0E091080381E08E0F809308038091FF
:100A2000BB00F0E0E951FD4F808380910A03811102
:100A30006DC081E08093E50284EA61C083E0809329
:100A40000B031092A802CFCF8091A802803208F049
:100A500051C0E091A80281E08E0F8093A80280919E
:100A6000BB00F0E0E857FD4F8083BDCF85EC80935D
:100A7000BC0010920B038091A802803230F4E09108
:100A8000A802F0E0E857FD4F10826091A80270E0E4
:100A9000E0918602F091870288E892E01995109221
:100AA000A80235C084E080930B0310928502109257
:100AB0008402E0918202F091830219958091840270
:100AC000811105C081E08093840210926202E0915E
:100AD000850281E08E0F80938502F0E0EE59FD4F94
:100AE00080818093BB009091850280918402981749
:100AF00008F479CF85E88093BC0009C085EC809329
:100B0000BC0010920B0303C0109209032DDDFF916E
:100B1000EF91BF91AF919F918F917F916F915F9175
:100B20004F913F912F910F900BBE0F900FBE0F90E2
:100B30001F90189590E0FC01E451FE4F2491FC01B8
:100B4000EA55FE4F8491882399F090E0880F991F11
:100B5000FC01E457FE4FA591B491FC01EE58FE4F05
:100B6000859194918FB7F894EC91E22BEC938FBF21
:100B70000895009761F0FC0101900020E9F731979A
:100B8000AF01481B590BBC0180E393E08CCB80E0A4
:100B900090E008958F929F92AF92BF920F931F9310
:100BA000CF93DF93CDB7DEB7A1970FB6F894DEBF32
:100BB0000FBECDBF19A2423008F44AE08E010F5D8E
:100BC0001F4F842E912CA12CB12CA50194010E94C1
:100BD0003C0EE62FB901CA0101501109EA3014F4A4
:100BE000E05D01C0E95CD801EC93232B242B252B7D
:100BF00061F7C801BEDFA1960FB6F894DEBF0FBE45
:100C0000CDBFDF91CF911F910F91BF90AF909F907B
:100C10008F90089520912F0390912E03213208F098
:100C20004AC080910B038111FCCF32E030930B035B
:100C300031E030930A033FEF309309031092080329
:100C400020930703AEE0B3E047EE52E0FA013E2FF7
:100C5000341B321718F43D913193F9CF1092E6020C
:100C60002091E602990F922B9093E6029091E50273
:100C7000913061F41092E5029091E6029093BB00EE
:100C80009091BC0093FDF8CF95EC01C095EE909348
:100C9000BC0090910B039230E1F3909109039F3FC8
:100CA00079F080910903803241F08091090380330B
:100CB00031F084E005C081E003C082E001C083E040
:100CC00010920D0310922F0310920C03089590912F
:100CD0000B039111FCCF91E090930B0390930A03C7
:100CE0002FEF2093090310920803260F2093070388
:100CF0009093E6029091E602880F892B8093E6029A
:100D00008091E502813061F41092E5028091E60263
:100D10008093BB008091BC0083FDF8CF85EC01C0BF
:100D200085EE8093BC0080910B038130E1F38091CC
:100D30000803861710F460910803A7EEB2E025ECD3
:100D400032E0F9018E2F821B861718F48D91819362
:100D5000F9CF862F0895682F8DEC93E066CC0F9322
:100D60001F93CF93DF938C01C9EDD3E0898191E08C
:100D700090930C0380932E0310920D0310922F0377
:100D8000812F90E0E8DFC8019927E5DF43DF888302
:100D900061E089819CDF1092C4028093C3028DECD4
:100DA00093E0C2DBC82F36DF8C2FDF91CF911F91EC
:100DB0000F910895EF92FF920F931F93CF93DF93BC
:100DC0001F92CDB7DEB78C0189EDE82E83E0F82EB7
:100DD000F701818191E090930C0380932E03109290
:100DE0000D0310922F03812F90E06983B4DFC801B7
:100DF0009927B1DF69818DEC93E017DC0BDFF701F8
:100E000080830F90DF91CF911F910F91FF90EF9012
:100E10000895EF92FF920F931F93CF93DF937C017E
:100E20008B01C9EDD3E0898191E090930C0380930D
:100E30002E0310920D0310922F038F2D90E08BDF65
:100E4000C701992788DF812F90E085DFC8019927A6
:100E500082DFE0DE8883DF91CF911F910F91FF90B9
:100E6000EF900895362F90E0FC01E45DFE4F449131
:100E7000FC01E451FE4F2491FC01EA55FE4F949190
:100E8000992309F46AC0442309F454C050E0FA01DC
:100E90003197E231F10508F04DC08827EE58FF4F39
:100EA0008F4F0CC7809180008F7707C080918000A2
:100EB0008F7D03C080918000877F809380003AC03F
:100EC00084B58F7702C084B58F7D84BD33C0809197
:100ED000B0008F7703C08091B0008F7D8093B00009
:100EE00029C0809190008F7707C0809190008F7DFE
:100EF00003C080919000877F809390001BC08091F9
:100F0000A0008F7707C08091A0008F7D03C08091E3
:100F1000A000877F8093A0000DC0809120018F7773
:100F200007C0809120018F7D03C080912001877FC1
:100F300080932001E92FF0E0EE0FFF1FEE58FE4FE7
:100F4000A591B4918FB7F894EC91311103C020951D
:100F50002E2301C02E2B2C938FBF0895CF93DF93A8
:100F6000EC0184E0E7DD209711F460E004C0CF3F9E
:100F7000D10529F461E084E0DF91CF9173CFE0E304
:100F8000F1E0E4918E2F90E0FC013197E231F10520
:100F900008F09CC08827EC57FF4F8F4F8FC684B551
:100FA000806884BDC7BD97C084B5806284BDC8BD5C
:100FB00092C080918000806880938000D0938900E7
:100FC000C093880088C080918000806280938000F8
:100FD000D0938B00C0938A007EC08091800088608F
:100FE00080938000D0938D00C0938C0074C080915A
:100FF000B00080688093B000C093B3006CC0809153
:10100000B00080628093B000C093B40064C080914F
:101010009000806880939000D0939900C0939800CE
:101020005AC080919000806280939000D0939B0082
:10103000C0939A0050C08091900088608093900087
:10104000D0939D00C0939C0046C08091A000806812
:101050008093A0008091A0008F7B8093A000D0930C
:10106000A900C093A80037C08091A000806280933F
:10107000A000D093AB00C093AA002DC08091A00027
:1010800088608093A000D093AD00C093AC0023C0D3
:1010900080912001806880932001D0932901C09322
:1010A000280119C080912001806280932001D09393
:1010B0002B01C0932A010FC080912001886080938A
:1010C0002001D0932D01C0932C0105C0C038D1055B
:1010D0000CF050CF4ACFDF91CF9108958F929F921D
:1010E000AF92BF92CF92DF92EF92FF926B017C01A1
:1010F000CCDA4B015C01C114D104E104F104E9F044
:10110000C4DADC01CB0188199909AA09BB09883E18
:101110009340A105B10578F321E0C21AD108E10896
:10112000F10888EE880E83E0981EA11CB11CC11442
:10113000D104E104F10421F7DECFFF90EF90DF90BE
:10114000CF90BF90AF909F908F900895789484B582
:10115000826084BD84B5816084BD85B5826085BDB3
:1011600085B5816085BD80916E00816080936E0041
:101170001092810080918100826080938100809133
:1011800081008160809381008091800081608093E4
:1011900080008091B10084608093B1008091B000A4
:1011A00081608093B0008091910082608093910073
:1011B0008091910081608093910080919000816086
:1011C000809390008091A10082608093A100809123
:1011D000A10081608093A1008091A0008160809334
:1011E000A0008091210182608093210180912101E2
:1011F0008160809321018091200181608093200192
:1012000080917A00846080937A0080917A00826075
:1012100080937A0080917A00816080937A00809137
:101220007A00806880937A001092C100E0914003B8
:10123000F0914103D2E0D083E0913C03F0913D0373
:101240001082E0913E03F0913F0380E18083109291
:101250004803E0914403F091450386E08083E091E8
:101260004203F0914303808180618083E0914203D7
:10127000F0914303808188608083E0914203F09184
:101280004303808180688083E0914203F0914303AF
:1012900080818F7D80831092C4021092C3021092CD
:1012A0000D0310922F0310920B03C1E0C0930A03A9
:1012B0001092E50261E084E1D5DD61E085E1D2DDF7
:1012C0008091B9008E7F8093B9008091B9008D7FA5
:1012D0008093B90088E48093B80085E48093BC00D3
:1012E00084E290E03CDD8093DC0386E190E037DD32
:1012F000813009F07FC08093DB0361E087E092E0FA
:1013000059DD61E088E092E055DD60E086E990E03B
:1013100051DD6DEF87E990E04DDD60E083EE90E018
:1013200049DD64E084EE90E045DD62E085EE90E02A
:1013300041DD61E086EE90E03DDD63E087EE90E028
:1013400039DD62E085EF90E035DD65E089ED90E024
:1013500031DD6EEC8BED90E02DDD63E08CED90E007
:1013600029DD68EF8DED90E025DD60E08FE990E00C
:1013700021DD6CE383EA90E01DDD60E087EB90E027
:1013800019DD6CE38BEB90E015DD69E082EB90E01A
:1013900011DD69E08AEC90E00DDD61E088E991E023
:1013A00009DD67E180EB91E005DD60E08DEA91E029
:1013B00001DD65E08FEF90E0FDDC65E080E091E02D
:1013C000F9DC65E089E991E0F5DC6BE186EA91E022
:1013D000F1DC6EE38CEA91E0EDDC6FE187EA91E00D
:1013E000E9DC60E080E390E0E5DC60E086E190E04D
:1013F000E1DC43C08091DA03C0930C0380932E0399
:1014000010920D0310922F0380E090E0A4DC86E997
:1014100090E0A1DCFFDB8093D90362E08091DA03E6
:1014200056DC1092C4028093C3028DEC93E07CD80A
:10143000F82E8DEC93E078D820E030E03F2D790154
:10144000E82AF92AE7DB84E5E816F10421F483E0D1
:101450008093DB0309C09FE7E916F10419F4D093E8
:10146000DB0302C0C093DB038091DB039091DC03BC
:10147000899F802D11248093DC0360E38AE091E052
:1014800099DC66E48FE390E095DC6FEF81E390E018
:1014900091DC63E670E080E490E0BBDC61E08EE22A
:1014A00090E088DC69E08BE190E084DC61E38EE32E
:1014B00090E080DC64E284E190E07CDC61E38CE13C
:1014C00090E078DC60E083EA92E074DC81E0809375
:1014D000DB036DEF70E086E990E09BDC8091DC033C
:1014E0006091DB03AAD3682F84E290E063DC609113
:1014F000DB0370E084E190E0ACD381E290E05ADC61
:101500008DE290E02CDC8E7F61E09091DB039130E6
:1015100009F060E0682B8DE290E04CDC62E370E063
:1015200080E090E0DBDD8BE105DB8AE103DB84E03A
:1015300001DB60E08BE196DC61E08AE193DC61E055
:1015400084E090DC80E1809381001092800093E041
:101550009093B20222E13AE73093B1022093B002B5
:10156000309387002093860093E1909381008093CD
:1015700091001092900081E08093AF0220EC3AED50
:101580003093AE022093AD023093970020939600E3
:1015900091E1909391002BE431E03093AC022093E1
:1015A000AB0280936F002FE431E03093AA022093C6
:1015B000A9028093710082ED90E0D0DC84E292E099
:1015C000D8DA8BE292E0D5DA8DE292E0D2DA8BE2E1
:1015D00092E0CFDA8DE392E0CCDA83E592E0C9DAEB
:1015E00066E272E080E090E079DD89EC882E88EC9C
:1015F000982EA92C8EE3B82E8091B902882309F485
:10160000FBC01092B9022FB7F8946091BB027091A1
:10161000BC028091BD029091BE022FBF4AE0BADAAF
:101620008BE292E0A6DAC090B502D090B602E090CC
:10163000B702F090B802A7019601C701B601F9D22E
:10164000882319F086E592E018C026013701E89456
:1016500077F82FEF3FEF4FE75FE7C301B201E9D221
:1016600081110DC02FEF3FEF4FE75FE7C301B201DC
:1016700097D1181624F48AE592E07BDA72C02FEF36
:101680003FEF4FE75FE4C701B6016CD218161CF4B8
:101690008EE592E0F2CF2FEF3FEF4FE75FECC7010F
:1016A000B6017ED187FDF4CF20E030E0A901C7016B
:1016B000B60176D187FF0FC0E0913003F09131037E
:1016C0000190F081E02D6DE280E393E01995F7FA47
:1016D000F094F7F8F0942AE037ED43EA5BE3C701B2
:1016E000B601FAD02B013C015FD16B017C0188D19E
:1016F0009B01AC01C301B201EED02B013C014AE0D9
:10170000C701B60147DAE0913003F091310301904F
:10171000F081E02D6EE280E393E0199520E030E067
:1017200040E251E4C301B20121D26B017C013CD102
:101730002B01612C712C4AE0C301B2012BDAC301E9
:10174000B2015ED19B01AC01C701B601C4D020E05B
:1017500030E040E251E40AD227D180E090E04AE054
:1017600019DA8BE292E005DAD090DB0361E088E1E0
:1017700090E020DB2FB7F8948091BB029091BC02DF
:10178000A091BD02B091BE022FBF7C018FE490E01A
:10179000E6DA82FD1FC08091DD039091DE03892B84
:1017A000A9F32FB7F8948091BB029091BC02A0914D
:1017B000BD02B091BE022FBF8E199F092091DD039B
:1017C0003091DE032817390708F781E08093DF03A3
:1017D0002FEF09C082E690E0C2DAF82E61E085E1E1
:1017E00090E0E8DA2F2D30E0AD2DB0E06FD24AE086
:1017F000D1D983E592E0BDD98091B402882331F13B
:101800001092B4028091B302882371F084E690E0D4
:10181000A5DB1092B3028092B5029092B602A0921C
:10182000B702B092B80212C08EEB90E097DB81E075
:101830008093B3028FEB9EEBAEE3BFE38093B502E0
:101840009093B602A093B702B093B8020E944C02E4
:10185000D3CEE0E3F3E01382128288EE93E0A0E0BF
:10186000B0E084839583A683B78324E032E031839C
:10187000208325EC30E03587248724EC30E037875F
:10188000268720EC30E0318B208B21EC30E0338B4D
:10189000228B22EC30E0358B248B26EC30E0378B2A
:1018A000268B118E128E138E148EEDECF3E01382C4
:1018B000128284839583A683B78386E192E0918325
:1018C0008083E9EDF3E089E281831282138215823D
:1018D0001482168208955058BB27AA270ED008C13B
:1018E000F9D030F0FED020F031F49F3F11F41EF417
:1018F000EEC00EF4E095E7FBE4C0E92F0AD180F3D7
:10190000BA17620773078407950718F071F49EF5FC
:1019100022C10EF4E0950B2EBA2FA02D0B01B901B8
:1019200090010C01CA01A0011124FF27591B99F055
:10193000593F50F4503E68F11A16F040A22F232F61
:10194000342F4427585FF3CF469537952795A795B1
:10195000F0405395C9F77EF41F16BA0B620B730B58
:10196000840BBAF09150A1F0FF0FBB1F661F771FC9
:10197000881FC2F70EC0BA0F621F731F841F48F47E
:10198000879577956795B795F7959E3F08F0B3CF04
:101990009395880F08F09927EE0F979587950895EE
:1019A0006CD008F481E00895BCD088F09F5790F087
:1019B000B92F9927B751A0F0D1F0660F771F881F74
:1019C000991F1AF0BA95C9F712C0B13081F0C3D08F
:1019D000B1E00895C0C0672F782F8827B85F39F02D
:1019E000B93FCCF3869577956795B395D9F73EF4D3
:1019F00090958095709561957F4F8F4F9F4F08957B
:101A0000E89409C097FB3EF4909580957095619598
:101A10007F4F8F4F9F4F9923A9F0F92F96E9BB274E
:101A20009395F695879577956795B795F111F8CFCA
:101A3000FAF4BB0F11F460FF1BC06F5F7F4F8F4F35
:101A40009F4F16C0882311F096E911C0772321F02B
:101A50009EE8872F762F05C0662371F096E8862FC3
:101A600070E060E02AF09A95660F771F881FDAF71A
:101A7000880F9695879597F90895990F0008550F47
:101A8000AA0BE0E8FEEF16161706E807F907C0F004
:101A900012161306E407F50798F0621B730B840B0C
:101AA000950B39F40A2661F0232B242B252B21F4E6
:101AB00008950A2609F4A140A6958FEF811D811D86
:101AC000089597F99F6780E870E060E008959FEFC0
:101AD00080EC089500240A941616170618060906C5
:101AE000089500240A941216130614060506089594
:101AF000092E0394000C11F4882352F0BB0F40F41C
:101B0000BF2B11F460FF04C06F5F7F4F8F4F9F4F5B
:101B1000089557FD9058440F551F59F05F3F71F0DD
:101B20004795880F97FB991F61F09F3F79F0879544
:101B30000895121613061406551FF2CF4695F1DFCD
:101B400008C0161617061806991FF1CF869571055D
:101B5000610508940895E894BB2766277727CB0191
:101B600097F908958ADF08F48FEF08950BD0C0CF5E
:101B7000B1DF28F0B6DF18F0952309F0A2CFA7CF88
:101B80001124EACFC6DFA0F3959FD1F3950F50E063
:101B9000551F629FF001729FBB27F00DB11D639F1F
:101BA000AA27F00DB11DAA1F649F6627B00DA11DC5
:101BB000661F829F2227B00DA11D621F739FB00D6B
:101BC000A11D621F839FA00D611D221F749F3327DB
:101BD000A00D611D231F849F600D211D822F762F74
:101BE0006A2F11249F5750408AF0E1F088234AF071
:101BF000EE0FFF1FBB1F661F771F881F91505040BD
:101C0000A9F79E3F510570F05CCFA6CF5F3FECF384
:101C1000983EDCF3869577956795B795F795E795A8
:101C20009F5FC1F7FE2B880F911D9695879597F9B9
:101C3000089523DF880B990B0895991B79E004C060
:101C4000991F961708F0961B881F7A95C9F78095FB
:101C5000089597FB072E16F4009406D077FD08D060
:101C600044D007FC05D03EF4909581959F4F089590
:101C7000709561957F4F0895A1E21A2EAA1BBB1B98
:101C8000FD010DC0AA1FBB1FEE1FFF1FA217B30748
:101C9000E407F50720F0A21BB30BE40BF50B661F5E
:101CA000771F881F991F1A9469F760957095809522
:101CB00090959B01AC01BD01CF010895EE0FFF1F70
:101CC000881F8BBF0790F691E02D1994A29FB00159
:101CD000B39FC001A39F700D811D1124911DB29F60
:101CE000700D811D1124911D0895AA1BBB1B51E18C
:101CF00007C0AA1FBB1FA617B70710F0A61BB70B7C
:101D0000881F991F5A95A9F780959095BC01CD0120
:0E1D1000089581E090E0F89400C0F894FFCFB1
:101D1E0000000000E50153017E012B02AF018D0191
:101D2E00A101000000001503E602B1028402A80220
:101D3E00940285026D696C6C6973003B0070776D5F
:101D4E002066696C6C20666163746F720073656ED9
:101D5E00736F722064697374616E636520696E209F
:101D6E006D6D000D0A006E616E00696E66006F7615
:021D7E006600FD
:00000001FF
