:1000000019C1000047C1000045C1000043C1000004
:1000100041C100003FC100003DC100003BC10000E4
:1000200039C1000037C1000035C1000033C10000F4
:1000300031C100002FC100002DC100002BC1000004
:1000400029C1000027C1000025C1000023C1000014
:100050007BC300001FC100001DC100006DC7000070
:1000600019C100003BC3000010C3000013C1000011
:1000700011C100000FC100000DC100000BC1000044
:1000800009C1000007C1000005C1000088C30000CD
:1000900001C10000FFC00000FDC00000ABC30000B4
:1000A000F9C00000F7C00000F5C00000F3C0000078
:1000B000F1C00000EFC00000EDC00000EBC0000088
:1000C000E9C00000E7C00000E5C00000E3C0000098
:1000D000E1C00000DFC00000DDC00000DBC00000A8
:1000E000D9C000002D0A330A390A450A510AE00A2C
:1000F0005D0A660A6F0A7B0A870A930AA40AB00A95
:10010000E00ABC0AC80AD40A1607190708070C0730
:10011000100750071D07210727072B072F07350753
:1001200039073D075007430747074B0700000A0BF5
:1001300002090C0D0E080703040100000000000076
:1001400000000000000000000000000000000000AF
:10015000000000000000000012111000000000006C
:10016000000000000000000000000000000000008F
:10017000000000002200250028002B002E00310086
:10018000340002010000050108010B0100002100FC
:10019000240027002A002D00300033000101000058
:1001A000040107010A0105050505070508080808F7
:1001B000020202020A0A08080404040401010101FF
:1001C00001010101030303030303030304070707FA
:1001D0000C0C0C0C0C0C0C0C02020202060606069F
:1001E000060606060B0B0B0B0B0B0B0B010210206C
:1001F000200808102040102040800201020108045D
:1002000002010102040810204080804020100804F0
:100210000201800402018040201008040201080449
:10022000020101020408102040800102040810208D
:1002300040802D0C11241FBECFEFD1E2DEBFCDBF19
:1002400000E00CBF12E0A0E0B2E0E6E2FDE100E079
:100250000BBF02C007900D92A236B107D9F723E079
:10026000A2E6B2E001C01D92A03EB207E1F711E0A4
:10027000CAE1D1E000E006C021970109802FFE010C
:100280000E94620EC931D10780E00807A9F79ED607
:100290000C94910EB5CE81E08093B402089581E074
:1002A0008093B9020895CF92DF92EF92FF920F935D
:1002B0001F93CF93DF936C017A018B01C0E0D0E0F4
:1002C000CE15DF0589F0D8016D918D01D601ED9134
:1002D000FC910190F081E02DC6011995892B11F454
:1002E0007E0102C02196ECCFC701DF91CF911F9113
:1002F0000F91FF90EF90DF90CF900895FC01538D08
:10030000448D252F30E0842F90E0821B930B5417EF
:1003100010F0CF96089501970895FC01918D828D7C
:10032000981761F0828DDF01A80FB11D5D968C9149
:10033000928D9F5F9F73928F90E008958FEF9FEF54
:100340000895FC01918D828D981731F0828DE80F10
:10035000F11D858D90E008958FEF9FEF0895FC01CA
:10036000918D228D892F90E0805C9F4F821B910997
:100370008F73992708958BE293E0F1DF21E0892BB9
:1003800009F420E0822F0895FC01848DDF01A80F7D
:10039000B11DA35ABF4F2C91848D90E001968F73AD
:1003A0009927848FA689B7892C93A089B1898C91CC
:1003B00080648C93938D848D981306C00288F38992
:1003C000E02D80818F7D80830895EF92FF920F93BF
:1003D0001F93CF93DF93EC0181E0888F9B8D8C8DF1
:1003E000981305C0E889F989808185FD23C0F62E20
:1003F0000B8D10E00F5F1F4F0F731127E02E8C8DB8
:10040000E8120BC00FB607FCFACFE889F9898081A2
:1004100085FFF5CFCE01B8DFF2CF8B8DFE01E80F5F
:10042000F11DE35AFF4FF0820B8FEA89FB8980812F
:10043000806207C0EE89FF896083E889F98980813D
:100440008064808381E090E0DF91CF911F910F91D4
:10045000FF90EF900895CF93DF93EC01888D882370
:10046000C1F0EA89FB89808185FD05C0A889B98929
:100470008C9186FD0EC00FB607FCF5CF808185FFFD
:10048000F2CFA889B9898C9185FFEDCFCE017CDFB1
:10049000E8CFDF91CF91089580E090E0892B19F0AB
:1004A0006ADF811125C080E090E0892B41F080E077
:1004B00090E0892B21F00E94000081111CC080E097
:1004C00090E0892B41F080E090E0892B21F00E94A0
:1004D0000000811113C080E090E0892BA1F080E042
:1004E00090E0892B81F00E94000081110AC00895DC
:1004F0000E940000D8CF0E940000E1CF0E940000BF
:10050000EACF0C94000008950895E091BF02809115
:10051000BE02E81730F4F0E0E054FD4F808190E037
:1005200008958FEF9FEF08959091BF028091BE02D2
:10053000981750F4E92FF0E0E054FD4F208130E0AF
:100540009F5F9093BF0202C02FEF3FEFC901089554
:100550008091BE0290E02091BF02821B9109089514
:10056000089580E090E0089585ED8093BC0080912F
:10057000BC0084FDFCCF10920603089540918402D4
:10058000262F30E0240F311D21323105DCF420917B
:1005900006032430C9F4FC0180E090E0861758F48B
:1005A000309184022191DC01AE59BD4FA30FB11DE2
:1005B0002C930196F3CF80918402680F609384029C
:1005C00080E0089581E0089582E00895CF92DF925F
:1005D000EF92FF920F931F93CF93DF937C01262F0F
:1005E000972F8A0180910703882391F0C62FD72F78
:1005F0006E01C40ED51ECC15DD0569F06991D701D9
:10060000ED91FC910190F081E02DC7011995F3CF98
:10061000642F822FB3DFC801DF91CF911F910F911B
:10062000FF90EF90DF90CF900895CF93DF931F92CC
:10063000CDB7DEB76983209107032223D1F0209143
:100640002A03203240F021E030E0FC013383228392
:1006500080E090E014C080910803E82FF0E0E75FAD
:10066000FC4F998190838F5F8093080380932A03C6
:1006700004C061E0CE01019681DF81E090E00F903F
:10068000DF91CF9108950E948D0E1F920F920FB6A9
:100690000F9211240BB60F922F933F934F935F93BA
:1006A0006F937F938F939F93AF93BF93EF93FF933A
:1006B0008BE293E069DEFF91EF91BF91AF919F9143
:1006C0008F917F916F915F914F913F912F910F90FB
:1006D0000BBE0F900FBE0F901F9018951F920F9298
:1006E0000FB60F9211240BB60F922F938F939F93F7
:1006F000EF93FF93E0913B03F0913C038081E09105
:100700004103F091420382FD12C090818091440325
:100710008F5F8F7320914503821751F0E09144035E
:10072000F0E0E55DFC4F958F8093440301C080812C
:10073000FF91EF919F918F912F910F900BBE0F9092
:100740000FBE0F901F9018951F920F920FB60F9229
:1007500011240BB60F922F933F934F935F936F9398
:100760007F938F939F93AF93BF93EF93FF93E0910A
:10077000AB02F091AC021995FF91EF91BF91AF914F
:100780009F918F917F916F915F914F913F912F91A9
:100790000F900BBE0F900FBE0F901F9018951F92D9
:1007A0000F920FB60F9211240BB60F922F933F9317
:1007B0004F935F936F937F938F939F93AF93BF9369
:1007C000EF93FF93E091A902F091AA021995FF918E
:1007D000EF91BF91AF919F918F917F916F915F91B9
:1007E0004F913F912F910F900BBE0F900FBE0F9026
:1007F0001F9018951F920F920FB60F9211240BB6EF
:100800000F922F933F934F935F936F937F938F93A9
:100810009F93AF93BF93EF93FF938091B900887F2D
:10082000803609F49CC068F5883209F45BC090F406
:10083000803109F454C038F4882309F4F6C08830B4
:1008400009F44DC0F5C0883109F44CC0803209F478
:100850005DC0EEC0803409F468C048F4803309F408
:1008600055C0883309F0E4C080930403D8C08035B4
:1008700009F44FC0883509F45DC0883409F0D8C048
:10088000D6C0883909F4C7C0A8F4883709F467C00E
:1008900038F4883609F463C0803709F460C0C8C0F2
:1008A000883809F4B8C0803909F45FC0803809F08D
:1008B000BFC05BC0803B09F486C038F4803A09F4BD
:1008C00066C0883A09F47FC0B3C0803C09F4A7C071
:1008D000883C09F4A4C0883B09F48AC0A9C080916F
:1008E000E10210C09091030380910203981770F504
:1008F000E091030381E08E0F80930303F0E0EE515B
:10090000FD4F80818093BB0085EC86C080930403FB
:100910008EC0E091030381E08E0F809303038091EA
:10092000BB00F0E0EE51FD4F808390910303809176
:1009300002036EC0E091030381E08E0F80930303F6
:100940008091BB00F0E0EE51FD4F80838091050364
:1009500081116DC081E08093E00284EA61C083E090
:10096000809306031092A802CFCF8091A802803214
:1009700008F051C0E091A80281E08E0F8093A80298
:100980008091BB00F0E0E857FD4F8083BDCF85EC40
:100990008093BC00109206038091A802803230F44C
:1009A000E091A802F0E0E857FD4F10826091A802A4
:1009B00070E0E0918602F091870288E892E0199554
:1009C0001092A80235C084E080930603109285023D
:1009D00010928402E0918202F09183021995809135
:1009E0008402811105C081E080938402109262022A
:1009F000E091850281E08E0F80938502F0E0EE5950
:100A0000FD4F80818093BB0090918502809184028C
:100A1000981708F479CF85E88093BC0009C085EC6D
:100A20008093BC001092060303C0109204039CDD67
:100A3000FF91EF91BF91AF919F918F917F916F91B6
:100A40005F914F913F912F910F900BBE0F900FBE72
:100A50000F901F9018953FB7F8948091DC03909108
:100A6000DD03A091DE03B091DF0326B5A89B05C08E
:100A70002F3F19F00196A11DB11D3FBFBA2FA92F1D
:100A8000982F8827820F911DA11DB11DBC01CD019A
:100A900042E0660F771F881F991F4A95D1F7089586
:100AA00090E0FC01E451FE4F2491FC01EA55FE4F19
:100AB0008491882399F090E0880F991FFC01E457F6
:100AC000FE4FA591B491FC01EE58FE4F8591949193
:100AD0008FB7F894EC91E22BEC938FBF08950097B9
:100AE00061F0FC0101900020E9F73197AF01481B4C
:100AF000590BBC018BE293E0D6CB80E090E00895E7
:100B00008F929F92AF92BF920F931F93CF93DF93D9
:100B1000CDB7DEB7A1970FB6F894DEBF0FBECDBF3D
:100B200019A2423008F44AE08E010F5D1F4F842E57
:100B3000912CA12CB12CA50194010E94400EE62F0E
:100B4000B901CA0101501109EA3014F4E05D01C095
:100B5000E95CD801EC93232B242B252B61F7C801EA
:100B6000BEDFA1960FB6F894DEBF0FBECDBFDF91FA
:100B7000CF911F910F91BF90AF909F908F9008954C
:100B800020912A0390912903213208F04AC08091D4
:100B900006038111FCCF32E03093060331E030933D
:100BA00005033FEF309304031092030320930203E5
:100BB000A9E0B3E042EE52E0FA013E2F341B3217B7
:100BC00018F43D913193F9CF1092E1022091E102A6
:100BD000990F922B9093E1029091E002913061F491
:100BE0001092E0029091E1029093BB009091BC00C2
:100BF00093FDF8CF95EC01C095EE9093BC009091D9
:100C000006039230E1F3909104039F3F79F08091C5
:100C10000403803241F080910403803331F084E09A
:100C200005C081E003C082E001C083E010920803A8
:100C300010922A03109207030895909106039111D0
:100C4000FCCF91E090930603909305032FEF209340
:100C5000040310920303260F209302039093E102F2
:100C60009091E102880F892B8093E1028091E0024C
:100C7000813061F41092E0028091E1028093BB0028
:100C80008091BC0083FDF8CF85EC01C085EE809398
:100C9000BC00809106038130E1F380910303861745
:100CA00010F460910303A2EEB2E020EC32E0F9010F
:100CB0008E2F821B861718F48D918193F9CF862F82
:100CC0000895682F88EC93E0B0CC0F931F93CF93D7
:100CD000DF938C01C4EDD3E0898191E09093070309
:100CE000809329031092080310922A03812F90E029
:100CF000E8DFC8019927E5DF43DF888361E0898168
:100D00009CDF1092BF028093BE0288EC93E00CDC63
:100D1000C82F36DF8C2FDF91CF911F910F9108954F
:100D2000EF92FF920F931F93CF93DF931F92CDB754
:100D3000DEB78C0184EDE82E83E0F82EF701818187
:100D400091E0909307038093290310920803109277
:100D50002A03812F90E06983B4DFC8019927B1DFAE
:100D6000698188EC93E061DC0BDFF70180830F90F1
:100D7000DF91CF911F910F91FF90EF900895EF9227
:100D8000FF920F931F93CF93DF937C018B01C4EDF0
:100D9000D3E0898191E09093070380932903109217
:100DA000080310922A038F2D90E08BDFC70199274B
:100DB00088DF812F90E085DFC801992782DFE0DEA0
:100DC0008883DF91CF911F910F91FF90EF9008954D
:100DD000362F90E0FC01E45DFE4F4491FC01E451AC
:100DE000FE4F2491FC01EA55FE4F9491992309F49A
:100DF0006AC0442309F454C050E0FA013197E2314B
:100E0000F10508F04DC08827EC57FF4F8F4F5AC7A8
:100E1000809180008F7707C0809180008F7D03C014
:100E200080918000877F809380003AC084B58F775F
:100E300002C084B58F7D84BD33C08091B0008F77B0
:100E400003C08091B0008F7D8093B00029C0809155
:100E500090008F7707C0809190008F7D03C08091B4
:100E60009000877F809390001BC08091A0008F77B7
:100E700007C08091A0008F7D03C08091A000877F74
:100E80008093A0000DC0809120018F7707C08091D2
:100E900020018F7D03C080912001877F80932001F6
:100EA000E92FF0E0EE0FFF1FEE58FE4FA591B49131
:100EB0008FB7F894EC91311103C020952E2301C017
:100EC0002E2B2C938FBF08958F929F92AF92BF923B
:100ED000CF92DF92EF92FF926B017C01BCDD4B0160
:100EE0005C01C114D104E104F104E9F0B4DDDC01DA
:100EF000CB0188199909AA09BB09883E9340A1052D
:100F0000B10578F321E0C21AD108E108F10888EEB2
:100F1000880E83E0981EA11CB11CC114D104E10409
:100F2000F10421F7DECFFF90EF90DF90CF90BF90DC
:100F3000AF909F908F9008951F920F920FB60F92CF
:100F400011242F933F938F939F93AF93BF938091DF
:100F5000BA029091BB02A091BC02B091BD02309147
:100F6000DB0323E0230F2D3720F40196A11DB11DD3
:100F700005C026E8230F0296A11DB11D2093DB03B7
:100F80008093BA029093BB02A093BC02B093BD02BF
:100F90008091DC039091DD03A091DE03B091DF032B
:100FA0000196A11DB11D8093DC039093DD03A093F6
:100FB000DE03B093DF03BF91AF919F918F913F917B
:100FC0002F910F900FBE0F901F901895789484B5B5
:100FD000826084BD84B5816084BD85B5826085BD35
:100FE00085B5816085BD80916E00816080936E00C3
:100FF00010928100809181008260809381008091B5
:101000008100816080938100809180008160809365
:1010100080008091B10084608093B1008091B00025
:1010200081608093B00080919100826080939100F4
:101030008091910081608093910080919000816007
:10104000809390008091A10082608093A1008091A4
:10105000A10081608093A1008091A00081608093B5
:10106000A000809121018260809321018091210163
:101070008160809321018091200181608093200113
:1010800080917A00846080937A0080917A008260F7
:1010900080937A0080917A00816080937A008091B9
:1010A0007A00806880937A001092C100E0913B033F
:1010B000F0913C03D2E0D083E0913703F091380304
:1010C0001082E0913903F0913A0380E1808310921D
:1010D0004303E0913F03F091400386E08083E09179
:1010E0003D03F0913E03808180618083E0913D0368
:1010F000F0913E03808188608083E0913D03F09110
:101100003E03808180688083E0913D03F0913E033F
:1011100080818F7D80831092BF021092BE02109258
:10112000080310922A0310920603C1E0C09305033E
:101130001092E00261E084E14BDE61E085E148DE8F
:101140008091B9008E7F8093B9008091B9008D7F26
:101150008093B90088E48093B80085E48093BC0054
:1011600084E290E0B2DD8093D70386E190E0ADDDCC
:10117000813009F07FC08093D60361E087E092E080
:10118000CFDD61E088E092E0CBDD60E086E990E0D1
:10119000C7DD6DEF87E990E0C3DD60E083EE90E0AE
:1011A000BFDD64E084EE90E0BBDD62E085EE90E0C0
:1011B000B7DD61E086EE90E0B3DD63E087EE90E0BE
:1011C000AFDD62E085EF90E0ABDD65E089ED90E0BA
:1011D000A7DD6EEC8BED90E0A3DD63E08CED90E09D
:1011E0009FDD68EF8DED90E09BDD60E08FE990E0A2
:1011F00097DD6CE383EA90E093DD60E087EB90E0BD
:101200008FDD6CE38BEB90E08BDD69E082EB90E0AF
:1012100087DD69E08AEC90E083DD61E088E991E0B8
:101220007FDD67E180EB91E07BDD60E08DEA91E0BE
:1012300077DD65E08FEF90E073DD65E080E091E0C1
:101240006FDD65E089E991E06BDD6BE186EA91E0B5
:1012500067DD6EE38CEA91E063DD6FE187EA91E0A0
:101260005FDD60E080E390E05BDD60E086E190E0E0
:1012700057DD43C08091D503C093070380932903B2
:101280001092080310922A0380E090E01ADD86E9AC
:1012900090E017DD75DC8093D40362E08091D50384
:1012A000CCDC1092BF028093BE0288EC93E03CD964
:1012B000F82E88EC93E038D920E030E03F2D79011A
:1012C000E82AF92A5DDC84E5E816F10421F483E0DC
:1012D0008093D60309C08FE7E816F10419F4D09380
:1012E000D60302C0C093D6038091D6039091D70352
:1012F000899F802D11248093D70360E38AE091E0D9
:101300000FDD66E48FE390E00BDD6FEF81E390E0AB
:1013100007DD63E670E080E490E031DD61E08EE2BD
:1013200090E0FEDC69E08BE190E0FADC61E38EE3C3
:1013300090E0F6DC64E284E190E0F2DC61E38CE1D1
:1013400090E0EEDC60E083EA92E0EADC81E080930A
:10135000D6036DEF70E086E990E011DD8091D70350
:101360006091D6036ED4682F84E290E0D9DC60915E
:10137000D60370E084E190E070D481E290E0D0DCAC
:101380008DE290E0A2DC8E7F61E09091D6039130F7
:1013900009F060E0682B8DE290E0C2DC62E370E06F
:1013A00080E090E091DD8BE17BDB8AE179DB84E01A
:1013B00077DB60E08BE10CDD61E08AE109DD61E073
:1013C00084E006DD80E1809381001092800094E04B
:1013D0009093B20222E13AE73093B1022093B00237
:1013E000309387002093860094E19093810080934E
:1013F00091001092900081E08093AF0220EC3AEDD2
:101400003093AE022093AD02309397002093960064
:1014100091E1909391002BE431E03093AC02209362
:10142000AB0280936F002FE431E03093AA02209347
:10143000A9028093710084E033DBE0E3F1E0E49102
:101440008E2F90E0FC013197E231F10508F0B8C031
:101450008827EE58FF4F8F4F35C484B5806884BD10
:101460008AEF87BDB0C084B5806284BD8AEF88BD35
:10147000AAC0809180008068809380008AEF90E00D
:1014800090938900809388009EC080918000806244
:10149000809380008AEF90E090938B0080938A0085
:1014A00092C0809180008860809380008AEF90E0F5
:1014B00090938D0080938C0086C08091B0008068EE
:1014C0008093B0008AEF8093B3007DC08091B0001C
:1014D00080628093B0008AEF8093B40074C08091E2
:1014E00090008068809390008AEF90E0909399003C
:1014F0008093980068C080919000806280939000F3
:101500008AEF90E090939B0080939A005CC080915A
:1015100090008860809390008AEF90E090939D0007
:1015200080939C0050C08091A00080688093A000B0
:101530008091A0008F7B8093A0008AEF90E0909331
:10154000A9008093A8003FC08091A0008062809392
:10155000A0008AEF90E09093AB008093AA0033C084
:101560008091A00088608093A0008AEF90E0909323
:10157000AD008093AC0027C08091200180688093EB
:1015800020018AEF90E090932901809328011BC0ED
:10159000809120018062809320018AEF90E09093F7
:1015A0002B0180932A010FC08091200188608093D5
:1015B00020018AEF90E090932D0180932C0103C0CD
:1015C00061E084E005DC84E292E089DA8BE292E07B
:1015D00086DA8DE292E083DA8BE292E080DA8DE3C4
:1015E00092E07DDA83E592E07ADA6AEA75E080E0FB
:1015F00090E06ADC812C912C80E8A82E8FE3B82E35
:101600008091B902882309F4FBC01092B9022FB768
:10161000F8946091BA027091BB028091BC029091E3
:10162000BD022FBF4AE06CDA8BE292E058DAC0903C
:10163000B502D090B602E090B702F090B802A701D0
:101640009601C701B601F9D2882319F086E592E028
:1016500018C026013701E89477F82FEF3FEF4FE7E6
:101660005FE7C301B201E9D281110DC02FEF3FEF57
:101670004FE75FE7C301B20197D1181624F48AE55A
:1016800092E02DDA72C02FEF3FEF4FE75FE4C70122
:10169000B6016CD218161CF48EE592E0F2CF2FEF53
:1016A0003FEF4FE75FECC701B6017ED187FDF4CF76
:1016B00020E030E0A901C701B60176D187FF0FC055
:1016C000E0912B03F0912C030190F081E02D6DE26D
:1016D0008BE293E01995F7FAF094F7F8F0942AE08A
:1016E00037ED43EA5BE3C701B601FAD02B013C01B9
:1016F0005FD16B017C0188D19B01AC01C301B201B8
:10170000EED02B013C014AE0C701B601F9D9E091C6
:101710002B03F0912C030190F081E02D6EE28BE21F
:1017200093E0199520E030E040E251E4C301B201BA
:1017300021D22B013C013CD16B01E12CF12C4AE080
:10174000C701B601DDD9C701B6015ED19B01AC016D
:10175000C301B201C4D020E030E040E251E40AD23B
:1017600027D180E090E04AE0CBD98BE292E0B7D974
:10177000C091D60361E088E190E0D2DA2FB7F89407
:101780008091BA029091BB02A091BC02B091BD02BF
:101790002FBF7C018FE490E098DA82FD1FC080911A
:1017A000D8039091D903892BA9F32FB7F89480918E
:1017B000BA029091BB02A091BC02B091BD022FBFB2
:1017C0008E199F092091D8033091D9032817390722
:1017D00008F781E08093DA032FEF09C082E690E0FA
:1017E00074DAF82E61E085E190E09ADA2F2D30E08E
:1017F000AC2FB0E06FD24AE083D983E592E06FD995
:101800008091B402882331F11092B4028091B30226
:10181000882381F084E044D961E084E0D9DA109231
:10182000B3028092B5029092B602A092B702B09233
:10183000B80210C084E034D960E084E0C9DA81E005
:101840008093B3021092B5021092B6021092B702C2
:101850001092B8020E944C02D3CEEBE2F3E0138266
:10186000128288EE93E0A0E0B0E084839583A683A3
:10187000B78324E032E03183208325EC30E03587E4
:10188000248724EC30E03787268720EC30E0318B4A
:10189000208B21EC30E0338B228B22EC30E0358B37
:1018A000248B26EC30E0378B268B118E128E138E14
:1018B000148EE8ECF3E01382128284839583A6836E
:1018C000B78386E192E091838083E4EDF3E089E2DF
:1018D00081831282138215821482168208955058D1
:1018E000BB27AA270ED008C1F9D030F0FED020F0D7
:1018F00031F49F3F11F41EF4EEC00EF4E095E7FBC7
:10190000E4C0E92F0AD180F3BA176207730784078E
:10191000950718F071F49EF522C10EF4E0950B2E98
:10192000BA2FA02D0B01B90190010C01CA01A00131
:101930001124FF27591B99F0593F50F4503E68F18C
:101940001A16F040A22F232F342F4427585FF3CFCD
:10195000469537952795A795F0405395C9F77EF49E
:101960001F16BA0B620B730B840BBAF09150A1F0E7
:10197000FF0FBB1F661F771F881FC2F70EC0BA0F6D
:10198000621F731F841F48F4879577956795B795F5
:10199000F7959E3F08F0B3CF9395880F08F09927ED
:1019A000EE0F9795879508956CD008F481E008951F
:1019B000BCD088F09F5790F0B92F9927B751A0F06D
:1019C000D1F0660F771F881F991F1AF0BA95C9F7D3
:1019D00012C0B13081F0C3D0B1E00895C0C0672F0C
:1019E000782F8827B85F39F0B93FCCF38695779583
:1019F0006795B395D9F73EF490958095709561956C
:101A00007F4F8F4F9F4F0895E89409C097FB3EF496
:101A100090958095709561957F4F8F4F9F4F99233B
:101A2000A9F0F92F96E9BB279395F69587957795B9
:101A30006795B795F111F8CFFAF4BB0F11F460FF79
:101A40001BC06F5F7F4F8F4F9F4F16C0882311F0D1
:101A500096E911C0772321F09EE8872F762F05C0E5
:101A6000662371F096E8862F70E060E02AF09A9580
:101A7000660F771F881FDAF7880F9695879597F975
:101A80000895990F0008550FAA0BE0E8FEEF16160F
:101A90001706E807F907C0F012161306E407F50762
:101AA00098F0621B730B840B950B39F40A2661F0D6
:101AB000232B242B252B21F408950A2609F4A14079
:101AC000A6958FEF811D811D089597F99F6780E886
:101AD00070E060E008959FEF80EC089500240A9480
:101AE0001616170618060906089500240A941216F9
:101AF0001306140605060895092E0394000C11F42C
:101B0000882352F0BB0F40F4BF2B11F460FF04C0D8
:101B10006F5F7F4F8F4F9F4F089557FD9058440F31
:101B2000551F59F05F3F71F04795880F97FB991F3C
:101B300061F09F3F79F087950895121613061406F9
:101B4000551FF2CF4695F1DF08C016161706180686
:101B5000991FF1CF86957105610508940895E89461
:101B6000BB2766277727CB0197F908958ADF08F40A
:101B70008FEF08950BD0C0CFB1DF28F0B6DF18F09B
:101B8000952309F0A2CFA7CF1124EACFC6DFA0F397
:101B9000959FD1F3950F50E0551F629FF001729F02
:101BA000BB27F00DB11D639FAA27F00DB11DAA1F21
:101BB000649F6627B00DA11D661F829F2227B00D6E
:101BC000A11D621F739FB00DA11D621F839FA00DF9
:101BD000611D221F749F3327A00D611D231F849F49
:101BE000600D211D822F762F6A2F11249F575040A0
:101BF0008AF0E1F088234AF0EE0FFF1FBB1F661F3B
:101C0000771F881F91505040A9F79E3F510570F0F3
:101C10005CCFA6CF5F3FECF3983EDCF386957795DB
:101C20006795B795F795E7959F5FC1F7FE2B880FEE
:101C3000911D9695879597F9089523DF880B990B49
:101C40000895991B79E004C0991F961708F0961B18
:101C5000881F7A95C9F78095089597FB072E16F48B
:101C6000009406D077FD08D044D007FC05D03EF4A0
:101C7000909581959F4F0895709561957F4F089538
:101C8000A1E21A2EAA1BBB1BFD010DC0AA1FBB1F80
:101C9000EE1FFF1FA217B307E407F50720F0A21BF2
:101CA000B30BE40BF50B661F771F881F991F1A945F
:101CB00069F760957095809590959B01AC01BD0189
:101CC000CF010895EE0FFF1F881F8BBF0790F6917D
:101CD000E02D1994A29FB001B39FC001A39F700D86
:101CE000811D1124911DB29F700D811D1124911D24
:101CF0000895AA1BBB1B51E107C0AA1FBB1FA61753
:101D0000B70710F0A61BB70B881F991F5A95A9F7A4
:101D100080959095BC01CD01089581E090E0F89404
:061D200000C0F894FFCFA3
:101D260000000000E50153017E012B02AF018D0189
:101D3600A101000000001503E602B1028402A80218
:101D4600940285026D696C6C6973003B0070776D57
:101D56002066696C6C20666163746F720073656ED1
:101D6600736F722064697374616E636520696E2097
:101D76006D6D000D0A006E616E00696E66006F760D
:021D86006600F5
:00000001FF
