:1000000019C1000048C1000046C1000044C1000001
:1000100042C1000040C100003EC100003CC10000E0
:100020003AC1000038C1000036C1000034C10000F0
:1000300032C1000030C100002EC100002CC1000000
:100040002AC1000028C1000026C1000024C1000010
:100050003AC5000020C100001EC100008BC4000092
:100060001AC10000FAC40000CFC4000014C100008F
:1000700012C1000010C100000EC100000CC1000040
:100080000AC1000008C1000006C1000047C5000009
:1000900002C1000000C10000FEC000006AC50000EF
:1000A000FAC00000F8C00000F6C00000F4C0000074
:1000B000F2C00000F0C00000EEC00000ECC0000084
:1000C000EAC00000E8C00000E6C00000E4C0000094
:1000D000E2C00000E0C00000DEC00000DCC00000A4
:1000E000DAC000006C046F045E0462046604A604B7
:1000F000730477047D04810485048B048F049304C6
:10010000A60499049D04A1047F0884088908930823
:100110009D081609A708AF08B708C108CB08D5087D
:10012000E408EE081609F80802090C0900000A0B99
:1001300002090C0D0E080703040100000000000076
:1001400000000000000000000000000000000000AF
:10015000000000000000000012111000000000006C
:10016000000000000000000000000000000000008F
:10017000000000002200250028002B002E00310086
:10018000340002010000050108010B0100002100FC
:10019000240027002A002D00300033000101000058
:1001A000040107010A0105050505070508080808F7
:1001B000020202020A0A08080404040401010101FF
:1001C00001010101030303030303030304070707FA
:1001D0000C0C0C0C0C0C0C0C02020202060606069F
:1001E000060606060B0B0B0B0B0B0B0B010210206C
:1001F000200808102040102040800201020108045D
:1002000002010102040810204080804020100804F0
:100210000201800402018040201008040201080449
:10022000020101020408102040800102040810208D
:1002300040805C0D11241FBECFEFD1E2DEBFCDBFE9
:1002400000E00CBF12E0A0E0B2E0EAEDFFE100E068
:100250000BBF02C007900D92A435B107D9F723E078
:10026000A4E5B2E001C01D92A03FB207E1F711E0A2
:10027000CAE1D1E000E006C021970109802FFE010C
:100280000E94CB0FC931D10780E00807A9F70E946F
:100290006E090C94EB0FB4CE3FB7F8948091CF0267
:1002A0009091D002A091D102B091D20226B5A89B24
:1002B00005C02F3F19F00196A11DB11D3FBFBA2FF8
:1002C000A92F982F8827820F911DA11DB11DBC0158
:1002D000CD0142E0660F771F881F991F4A95D1F71D
:1002E000089581E08093A702089581E08093C90278
:1002F0000895CF92DF92EF92FF920F931F93CF93C7
:10030000DF936C017A018B01C0E0D0E0CE15DF05F0
:1003100089F0D8016D918D01D601ED91FC9101908C
:10032000F081E02DC6011995892B11F47E0102C0E0
:100330002196ECCFC701DF91CF911F910F91FF90D4
:10034000EF90DF90CF900895FC01538D448D252FC1
:1003500030E0842F90E0821B930B541710F0CF965F
:10036000089501970895FC01918D828D981761F091
:10037000828DDF01A80FB11D5D968C91928D9F5FDC
:100380009F73928F90E008958FEF9FEF0895FC0187
:10039000918D828D981731F0828DE80FF11D858D3A
:1003A00090E008958FEF9FEF0895FC01918D228DCD
:1003B000892F90E0805C9F4F821B91098F73992752
:1003C000089580E493E0F1DF21E0892B09F420E037
:1003D000822F0895FC01848DDF01A80FB11DA35A5F
:1003E000BF4F2C91848D90E001968F739927848F55
:1003F000A689B7892C93A089B1898C9180648C934C
:10040000938D848D981306C00288F389E02D808136
:100410008F7D80830895EF92FF920F931F93CF9368
:10042000DF93EC0181E0888F9B8D8C8D981305C044
:10043000E889F989808185FD23C0F62E0B8D10E0B7
:100440000F5F1F4F0F731127E02E8C8DE8120BC02A
:100450000FB607FCFACFE889F989808185FFF5CFCF
:10046000CE01B8DFF2CF8B8DFE01E80FF11DE35A0C
:10047000FF4FF0820B8FEA89FB898081806207C081
:10048000EE89FF896083E889F989808180648083AF
:1004900081E090E0DF91CF911F910F91FF90EF905D
:1004A0000895CF93DF93EC01888D8823C1F0EA890A
:1004B000FB89808185FD05C0A889B9898C9186FD5D
:1004C0000EC00FB607FCF5CF808185FFF2CFA8895B
:1004D000B9898C9185FFEDCFCE017CDFE8CFDF912C
:1004E000CF91089580E090E0892B19F06ADF8111A7
:1004F00025C080E090E0892B41F080E090E0892BDE
:1005000021F00E94000081111CC080E090E0892B46
:1005100041F080E090E0892B21F00E9400008111E1
:1005200013C080E090E0892BA1F080E090E0892B5F
:1005300081F00E94000081110AC008950E9400000D
:10054000D8CF0E940000E1CF0E940000EACF0C94B7
:10055000000008950895E091D4028091D302E81735
:1005600030F4F0E0EB52FD4F808190E008958FEF82
:100570009FEF08959091D4028091D302981750F480
:10058000E92FF0E0EB52FD4F208130E09F5F909328
:10059000D40202C02FEF3FEFC90108958091D3022A
:1005A00090E02091D402821B91090895089580E083
:1005B00090E0089585ED8093BC008091BC0084FD9F
:1005C000FCCF10921B03089540917602262F30E055
:1005D000240F311D21323105DCF420911B0324301E
:1005E000C9F4FC0180E090E0861758F4309176025F
:1005F0002191DC01AC5ABD4FA30FB11D2C93019684
:10060000F3CF80917602680F6093760280E00895C0
:1006100081E0089582E00895CF92DF92EF92FF92F9
:100620000F931F93CF93DF937C01262F972F8A017F
:1006300080911C03882391F0C62FD72F6E01C40E22
:10064000D51ECC15DD0569F06991D701ED91FC91BE
:100650000190F081E02DC7011995F3CF642F822F0F
:10066000B3DFC801DF91CF911F910F91FF90EF9001
:10067000DF90CF900895CF93DF931F92CDB7DEB771
:10068000698320911C032223D1F020913F03203263
:1006900040F021E030E0FC013383228380E090E0F1
:1006A00014C080911D03E82FF0E0E25EFC4F9981B9
:1006B00090838F5F80931D0380933F0304C061E0AC
:1006C000CE01019681DF81E090E00F90DF91CF9124
:1006D00008954F925F926F927F928F929F92AF9206
:1006E000BF92CF92DF92EF92FF926B017C019B0150
:1006F000AC010E94A80F882319F08CE292E01AC086
:1007000046015701E894B7F82FEF3FEF4FE75FE757
:10071000C501B4010E94A80F81110FC02FEF3FEF58
:100720004FE75FE7C501B4010E945A0E18162CF47A
:1007300080E392E083D57C018CC02FEF3FEF4FE741
:100740005FE4C701B6010E94410F18161CF484E350
:1007500092E0F0CF2FEF3FEF4FE75FECC701B6011C
:100760000E945A0E87FDF3CF20E030E0A901C701B7
:10077000B6010E945A0E87FF11C0E0914003F0912C
:1007800041030190F081E02D6DE280E493E0199542
:100790005C01F7FAF094F7F8F09402C0A12CB12CA8
:1007A0002AE037ED43EA5BE3C701B6010E94F60D8C
:1007B0002B013C010E94630E6B017C010E948F0E95
:1007C0009B01AC01C301B2010E94F50D2B013C015C
:1007D0004AE0C701B60143D57C01EA0CFB1CE0915D
:1007E0004003F09141030190F081E02D6EE280E43E
:1007F00093E01995E80EF91E20E030E040E251E464
:10080000C301B2010E94450F2B013C010E94630EFF
:100810004B01A12CB12C4AE0C501B40120D5E80E52
:10082000F91EC501B4010E948F0E9B01AC01C301EA
:10083000B2010E94F50D20E030E040E251E40E9458
:10084000450F0E94630E80E090E04AE008D5E80E74
:10085000F91E88E392E0F2D48E0D9F1DFF90EF9079
:10086000DF90CF90BF90AF909F908F907F906F90D0
:100870005F904F9008950E94E70F362F90E0FC01A3
:10088000E45DFE4F4491FC01E451FE4F2491FC01D4
:10089000EA55FE4F9491992309F46BC0442309F45F
:1008A00055C050E0FA013197E231F10508F04EC031
:1008B0008827EE58FF4F8F4F0C94CB0F809180000C
:1008C0008F7707C0809180008F7D03C0809180006A
:1008D000877F809380003AC084B58F7702C084B54B
:1008E0008F7D84BD33C08091B0008F7703C080912D
:1008F000B0008F7D8093B00029C0809190008F77E9
:1009000007C0809190008F7D03C080919000877F09
:10091000809390001BC08091A0008F7707C08091CA
:10092000A0008F7D03C08091A000877F8093A000EE
:100930000DC0809120018F7707C0809120018F7DAD
:1009400003C080912001877F80932001E92FF0E090
:10095000EE0FFF1FEE58FE4FA591B4918FB7F8949C
:10096000EC91311103C020952E2301C02E2B2C9326
:100970008FBF08951F920F920FB60F9211242F93DD
:100980003F938F939F93AF93BF938091CB029091AE
:10099000CC02A091CD02B091CE023091CA0223E0E8
:1009A000230F2D3720F40196A11DB11D05C026E8A7
:1009B000230F0296A11DB11D2093CA028093CB0282
:1009C0009093CC02A093CD02B093CE028091CF023F
:1009D0009091D002A091D102B091D2020196A11DB6
:1009E000B11D8093CF029093D002A093D102B09317
:1009F000D202BF91AF919F918F913F912F910F9014
:100A00000FBE0F901F9018951F920F920FB60F9266
:100A100011240BB60F922F933F934F935F936F93D5
:100A20007F938F939F93AF93BF93EF93FF9380E454
:100A300093E0D0DCFF91EF91BF91AF919F918F91A7
:100A40007F916F915F914F913F912F910F900BBECE
:100A50000F900FBE0F901F9018951F920F920FB618
:100A60000F9211240BB60F922F938F939F93EF93B6
:100A7000FF93E0915003F09151038081E091560380
:100A8000F091570382FD12C09081809159038F5FCE
:100A90008F7320915A03821751F0E0915903F0E0CF
:100AA000E05CFC4F958F8093590301C08081FF91DA
:100AB000EF919F918F912F910F900BBE0F900FBED2
:100AC0000F901F9018951F920F920FB60F9211243E
:100AD0000BB60F922F933F934F935F936F937F9338
:100AE0008F939F93AF93BF93EF93FF93E0919D02FA
:100AF000F0919E021995FF91EF91BF91AF919F9157
:100B00008F917F916F915F914F913F912F910F90B6
:100B10000BBE0F900FBE0F901F9018951F920F9253
:100B20000FB60F9211240BB60F922F933F934F9352
:100B30005F936F937F938F939F93AF93BF93EF9345
:100B4000FF93E0919B02F0919C021995FF91EF9128
:100B5000BF91AF919F918F917F916F915F914F91D5
:100B60003F912F910F900BBE0F900FBE0F901F90D3
:100B700018951F920F920FB60F9211240BB60F9279
:100B80002F933F934F935F936F937F938F939F9395
:100B9000AF93BF93EF93FF938091B900887F803626
:100BA00009F49CC068F5883209F45BC090F4803188
:100BB00009F454C038F4882309F4F6C0883009F4E5
:100BC0004DC0F5C0883109F44CC0803209F45DC0D5
:100BD000EEC0803409F468C048F4803309F455C08D
:100BE000883309F0E4C080931903D8C0803509F434
:100BF0004FC0883509F45DC0883409F0D8C0D6C02C
:100C0000883909F4C7C0A8F4883709F467C038F4F4
:100C1000883609F463C0803709F460C0C8C08838DA
:100C200009F4B8C0803909F45FC0803809F0BFC04A
:100C30005BC0803B09F486C038F4803A09F466C092
:100C4000883A09F47FC0B3C0803C09F4A7C0883C4F
:100C500009F4A4C0883B09F48AC0A9C08091F602B7
:100C600010C09091180380911703981770F5E091C8
:100C7000180381E08E0F80931803F0E0E950FD4FD8
:100C800080818093BB0085EC86C0809319038EC061
:100C9000E091180381E08E0F809318038091BB00D0
:100CA000F0E0E950FD4F8083909118038091170385
:100CB0006EC0E091180381E08E0F8093180380913D
:100CC000BB00F0E0E950FD4F808380911A03811151
:100CD0006DC081E08093F50284EA61C083E0809377
:100CE0001B0310929A02CFCF80919A02803208F0B3
:100CF00051C0E0919A0281E08E0F80939A02809118
:100D0000BB00F0E0E658FD4F8083BDCF85EC8093BB
:100D1000BC0010921B0380919A02803230F4E09163
:100D20009A02F0E0E658FD4F108260919A0270E05E
:100D3000E0917802F09179028AE792E01995109299
:100D40009A0235C084E080931B03109277021092C0
:100D50007602E0917402F091750219958091760205
:100D6000811105C081E08093760210925402E091D7
:100D7000770281E08E0F80937702F0E0EC5AFD4F0E
:100D800080818093BB0090917702809176029817C2
:100D900008F479CF85E88093BC0009C085EC809386
:100DA000BC0010921B0303C01092190303DCFF91D7
:100DB000EF91BF91AF919F918F917F916F915F91D3
:100DC0004F913F912F910F900BBE0F900FBE0F9040
:100DD0001F90189520913F0390913E03213208F017
:100DE0004AC080911B038111FCCF32E030931B037A
:100DF00031E030931A033FEF309319031092180338
:100E000020931703AEE1B3E047EF52E0FA013E2F23
:100E1000341B321718F43D913193F9CF1092F6023A
:100E20002091F602990F922B9093F6029091F50281
:100E3000913061F41092F5029091F6029093BB000C
:100E40009091BC0093FDF8CF95EC01C095EE909386
:100E5000BC0090911B039230E1F3909119039F3FE6
:100E600079F080911903803241F080911903803329
:100E700031F084E005C081E003C082E001C083E07E
:100E800010921D0310923F0310921C03089590913D
:100E90001B039111FCCF91E090931B0390931A03D5
:100EA0002FEF2093190310921803260F2093170396
:100EB0009093F6029091F602880F892B8093F602A8
:100EC0008091F502813061F41092F5028091F60272
:100ED0008093BB008091BC0083FDF8CF85EC01C0FE
:100EE00085EE8093BC0080911B038130E1F38091FB
:100EF0001803861710F460911803A7EFB2E025EDF0
:100F000032E0F9018E2F821B861718F48D918193A0
:100F1000F9CF862F0895682F8DED93E0ACCB0F931A
:100F20001F93CF93DF938C01C9EED3E0898191E0C9
:100F300090931C0380933E0310921D0310923F0375
:100F4000812F90E0E8DFC8019927E5DF43DF888340
:100F500061E089819CDF1092D4028093D3028DEDF1
:100F600093E008DBC82F36DF8C2FDF91CF911F91E4
:100F70000F910895EF92FF920F931F93CF93DF93FA
:100F80001F92CDB7DEB78C0189EEE82E83E0F82EF4
:100F9000F701818191E090931C0380933E031092AE
:100FA0001D0310923F03812F90E06983B4DFC801D5
:100FB0009927B1DF69818DED93E05DDB0BDFF701F0
:100FC00080830F90DF91CF911F910F91FF90EF9051
:100FD0000895EF92FF920F931F93CF93DF937C01BD
:100FE0008B01C9EED3E0898191E090931C0380933B
:100FF0003E0310921D0310923F038F2D90E08BDF74
:10100000C701992788DF812F90E085DFC8019927E4
:1010100082DFE0DE8883DF91CF911F910F91FF90F7
:10102000EF9008958093EB03E82FF0E0EE0FFF1FA1
:10103000E050FE4F6081718186E990E0CADF8091C7
:10104000EC036091EB0388D7682F84E290E092DF95
:101050006091EB0370E084E190E08AD781E290E058
:1010600089DF8DE290E05BDF8E7F61E09091EB03A2
:10107000913009F060E0682B8DE290E07BCF90E04A
:10108000FC01E451FE4F2491FC01EA55FE4F84918E
:10109000882399F090E0880F991FFC01E457FE4FD8
:1010A000A591B491FC01EE58FE4F859194918FB7B4
:1010B000F894EC91E22BEC938FBF0895CF93DF93DC
:1010C000EC0184E0DCDF209711F460E004C0CF3F46
:1010D000D10529F461E084E0DF91CF91CECBE0E34C
:1010E000F1E0E4918E2F90E0FC013197E231F105BF
:1010F00008F09CC08827EC57FF4F8F4F4CC784B532
:10110000806884BDC7BD97C084B5806284BDC8BDFA
:1011100092C080918000806880938000D093890085
:10112000C093880088C08091800080628093800096
:10113000D0938B00C0938A007EC08091800088602D
:1011400080938000D0938D00C0938C0074C08091F8
:10115000B00080688093B000C093B3006CC08091F1
:10116000B00080628093B000C093B40064C08091EE
:101170009000806880939000D0939900C09398006D
:101180005AC080919000806280939000D0939B0021
:10119000C0939A0050C08091900088608093900026
:1011A000D0939D00C0939C0046C08091A0008068B1
:1011B0008093A0008091A0008F7B8093A000D093AB
:1011C000A900C093A80037C08091A00080628093DE
:1011D000A000D093AB00C093AA002DC08091A000C6
:1011E00088608093A000D093AD00C093AC0023C072
:1011F00080912001806880932001D0932901C093C1
:10120000280119C080912001806280932001D09331
:101210002B01C0932A010FC0809120018860809328
:101220002001D0932D01C0932C0105C0C038D105F9
:101230000CF050CF4ACFDF91CF910895009761F025
:10124000FC0101900020E9F73197AF01481B590BD1
:10125000BC0180E493E04DC880E090E008958F9257
:101260009F92AF92BF920F931F93CF93DF93CDB70F
:10127000DEB7A1970FB6F894DEBF0FBECDBF19A29F
:10128000423008F44AE08E010F5D1F4F842E912CEE
:10129000A12CB12CA501940177D4E62FB901CA0184
:1012A00001501109EA3014F4E05D01C0E95CD80195
:1012B000EC93232B242B252B69F7C801BFDFA196C4
:1012C0000FB6F894DEBF0FBECDBFDF91CF911F9157
:1012D0000F91BF90AF909F908F900895CF93DF9321
:1012E00000D01F92CDB7DEB7789484B5826084BDFC
:1012F00084B5816084BD85B5826085BD85B581601A
:1013000085BD80916E00816080936E001092810097
:101310008091810082608093810080918100816052
:101320008093810080918000816080938000809113
:10133000B10084608093B1008091B000816080939F
:10134000B000809191008260809391008091910023
:1013500081608093910080919000816080939000E3
:101360008091A10082608093A1008091A1008160A2
:101370008093A1008091A00081608093A000809163
:1013800021018260809321018091210181608093FD
:1013900021018091200181608093200180917A0059
:1013A000846080937A0080917A00826080937A00D2
:1013B00080917A00816080937A0080917A008068C1
:1013C00080937A001092C100E0915003F091510394
:1013D00002E00083E0914C03F0914D031082E09114
:1013E0004E03F0914F0380E1808310925803E09107
:1013F0005403F091550386E08083E0915203F0910D
:101400005303808180618083E0915203F091530304
:10141000808188608083E0915203F0915303808142
:1014200080688083E0915203F091530380818F7D27
:1014300080831092D4021092D30210921D03109256
:101440003F0310921B0311E010931A031092F50250
:1014500061E084E112DA61E085E10FDA8091B900A0
:101460008E7F8093B9008091B9008D7F8093B90001
:1014700088E48093B80085E48093BC0084E290E027
:101480004EDD8093EC0386E190E049DD813009F088
:101490007FC08093EB0361E087E092E06BDD61E069
:1014A00088E092E067DD60E086E990E063DD6DEF63
:1014B00087E990E05FDD60E083EE90E05BDD64E073
:1014C00084EE90E057DD62E085EE90E053DD61E070
:1014D00086EE90E04FDD63E087EE90E04BDD62E06A
:1014E00085EF90E047DD65E089ED90E043DD6EEC4F
:1014F0008BED90E03FDD63E08CED90E03BDD68EF4D
:101500008DED90E037DD60E08FE990E033DD6CE356
:1015100083EA90E02FDD60E087EB90E02BDD6CE369
:101520008BEB90E027DD69E082EB90E023DD69E062
:101530008AEC90E01FDD61E088E991E01BDD67E166
:1015400080EB91E017DD60E08DEA91E013DD65E06E
:101550008FEF90E00FDD65E080E091E00BDD65E06E
:1015600089E991E007DD6BE186EA91E003DD6EE356
:101570008CEA91E0FFDC6FE187EA91E0FBDC60E060
:1015800080E390E0F7DC60E086E190E0F3DC45C0CA
:101590008091EA0310931C0380933E0310921D0375
:1015A00010923F0380E090E0B6DC86E990E0B3DC87
:1015B00011DC8093E90362E08091EA0368DC109219
:1015C000D4028093D3028DED93E00E94BA02F82EEC
:1015D0008DED93E00E94BA0220E030E03F2D7901CA
:1015E000E82AF92AF7DB24E5E216F10421F483E086
:1015F0008093EB0309C08FE7E816F10419F4009318
:10160000EB0302C01093EB038091EB039091EC038A
:10161000899F802D11248093EC0360E38AE091E0A0
:10162000A9DC66E48FE390E0A5DC6FEF81E390E056
:10163000A1DC63E670E080E490E0CBDC61E08EE268
:1016400090E098DC69E08BE190E094DC61E38EE36C
:1016500090E090DC64E284E190E08CDC61E38CE17A
:1016600090E088DC60E083EA92E084DC81E0DADC10
:101670000E944C014B015C0182E3C82ED12CE12C6D
:10168000F12C0E944C01DC01CB0188199909AA09AF
:10169000BB09883E9340A105B10558F0E1E0CE1AA0
:1016A000D108E108F108F8EE8F0EF3E09F1EA11CAF
:1016B000B11CC114D104E104F10419F78BE1DFDCA2
:1016C0008AE1DDDC84E0DBDC60E08BE1D6D861E040
:1016D0008AE1D3D861E084E0D0D880E180938100B2
:1016E0001092800094E09093A40222E13AE73093B4
:1016F000A3022093A202309387002093860094E1F6
:1017000090938100809391001092900082E08093EA
:10171000A10280E593EC9093A00280939F029093A6
:1017200097008093960082E18093910081E791E099
:1017300090939E0280939D0281E080936F0025E745
:1017400031E030939C0220939B02809371008AEFDA
:1017500090E0B4DC83E066DC8091C902882309F460
:10176000F1C0D090EB0361E088E190E003DC2FB79B
:10177000F8948091CB029091CC02A091CD02B091CF
:10178000CE022FBF7C018FE490E0C9DB82FD1FC039
:101790008091ED039091EE03892BA9F32FB7F89474
:1017A0008091CB029091CC02A091CD02B091CE025B
:1017B0002FBF8E199F092091ED033091EE0328175A
:1017C000390708F781E08093EF032FEF09C082E625
:1017D00090E0A5DBF82E61E085E190E0CBDB2F2DDA
:1017E00030E0AD2DB0E0F2D19AD29B01AC01609314
:1017F000C5027093C6028093C7029093C8024090BE
:10180000C1025090C2026090C3027090C402C30132
:10181000B201EBD16B017C016093BD027093BE02FB
:101820008093BF029093C0022091B5023091B6021E
:101830004091B7025091B802D8D14B015C01209180
:10184000B9023091BA024091BB025091BC02CED194
:1018500069837A838B839C83A5019401C501B401BC
:10186000C5D19B01AC0169817A818B819C81BED1FC
:101870004B015C01CB01D5018093B1029093B20280
:10188000A093B302B093B40220E030E04AE754E4FE
:10189000B401C501F6D2181674F020E030E04AE732
:1018A00054ECB401C50106D287FD0AC0582D492D5C
:1018B0003A2D2B2D09C050E040E03AE724E404C063
:1018C00050E040E03AE724EC852F942FA32FB22F6D
:1018D0008093AD029093AE02A093AF02B093B0029A
:1018E000652F742F832F922FE9D19B01AC01245FC8
:1018F000314041095109AFEFB0E03CD128E13CEF64
:101900004FEF5FEF1BD12093AC02822F90E0D6DB2C
:10191000C092B502D092B602E092B702F092B8023D
:10192000C401D5018093B9029093BA02A093BB027F
:10193000B093BC024092A8025092A9026092AA02FF
:101940007092AB028091A702882309F4B2C080E4B0
:1019500093E00E94D501892B09F4ABC080E493E0A9
:101960000E94D501892B09F4A4C080E493E00E9471
:10197000B3018093A6028B3219F08D3239F147C042
:10198000C090C102D090C202E090C302F090C402A5
:1019900020E030E04AEF53E4C701B6018BD181115A
:1019A0000DC080E090E0AAEFB3E48093C102909371
:1019B000C202A093C302B093C40247C020E030E04B
:1019C00040E85FE3C701B60111D137C0C090C10242
:1019D000D090C202E090C302F090C40220E030E058
:1019E000A901C701B60166D1811109C01092C102D7
:1019F0001092C2021092C3021092C40226C020E0CC
:101A000030E040E85FE3C701B601EFD016C0805375
:101A10008A30D8F48093A502282F30E0A6E9B0E000
:101A2000D5D029E030E040E050E088D0CA01B901CB
:101A300068537F4F8F4F9F4F74D16093C102709353
:101A4000C2028093C3029093C4028BE392E0F6DB60
:101A50006091C1027091C2028091C3029091C40250
:101A60000E94690381E492E0E9DB6091B102709128
:101A7000B2028091B3029091B4020E94690386E49D
:101A800092E0DCDB6091AC0270E080E090E04AE044
:101A9000E6DB88E392E0D2DB8FE492E0CFDB60917B
:101AA000C5027091C6028091C7029091C8020E943F
:101AB00069030E94720250CEE0E4F3E013821282C6
:101AC00088EE93E0A0E0B0E084839583A683B7839B
:101AD0002CE032E03183208325EC30E03587248709
:101AE00024EC30E03787268720EC30E0318B208BE8
:101AF00021EC30E0338B228B22EC30E0358B248BD1
:101B000026EC30E0378B268B118E128E138E148EBE
:101B1000EDEDF3E01382128284839583A683B7836D
:101B20008EE192E091838083E9EEF3E089E28183A4
:101B3000128213821582148216820895052E97FB55
:101B400016F400940FD057FD05D01ED007FC02D02C
:101B500046F408C050954095309521953F4F4F4F22
:101B60005F4F089590958095709561957F4F8F4F49
:101B70009F4F08952BD0A59F900DB49F900DA49FCB
:101B8000800D911D11240895A1E21A2EAA1BBB1BE2
:101B9000FD010DC0AA1FBB1FEE1FFF1FA217B30739
:101BA000E407F50720F0A21BB30BE40BF50B661F4F
:101BB000771F881F991F1A9469F760957095809513
:101BC00090959B01AC01BD01CF010895A29FB0018A
:101BD000B39FC001A39F700D811D1124911DB29F61
:101BE000700D811D1124911D08955058BB27AA27FF
:101BF0000ED00DC1FED030F003D120F031F49F3F64
:101C000011F41EF4F3C00EF4E095E7FBE9C0E92FF0
:101C10000FD180F3BA17620773078407950718F08E
:101C200071F49EF527C10EF4E0950B2EBA2FA02D6E
:101C30000B01B90190010C01CA01A0011124FF2779
:101C4000591B99F0593F50F4503E68F11A16F04074
:101C5000A22F232F342F4427585FF3CF4695379573
:101C60002795A795F0405395C9F77EF41F16BA0B38
:101C7000620B730B840BBAF09150A1F0FF0FBB1FE6
:101C8000661F771F881FC2F70EC0BA0F621F731F2F
:101C9000841F48F4879577956795B795F7959E3F8C
:101CA00008F0B3CF9395880F08F09927EE0F97951A
:101CB0008795089571D008F481E0089504D0689460
:101CC000B111D9C00895BCD088F09F5790F0B92FBA
:101CD0009927B751A0F0D1F0660F771F881F991F81
:101CE0001AF0BA95C9F712C0B13081F0C3D0B1E093
:101CF0000895C0C0672F782F8827B85F39F0B93FA3
:101D0000CCF3869577956795B395D9F73EF4909582
:101D10008095709561957F4F8F4F9F4F0895E89400
:101D200009C097FB3EF490958095709561957F4F23
:101D30008F4F9F4F9923A9F0F92F96E9BB279395D1
:101D4000F695879577956795B795F111F8CFFAF4E1
:101D5000BB0F11F460FF1BC06F5F7F4F8F4F9F4F12
:101D600016C0882311F096E911C0772321F09EE870
:101D7000872F762F05C0662371F096E8862F70E0D6
:101D800060E02AF09A95660F771F881FDAF7880FB0
:101D90009695879597F90895990F0008550FAA0B06
:101DA000E0E8FEEF16161706E807F907C0F012166E
:101DB0001306E407F50798F0621B730B840B950B71
:101DC00039F40A2661F0232B242B252B21F40895C6
:101DD0000A2609F4A140A6958FEF811D811D089563
:101DE00097F99F6780E870E060E008959FEF80ECCE
:101DF000089500240A941616170618060906089571
:101E000000240A9412161306140605060895092ED6
:101E10000394000C11F4882352F0BB0F40F4BF2B45
:101E200011F460FF04C06F5F7F4F8F4F9F4F089585
:101E300057FD9058440F551F59F05F3F71F047957B
:101E4000880F97FB991F61F09F3F79F08795089560
:101E5000121613061406551FF2CF4695F1DF08C07F
:101E6000161617061806991FF1CF8695710561059C
:101E700008940895E894BB2766277727CB0197F944
:101E800008958ADF08F48FEF08950BD0C0CFB1DF3B
:101E900028F0B6DF18F0952309F0A2CFA7CF1124C0
:101EA000EACFC6DFA0F3959FD1F3950F50E0551F01
:101EB000629FF001729FBB27F00DB11D639FAA279F
:101EC000F00DB11DAA1F649F6627B00DA11D661FEE
:101ED000829F2227B00DA11D621F739FB00DA11D0F
:101EE000621F839FA00D611D221F749F3327A00DC9
:101EF000611D231F849F600D211D822F762F6A2F65
:101F000011249F5750408AF0E1F088234AF0EE0FE9
:101F1000FF1FBB1F661F771F881F91505040A9F7F6
:101F20009E3F510570F05CCFA6CF5F3FECF3983E2B
:101F3000DCF3869577956795B795F795E7959F5F5D
:101F4000C1F7FE2B880F911D9695879597F90895F7
:101F500023DF880B990B0895991B79E004C0991F22
:101F6000961708F0961B881F7A95C9F780950895F3
:101F700097FB072E16F4009406D077FD08D013D0F7
:101F800007FC05D03EF4909581959F4F089570957C
:101F900061957F4F0895EE0FFF1F881F8BBF07903D
:101FA000F691E02D1994AA1BBB1B51E107C0AA1F93
:101FB000BB1FA617B70710F0A61BB70B881F991FEA
:101FC0005A95A9F780959095BC01CD01089581E0BF
:0A1FD00090E0F89400C0F894FFCFF1
:101FDA000000FD007F005400000000000B027901A0
:101FEA00A4015102D501B301C701000000003B035F
:101FFA000C03D702AA02CE02BA02AB026E616E00CD
:10200A00696E66006F7666000D0A00726B3A0909FE
:10201A0000756B3A0900756B5F6F75743A09007940
:04202A006B3A090004
:00000001FF
