:1000000019C1000047C1000045C1000043C1000004
:1000100041C100003FC100003DC100003BC10000E4
:1000200039C1000037C1000035C1000033C10000F4
:1000300031C100002FC100002DC100002BC1000004
:1000400029C1000027C1000025C1000023C1000014
:1000500021C100001FC100001DC100006BC30000D2
:1000600019C10000DAC30000AFC3000013C10000D3
:1000700011C100000FC100000DC100000BC1000044
:1000800009C1000007C1000005C1000003C1000054
:1000900001C10000FFC00000FDC00000F4C300006B
:1000A000F9C00000F7C00000F5C00000F3C0000078
:1000B000F1C00000EFC00000EDC00000EBC0000088
:1000C000E9C00000E7C00000E5C00000E3C0000098
:1000D000E1C00000DFC00000DDC00000DBC00000A8
:1000E000D9C00000AF07B207A107A507A907E90714
:1000F000B607BA07C007C407C807CE07D207D60796
:10010000E907DC07E007E4071E082308280832088F
:100110003C08B50846084E08560860086A08740886
:1001200083088D08B5089708A108AB0800000A0BE2
:1001300002090C0D0E080703040100000000000076
:1001400000000000000000000000000000000000AF
:10015000000000000000000012111000000000006C
:10016000000000000000000000000000000000008F
:10017000000000002200250028002B002E00310086
:10018000340002010000050108010B0100002100FC
:10019000240027002A002D00300033000101000058
:1001A000040107010A0105050505070508080808F7
:1001B000020202020A0A08080404040401010101FF
:1001C00001010101030303030303030304070707FA
:1001D0000C0C0C0C0C0C0C0C02020202060606069F
:1001E000060606060B0B0B0B0B0B0B0B010210206C
:1001F000200808102040102040800201020108045D
:1002000002010102040810204080804020100804F0
:100210000201800402018040201008040201080449
:10022000020101020408102040800102040810208D
:1002300040805A0B11241FBECFEFD1E2DEBFCDBFED
:1002400000E00CBF12E0A0E0B2E0ECE3FBE100E074
:100250000BBF02C007900D92AA32B107D9F723E075
:10026000AAE2B2E001C01D92AD39B207E1F711E098
:10027000CAE1D1E000E006C021970109802FFE010C
:100280000E947C0DC931D10780E00807A9F775D716
:100290000C949C0DB5CE3FB7F89480917802909164
:1002A0007902A0917A02B0917B0226B5A89B05C085
:1002B0002F3F19F00196A11DB11D3FBFBA2FA92FE5
:1002C000982F8827820F911DA11DB11DBC01CD0162
:1002D00042E0660F771F881F991F4A95D1F708954E
:1002E0008F929F92AF92BF92CF92DF92EF92FF9246
:1002F0006B017C01D0DF4B015C01C114D104E1042E
:10030000F104E9F0C8DFDC01CB0188199909AA09D9
:10031000BB09883E9340A105B10578F321E0C21ADC
:10032000D108E108F10888EE880E83E0981EA11C30
:10033000B11CC114D104E104F10421F7DECFFF9018
:10034000EF90DF90CF90BF90AF909F908F900895E7
:10035000CF92DF92EF92FF920F931F93CF93DF9391
:100360006C017A018B01C0E0D0E0CE15DF0589F089
:10037000D8016D918D01D601ED91FC910190F08134
:10038000E02DC6011995892B11F47E0102C021963A
:10039000ECCFC701DF91CF911F910F91FF90EF90AC
:1003A000DF90CF900895FC01538D448D252F30E0D0
:1003B000842F90E0821B930B541710F0CF96089572
:1003C00001970895FC01918D828D981761F0828DBF
:1003D000DF01A80FB11D5D968C91928D9F5F9F7379
:1003E000928F90E008958FEF9FEF0895FC01918D1B
:1003F000828D981731F0828DE80FF11D858D90E088
:1004000008958FEF9FEF0895FC01918D228D892F24
:1004100090E0805C9F4F821B91098F73992708950C
:100420008DEE92E0F1DF21E0892B09F420E0822FAC
:100430000895FC01848DDF01A80FB11DA35ABF4FA1
:100440002C91848D90E001968F739927848FA689D3
:10045000B7892C93A089B1898C9180648C93938DFA
:10046000848D981306C00288F389E02D80818F7DEA
:1004700080830895EF92FF920F931F93CF93DF93A2
:10048000EC0181E0888F9B8D8C8D981305C0E889E5
:10049000F989808185FD23C0F62E0B8D10E00F5F5A
:1004A0001F4F0F731127E02E8C8DE8120BC00FB673
:1004B00007FCFACFE889F989808185FFF5CFCE0165
:1004C000B8DFF2CF8B8DFE01E80FF11DE35AFF4F2D
:1004D000F0820B8FEA89FB898081806207C0EE89F8
:1004E000FF896083E889F98980818064808381E065
:1004F00090E0DF91CF911F910F91FF90EF900895C1
:10050000CF93DF93EC01888D8823C1F0EA89FB89C2
:10051000808185FD05C0A889B9898C9186FD0EC0B2
:100520000FB607FCF5CF808185FFF2CFA889B98986
:100530008C9185FFEDCFCE017CDFE8CFDF91CF91AD
:10054000089580E090E0892B19F06ADF811125C0C1
:1005500080E090E0892B41F080E090E0892B21F051
:100560000E94000081111CC080E090E0892B41F0C6
:1005700080E090E0892B21F00E940000811113C0DF
:1005800080E090E0892BA1F080E090E0892B81F061
:100590000E94000081110AC008950E940000D8CF77
:1005A0000E940000E1CF0E940000EACF0C940000FE
:1005B00008950895E091810280918002E81730F457
:1005C000F0E0EE57FD4F808190E008958FEF9FEFB0
:1005D00008959091810280918002981750F4E92F3C
:1005E000F0E0EE57FD4F208130E09F5F9093810255
:1005F00002C02FEF3FEFC90108958091800290E083
:1006000020918102821B91090895089580E090E075
:10061000089585ED8093BC008091BC0084FDFCCFE3
:100620001092C802089540914C02262F30E0240F0A
:10063000311D21323105DCF42091C8022430C9F487
:10064000FC0180E090E0861758F430914C02219133
:10065000DC01A65DBD4FA30FB11D2C930196F3CF16
:1006600080914C02680F60934C0280E0089581E015
:10067000089582E00895CF92DF92EF92FF920F9358
:100680001F93CF93DF937C01262F972F8A018091B0
:10069000C902882391F0C62FD72F6E01C40ED51E34
:1006A000CC15DD0569F06991D701ED91FC910190C0
:1006B000F081E02DC7011995F3CF642F822FB3DFAE
:1006C000C801DF91CF911F910F91FF90EF90DF90C4
:1006D000CF900895CF93DF931F92CDB7DEB7698394
:1006E0002091C9022223D1F02091EC02203240F067
:1006F00021E030E0FC013383228380E090E014C0ED
:100700008091CA02E82FF0E0E553FD4F9981908374
:100710008F5F8093CA028093EC0204C061E0CE0137
:10072000019681DF81E090E00F90DF91CF910895F5
:100730000E94980D1F920F920FB60F9211242F93C3
:100740003F938F939F93AF93BF9380917C0290913F
:100750007D02A0917E02B0917F023091770223E06A
:10076000230F2D3720F40196A11DB11D05C026E8E9
:10077000230F0296A11DB11D2093770280937C0266
:1007800090937D02A0937E02B0937F0280917802C5
:1007900090917902A0917A02B0917B020196A11DFD
:1007A000B11D8093780290937902A0937A02B0935E
:1007B0007B02BF91AF919F918F913F912F910F90AD
:1007C0000FBE0F901F9018951F920F920FB60F92A9
:1007D00011240BB60F922F933F934F935F936F9318
:1007E0007F938F939F93AF93BF93EF93FF938DEE80
:1007F00092E01FDEFF91EF91BF91AF919F918F919A
:100800007F916F915F914F913F912F910F900BBE10
:100810000F900FBE0F901F9018951F920F920FB65A
:100820000F9211240BB60F922F938F939F93EF93F8
:10083000FF93E091FD02F091FE028081E0910303BD
:10084000F091040382FD12C09081809106038F5FB6
:100850008F7320910703821751F0E0910603F0E0B7
:10086000E351FD4F958F8093060301C08081FF9176
:10087000EF919F918F912F910F900BBE0F900FBE14
:100880000F901F9018951F920F920FB60F92112480
:100890000BB60F922F933F934F935F936F937F937A
:1008A0008F939F93AF93BF93EF93FF938091B90082
:1008B000887F803609F49CC068F5883209F45BC0F3
:1008C00090F4803109F454C038F4882309F4F6C058
:1008D000883009F44DC0F5C0883109F44CC080322D
:1008E00009F45DC0EEC0803409F468C048F4803378
:1008F00009F455C0883309F0E4C08093C602D8C01B
:10090000803509F44FC0883509F45DC0883409F09A
:10091000D8C0D6C0883909F4C7C0A8F4883709F40C
:1009200067C038F4883609F463C0803709F460C0C2
:10093000C8C0883809F4B8C0803909F45FC080386D
:1009400009F0BFC05BC0803B09F486C038F4803A30
:1009500009F466C0883A09F47FC0B3C0803C09F44A
:10096000A7C0883C09F4A4C0883B09F48AC0A9C088
:100970008091A30210C09091C5028091C402981783
:1009800070F5E091C50281E08E0F8093C502F0E022
:10099000EC55FD4F80818093BB0085EC86C0809331
:1009A000C6028EC0E091C50281E08E0F8093C50221
:1009B0008091BB00F0E0EC55FD4F80839091C50223
:1009C0008091C4026EC0E091C50281E08E0F8093D9
:1009D000C5028091BB00F0E0EC55FD4F8083809113
:1009E000C70281116DC081E08093A20284EA61C0D8
:1009F00083E08093C80210927002CFCF8091700282
:100A0000803208F051C0E091700281E08E0F809337
:100A100070028091BB00F0E0E05BFD4F8083BDCFB2
:100A200085EC8093BC001092C802809170028032E5
:100A300030F4E0917002F0E0E05BFD4F10826091D5
:100A4000700270E0E0914E02F0914F0280E592E07A
:100A500019951092700235C084E08093C8021092FC
:100A60004D0210924C02E0914A02F0914B0219950E
:100A700080914C02811105C081E080934C0210925C
:100A80002A02E0914D0281E08E0F80934D02F0E04A
:100A9000E65DFD4F80818093BB0090914D02809177
:100AA0004C02981708F479CF85E88093BC0009C000
:100AB00085EC8093BC001092C80203C01092C6025D
:100AC000A8DDFF91EF91BF91AF919F918F917F91A1
:100AD0006F915F914F913F912F910F900BBE0F90AF
:100AE0000FBE0F901F9018952091EC029091EB0291
:100AF000213208F04AC08091C8028111FCCF32E057
:100B00003093C80231E03093C7023FEF3093C60202
:100B10001092C5022093C402ABECB2E044EA52E06A
:100B2000FA013E2F341B321718F43D913193F9CF5F
:100B30001092A3022091A302990F922B9093A302EB
:100B40009091A202913061F41092A2029091A302BE
:100B50009093BB009091BC0093FDF8CF95EC01C041
:100B600095EE9093BC009091C8029230E1F3909181
:100B7000C6029F3F79F08091C602803241F0809199
:100B8000C602803331F084E005C081E003C082E01A
:100B900001C083E01092CA021092EC021092C902C6
:100BA00008959091C8029111FCCF91E09093C802F2
:100BB0009093C7022FEF2093C6021092C502260F12
:100BC0002093C4029093A3029091A302880F892BD3
:100BD0008093A3028091A202813061F41092A2025C
:100BE0008091A3028093BB008091BC0083FDF8CF6D
:100BF00085EC01C085EE8093BC008091C8028130F5
:100C0000E1F38091C502861710F46091C502A4EA51
:100C1000B2E022E832E0F9018E2F821B861718F429
:100C20008D918193F9CF862F0895682F8AE893E0FC
:100C300051CD0F931F93CF93DF938C01C6E9D3E07F
:100C4000898191E09093C9028093EB021092CA02CD
:100C50001092EC02812F90E0E8DFC8019927E5DFD0
:100C600043DF888361E089819CDF10928102809359
:100C700080028AE893E0ADDCC82F36DF8C2FDF914D
:100C8000CF911F910F910895EF92FF920F931F93B1
:100C9000CF93DF931F92CDB7DEB78C0186E9E82EA4
:100CA00083E0F82EF701818191E09093C90280934F
:100CB000EB021092CA021092EC02812F90E069833D
:100CC000B4DFC8019927B1DF69818AE893E002DDCA
:100CD0000BDFF70180830F90DF91CF911F910F9170
:100CE000FF90EF900895CF93DF9361E088E190E06B
:100CF000CBDF2FB7F89480917C0290917D02A09178
:100D00007E02B0917F022FBFEC018FE490E091DF73
:100D100082FD1FC080919A0390919B03892BA9F3B8
:100D20002FB7F89480917C0290917D02A0917E0271
:100D3000B0917F022FBF8C1B9D0B20919A033091A5
:100D40009B032817390708F781E080939C038FEFF6
:100D500009C082E690E06DDFC82F61E085E190E098
:100D600093DF8C2FDF91CF91089590E0FC01E45147
:100D7000FE4F2491FC01EA55FE4F8491882399F09F
:100D800090E0880F991FFC01E457FE4FA591B491A4
:100D9000FC01EE58FE4F859194918FB7F894EC9139
:100DA000E22BEC938FBF0895EF92FF920F931F9366
:100DB000CF93DF937C018B01C6E9D3E0898191E079
:100DC0009093C9028093EB021092CA021092EC0237
:100DD0008F2D90E02ADFC701992727DF812F90E030
:100DE00024DFC801992721DF7FDE8883DF91CF913F
:100DF0001F910F91FF90EF900895009761F0FC0113
:100E000001900020E9F73197AF01481B590BBC0155
:100E10008DEE92E09DCA80E090E008958F929F92BF
:100E2000AF92BF920F931F93CF93DF93CDB7DEB7EF
:100E3000A1970FB6F894DEBF0FBECDBF19A2423006
:100E400008F44AE08E010F5D1F4F842E912CA12CD7
:100E5000B12CA50194018CD4E62FB901CA0101502F
:100E60001109EA3014F4E05D01C0E95CD801EC93AB
:100E7000232B242B252B69F7C801BFDFA1960FB6C2
:100E8000F894DEBF0FBECDBFDF91CF911F910F91C0
:100E9000BF90AF909F908F900895CF92DF92EF9286
:100EA000FF92CF93DF936C01990FEE08FF08F7FED6
:100EB0001EC0E091ED02F091EE020190F081E02D74
:100EC0006DE28DEE92E01995EC0166277727CB0154
:100ED0006C197D098E099F094AE0A0DF8C0F9D1FC8
:100EE000DF91CF91FF90EF90DF90CF9008954AE08F
:100EF000C701B601DF91CF91FF90EF90DF90CF90C7
:100F00008DCF362F90E0FC01E45DFE4F4491FC0153
:100F1000E451FE4F2491FC01EA55FE4F9491992330
:100F200009F46AC0442309F454C050E0FA0131972F
:100F3000E231F10508F04DC08827EE58FF4F8F4F82
:100F4000DBC5809180008F7707C0809180008F7D06
:100F500003C080918000877F809380003AC084B571
:100F60008F7702C084B58F7D84BD33C08091B0007F
:100F70008F7703C08091B0008F7D8093B00029C02F
:100F8000809190008F7707C0809190008F7D03C083
:100F900080919000877F809390001BC08091A0007B
:100FA0008F7707C08091A0008F7D03C08091A00043
:100FB000877F8093A0000DC0809120018F7707C0AC
:100FC000809120018F7D03C080912001877F8093D5
:100FD0002001E92FF0E0EE0FFF1FEE58FE4FA59124
:100FE000B4918FB7F894EC91311103C020952E2362
:100FF00001C02E2B2C938FBF0895CF93DF93EC016C
:1010000084E0B3DE209711F460E004C0CF3FD10547
:1010100029F461E084E0DF91CF9173CFE0E3F1E068
:10102000E4918E2F90E0FC013197E231F10508F058
:101030009CC08827EC57FF4F8F4F5EC584B58068F2
:1010400084BDC7BD97C084B5806284BDC8BD92C051
:1010500080918000806880938000D0938900C09345
:10106000880088C080918000806280938000D09347
:101070008B00C0938A007EC080918000886080933E
:101080008000D0938D00C0938C0074C08091B0001C
:1010900080688093B000C093B3006CC08091B000B2
:1010A00080628093B000C093B40064C080919000CF
:1010B000806880939000D0939900C09398005AC0A4
:1010C00080919000806280939000D0939B00C093A9
:1010D0009A0050C080919000886080939000D093D7
:1010E0009D00C0939C0046C08091A00080688093C2
:1010F000A0008091A0008F7B8093A000D093A900D6
:10110000C093A80037C08091A00080628093A000A7
:10111000D093AB00C093AA002DC08091A00088603E
:101120008093A000D093AD00C093AC0023C0809109
:101130002001806880932001D0932901C093280169
:1011400019C080912001806280932001D0932B01EF
:10115000C0932A010FC080912001886080932001F4
:10116000D0932D01C0932C0105C0C038D1050CF0DF
:1011700050CF4ACFDF91CF910895789484B58260A3
:1011800084BD84B5816084BD85B5826085BD85B52B
:10119000816085BD80916E00816080936E001092A9
:1011A0008100809181008260809381008091810024
:1011B00081608093810080918000816080938000B5
:1011C0008091B10084608093B1008091B000816013
:1011D0008093B00080919100826080939100809113
:1011E0009100816080939100809190008160809354
:1011F00090008091A10082608093A1008091A10065
:1012000081608093A1008091A00081608093A00004
:101210008091210182608093210180912101816070
:101220008093210180912001816080932001809131
:101230007A00846080937A0080917A008260809343
:101240007A0080917A00816080937A0080917A00A0
:10125000806880937A001092C100E091FD02F091C5
:10126000FE0202E00083E091F902F091FA0210829E
:10127000E091FB02F091FC028FEC80831092050359
:10128000E0910103F091020386E08083E091FF0288
:10129000F0910003808180618083E091FF02F091F2
:1012A0000003808188608083E091FF02F091000359
:1012B000808180688083E091FF02F091000380814B
:1012C0008F7D808310928102109280021092CA0258
:1012D0001092EC021092C80211E01093C702109213
:1012E000A20261E084E10DDE61E085E10ADE809129
:1012F000B9008E7F8093B9008091B9008D7F809373
:10130000B90088E48093B80085E48093BC0084E24F
:1013100090E08FDC8093990386E190E08ADC813055
:1013200009F07FC08093980361E087E092E0ACDC35
:1013300061E088E092E0A8DC60E086E990E0A4DC6F
:101340006DEF87E990E0A0DC60E083EE90E09CDC4C
:1013500064E084EE90E098DC62E085EE90E094DC5E
:1013600061E086EE90E090DC63E087EE90E08CDC5C
:1013700062E085EF90E088DC65E089ED90E084DC58
:101380006EEC8BED90E080DC63E08CED90E07CDC3B
:1013900068EF8DED90E078DC60E08FE990E074DC40
:1013A0006CE383EA90E070DC60E087EB90E06CDC5B
:1013B0006CE38BEB90E068DC69E082EB90E064DC4E
:1013C00069E08AEC90E060DC61E088E991E05CDC57
:1013D00067E180EB91E058DC60E08DEA91E054DC5D
:1013E00065E08FEF90E050DC65E080E091E04CDC60
:1013F00065E089E991E048DC6BE186EA91E044DC54
:101400006EE38CEA91E040DC6FE187EA91E03CDC3E
:1014100060E080E390E038DC60E086E190E034DC7E
:1014200041C0809197031093C9028093EB02109200
:10143000CA021092EC0280E090E0F7DB86E990E0CF
:10144000F4DB52DB8093960362E080919703A9DB83
:1014500010928102809380028AE893E0BAD8C82F64
:101460008AE893E0B6D820E030E03C2FE901C82BB1
:10147000D92B3ADBC435D10521F483E0809398035E
:1014800008C0CF37D10519F40093980302C0109318
:1014900098038091980390919903899F802D11243E
:1014A0008093990360E38AE091E0EEDB66E48FE3EA
:1014B00090E0EADB6FEF81E390E0E6DB63E670E06B
:1014C00080E490E071DC61E08EE290E0DDDB69E0D9
:1014D0008BE190E0D9DB61E38EE390E0D5DB64E261
:1014E00084E190E0D1DB61E38CE190E0CDDB60E072
:1014F00083EA92E0C9DB81E0809398036DEF70E0AE
:1015000086E990E051DC8091990360919803D5D2EF
:10151000682F84E290E0B8DB6091980370E084E18A
:1015200090E0D7D281E290E0AFDB8DE290E081DB0A
:101530008E7F61E090919803913009F060E0682B14
:101540008DE290E0A1DB8BE110DC8AE10EDC84E02F
:101550000CDC60E08BE1D5DC61E08AE1D2DCC12CFF
:10156000D12C7601CA948DEE92E00E940402892B60
:1015700009F443C08DEE92E00E94E201809376026E
:101580008B3219F08D3239F00FC0809175028F3F88
:10159000A1F18F5F30C080917502811103C010925C
:1015A00075022BC0815027C090ED980F9A3028F516
:1015B000880F8056682F660F660F680F609374025D
:1015C00070E080E090E031D1FDD120E030E04CECE3
:1015D00051E491D1FED060937302262F30E0A4E64F
:1015E000B0E0E8D0A7019601A7D0DA01C9018C5973
:1015F0009F4FAF4FBF4F80937502C091980373DB2D
:101600008C9FC001112490937202809371026091AB
:10161000750270E080E090E04AE000DC84E292E055
:10162000ECDBC2E8D0E0CE01E8DCCE0136DC87E2BC
:1016300092E0E3DB1091980356DB819FC0011124F7
:10164000BC0180E090E04AE0E9DB84E292E0D5DB97
:1016500064E670E080E090E00E9470012196CE3B4D
:10166000D10509F764E670E080E090E00E94700127
:10167000CE01C3DCCE0111DC87E292E0BEDB10912B
:10168000980331DB819FC0011124BC0180E090E010
:101690004AE0C4DB84E292E0B0DB64E670E080E024
:1016A00090E00E9470012197C238D10509F70E948D
:1016B000A10259CFEDEEF2E01382128288EE93E0A0
:1016C000A0E0B0E084839583A683B78324E032E072
:1016D0003183208325EC30E03587248724EC30E00B
:1016E0003787268720EC30E0318B208B21EC30E0EF
:1016F000338B228B22EC30E0358B248B26EC30E0D0
:10170000378B268B118E128E138E148EEAE8F3E03F
:101710001382128284839583A683B78386E192E045
:1017200091838083E6E9F3E089E281831282138268
:101730001582148216820895052E97FB16F40094E4
:101740000FD057FD05D014D007FC02D046F408C0D6
:1017500050954095309521953F4F4F4F5F4F0895DD
:1017600090958095709561957F4F8F4F9F4F08950D
:10177000A1E21A2EAA1BBB1BFD010DC0AA1FBB1F95
:10178000EE1FFF1FA217B307E407F50720F0A21B07
:10179000B30BE40BF50B661F771F881F991F1A9474
:1017A00069F760957095809590959B01AC01BD019E
:1017B000CF010895A29FB001B39FC001A39F700DF8
:1017C000811D1124911DB29F700D811D1124911D49
:1017D000089570D088F09F5790F0B92F9927B7518E
:1017E000A0F0D1F0660F771F881F991F1AF0BA95E5
:1017F000C9F712C0B13081F077D0B1E0089574C05C
:10180000672F782F8827B85F39F0B93FCCF38695DA
:1018100077956795B395D9F73EF490958095709537
:1018200061957F4F8F4F9F4F0895E89409C097FBB4
:101830003EF490958095709561957F4F8F4F9F4FA7
:101840009923A9F0F92F96E9BB279395F6958795EB
:1018500077956795B795F111F8CFFAF4BB0F11F4AE
:1018600060FF1BC06F5F7F4F8F4F9F4F16C0882355
:1018700011F096E911C0772321F09EE8872F762F8B
:1018800005C0662371F096E8862F70E060E02AF0CC
:101890009A95660F771F881FDAF7880F96958795B8
:1018A00097F9089557FD9058440F551F59F05F3F21
:1018B00071F04795880F97FB991F61F09F3F79F072
:1018C00087950895121613061406551FF2CF4695F4
:1018D000F1DF08C0161617061806991FF1CF869576
:1018E0007105610508940895E894BB27662777275A
:1018F000CB0197F908950BD0CFC0C0D028F0C5D048
:1019000018F0952309F09CC0AFC01124EECFCADFB8
:10191000A0F3959FD1F3950F50E0551F629FF00102
:10192000729FBB27F00DB11D639FAA27F00DB11D5B
:10193000AA1F649F6627B00DA11D661F829F2227E4
:10194000B00DA11D621F739FB00DA11D621F839F6B
:10195000A00D611D221F749F3327A00D611D231F41
:10196000849F600D211D822F762F6A2F11249F578F
:1019700050408AF0E1F088234AF0EE0FFF1FBB1FB2
:10198000661F771F881F91505040A9F79E3F510551
:1019900070F056C0AACF5F3FECF3983EDCF386951B
:1019A00077956795B795F795E7959F5FC1F7FE2BFC
:1019B000880F911D9695879597F9089511F40EF467
:1019C00053C044C077DFD0F39923D9F3CEF39F57A8
:1019D000550B87FF4CD00024A0E640EA90018058C8
:1019E0005695979528F4805C660F771F881F20F026
:1019F00026173707480730F4621B730B840B202926
:101A000031294A2BA69517940794202531254A277A
:101A100058F7660F771F881F20F0261737074807EB
:101A200030F4620B730B840B200D311D411DA0950A
:101A300081F7B901842F9158880F9695879508955D
:101A400097F99F6780E870E060E008959F3F31F06C
:101A5000915020F4879577956795B795880F911DDC
:101A60009695879597F908959FEF80EC089591508A
:101A70005040660F771F881FD2F7089500240A94FC
:101A80001616170618060906089500240A94121659
:101A90001306140605060895092E0394000C11F48C
:101AA000882352F0BB0F40F4BF2B11F460FF04C039
:101AB0006F5F7F4F8F4F9F4F0895991B79E004C050
:101AC000991F961708F0961B881F7A95C9F780957D
:101AD000089597FB072E16F4009406D077FD08D0E2
:101AE00013D007FC05D03EF4909581959F4F089543
:101AF000709561957F4F0895EE0FFF1F881F8BBF74
:101B00000790F691E02D1994AA1BBB1B51E107C069
:101B1000AA1FBB1FA617B70710F0A61BB70B881F7D
:101B2000991F5A95A9F780959095BC01CD0108950C
:0C1B300081E090E0F89400C0F894FFCF32
:101B3C00000000003A02A801D30180020402E20175
:101B4C00F601000000006A033B030603D902FD0204
:0A1B5C00E902DA020D0A003B000066
:00000001FF
