:1000000014C1000042C1000040C100003EC1000018
:100010003CC100003AC1000038C1000036C10000F8
:1000200034C1000032C1000030C100002EC1000008
:100030002CC100002AC1000028C1000026C1000018
:1000400024C1000022C1000020C100001EC1000028
:1000500076C300001AC1000018C1000037C70000B5
:1000600014C1000036C300000BC300000EC1000025
:100070000CC100000AC1000008C1000006C1000058
:1000800004C1000002C1000000C1000083C30000E1
:10009000FCC00000FAC00000F8C00000A6C30000C9
:1000A000F4C00000F2C00000F0C00000EEC000008C
:1000B000ECC00000EAC00000E8C00000E6C000009C
:1000C000E4C00000E2C00000E0C00000DEC00000AC
:1000D000DCC00000DAC00000D8C00000D6C00000BC
:1000E000D4C00000D706DA06C906CD06D30611072C
:1000F000DE06E206E806EC06F006F606FA06FE065E
:100100001107040708070C07000020002300260041
:1001100029002C002F00320000010000030106011D
:10012000090100000A0B02090C0D0E080703040167
:1001300000000000000000000000000000000000BF
:10014000000000000000000000000000000012118C
:10015000100000000000000000000000000000008F
:100160000000000000000000000022002500280020
:100170002B002E00310034000201000005010801AF
:100180000B0100002100240027002A002D00300070
:10019000330001010000040107010A0105050505FE
:1001A000070508080808020202020A0A08080404EF
:1001B000040401010101010101010303030303031D
:1001C0000303040707070C0C0C0C0C0C0C0C0202AC
:1001D000020206060606060606060B0B0B0B0B0BA9
:1001E0000B0B010210202008081020401020408036
:1001F00002010201080402010102040810204080EB
:100200008040201008040201800402018040201078
:1002100008040201080402010102040810204080C1
:1002200001020408102040809D0A11241FBECFEF58
:10023000D1E2DEBFCDBF00E00CBF12E0A0E0B2E033
:10024000E2EAF6E100E00BBF02C007900D92AA328D
:10025000B107D9F723E0AAE2B2E001C01D92A43AA7
:10026000B207E1F711E0C5E1D1E000E006C0219757
:100270000109802FFE010E94200BC431D10780E0CC
:100280000807A9F76DD60C944F0BBACE81E0809386
:100290007B02089581E080937D020895CF92DF92E2
:1002A000EF92FF920F931F93CF93DF936C017A012C
:1002B0008B01C0E0D0E0CE15DF0589F0D8016D914B
:1002C0008D01D601ED91FC910190F081E02DC601E8
:1002D0001995892B11F47E0102C02196ECCFC7013C
:1002E000DF91CF911F910F91FF90EF90DF90CF9012
:1002F0000895FC01538D448D252F30E0842F90E02C
:10030000821B930B541710F0CF9608950197089510
:10031000FC01918D828D981761F0828DDF01A80F0D
:10032000B11D5D968C91928D9F5F9F73928F90E02F
:1003300008958FEF9FEF0895FC01918D828D98179E
:1003400031F0828DE80FF11D858D90E008958FEFDB
:100350009FEF0895FC01918D228D892F90E0805CA4
:100360009F4F821B91098F73992708958FEE92E01A
:10037000F1DF21E0892B09F420E0822F0895FC01B0
:10038000848DDF01A80FB11DA35ABF4F2C91848D1E
:1003900090E001968F739927848FA689B7892C9353
:1003A000A089B1898C9180648C93938D848D9813EE
:1003B00006C00288F389E02D80818F7D80830895B7
:1003C000EF92FF920F931F93CF93DF93EC0181E0A5
:1003D000888F9B8D8C8D981305C0E889F989808161
:1003E00085FD23C0F62E0B8D10E00F5F1F4F0F739E
:1003F0001127E02E8C8DE8120BC00FB607FCFACF48
:10040000E889F989808185FFF5CFCE01B8DFF2CF89
:100410008B8DFE01E80FF11DE35AFF4FF0820B8F29
:10042000EA89FB898081806207C0EE89FF89608349
:10043000E889F98980818064808381E090E0DF91A0
:10044000CF911F910F91FF90EF900895CF93DF937D
:10045000EC01888D8823C1F0EA89FB89808185FDC4
:1004600005C0A889B9898C9186FD0EC00FB607FC1E
:10047000F5CF808185FFF2CFA889B9898C9185FF5E
:10048000EDCFCE017CDFE8CFDF91CF91089580E002
:1004900090E0892B19F06ADF811125C080E090E09F
:1004A000892B41F080E090E0892B21F00E94000030
:1004B00081111CC080E090E0892B41F080E090E049
:1004C000892B21F00E940000811113C080E090E090
:1004D000892BA1F080E090E0892B81F00E94000040
:1004E00081110AC008950E940000D8CF0E94000028
:1004F000E1CF0E940000EACF0C9400000895089517
:10050000E091830280918202E81730F4F0E0EC572A
:10051000FD4F808190E008958FEF9FEF08959091B7
:10052000830280918202981750F4E92FF0E0EC5793
:10053000FD4F208130E09F5F9093830202C02FEF38
:100540003FEFC90108958091820290E020918302DB
:10055000821B91090895089580E090E0089585ED4B
:100560008093BC008091BC0084FDFCCF1092CA0235
:10057000089540914C02262F30E0240F311D213286
:100580003105DCF42091CA022430C9F4FC0180E07A
:1005900090E0861758F430914C022191DC01A65D61
:1005A000BD4FA30FB11D2C930196F3CF80914C0248
:1005B000680F60934C0280E0089581E0089582E026
:1005C0000895CF92DF92EF92FF920F931F93CF93F4
:1005D000DF937C01262F972F8A018091CB028823FD
:1005E00091F0C62FD72F6E01C40ED51ECC15DD0598
:1005F00069F06991D701ED91FC910190F081E02DB6
:10060000C7011995F3CF642F822FB3DFC801DF91A3
:10061000CF911F910F91FF90EF90DF90CF900895B1
:10062000CF93DF931F92CDB7DEB769832091CB02C2
:100630002223D1F02091EE02203240F021E030E080
:10064000FC013383228380E090E014C08091CC02CF
:10065000E82FF0E0E353FD4F998190838F5F809303
:10066000CC028093EE0204C061E0CE01019681DFEE
:1006700081E090E00F90DF91CF9108950E944B0BA5
:100680001F920F920FB60F9211240BB60F922F9359
:100690003F934F935F936F937F938F939F93AF930A
:1006A000BF93EF93FF938FEE92E069DEFF91EF919E
:1006B000BF91AF919F918F917F916F915F914F917A
:1006C0003F912F910F900BBE0F900FBE0F901F9078
:1006D00018951F920F920FB60F9211240BB60F921E
:1006E0002F938F939F93EF93FF93E091FF02F091ED
:1006F00000038081E0910503F091060382FD12C0A2
:100700009081809108038F5F8F7320910903821776
:1007100051F0E0910803F0E0E151FD4F958F809397
:10072000080301C08081FF91EF919F918F912F91DC
:100730000F900BBE0F900FBE0F901F9018951F9239
:100740000F920FB60F9211240BB60F922F933F9377
:100750004F935F936F937F938F939F93AF93BF93C9
:10076000EF93FF93E0917302F09174021995FF915A
:10077000EF91BF91AF919F918F917F916F915F9119
:100780004F913F912F910F900BBE0F900FBE0F9086
:100790001F9018951F920F920FB60F9211240BB64F
:1007A0000F922F933F934F935F936F937F938F930A
:1007B0009F93AF93BF93EF93FF93E0917102F091FA
:1007C00072021995FF91EF91BF91AF919F918F9117
:1007D0007F916F915F914F913F912F910F900BBE41
:1007E0000F900FBE0F901F9018951F920F920FB68B
:1007F0000F9211240BB60F922F933F934F935F9359
:100800006F937F938F939F93AF93BF93EF93FF93D8
:100810008091B900887F803609F49CC068F58832E1
:1008200009F45BC090F4803109F454C038F4882393
:1008300009F4F6C0883009F44DC0F5C0883109F4D8
:100840004CC0803209F45DC0EEC0803409F468C049
:1008500048F4803309F455C0883309F0E4C080932C
:10086000C802D8C0803509F44FC0883509F45DC08E
:10087000883409F0D8C0D6C0883909F4C7C0A8F4B4
:10088000883709F467C038F4883609F463C08037C4
:1008900009F460C0C8C0883809F4B8C0803909F4C8
:1008A0005FC0803809F0BFC05BC0803B09F486C0E0
:1008B00038F4803A09F466C0883A09F47FC0B3C0BE
:1008C000803C09F4A7C0883C09F4A4C0883B09F423
:1008D0008AC0A9C08091A50210C09091C7028091E2
:1008E000C602981770F5E091C70281E08E0F8093E1
:1008F000C702F0E0EA55FD4F80818093BB0085EC94
:1009000086C08093C8028EC0E091C70281E08E0F3E
:100910008093C7028091BB00F0E0EA55FD4F8083D1
:100920009091C7028091C6026EC0E091C70281E03B
:100930008E0F8093C7028091BB00F0E0EA55FD4F17
:1009400080838091C90281116DC081E08093A402EF
:1009500084EA61C083E08093CA0210927002CFCF14
:1009600080917002803208F051C0E091700281E005
:100970008E0F809370028091BB00F0E0E05BFD4F32
:100980008083BDCF85EC8093BC001092CA02809119
:100990007002803230F4E0917002F0E0E05BFD4FD5
:1009A00010826091700270E0E0914E02F0914F026F
:1009B00080E592E019951092700235C084E0809332
:1009C000CA0210924D0210924C02E0914A02F0913C
:1009D0004B02199580914C02811105C081E08093F2
:1009E0004C0210922A02E0914D0281E08E0F80931A
:1009F0004D02F0E0E65DFD4F80818093BB00909159
:100A00004D0280914C02981708F479CF85E88093C5
:100A1000BC0009C085EC8093BC001092CA0203C0E0
:100A20001092C8029CDDFF91EF91BF91AF919F9111
:100A30008F917F916F915F914F913F912F910F9087
:100A40000BBE0F900FBE0F901F901895009761F08E
:100A5000FC0101900020E9F73197AF01481B590BC9
:100A6000BC018FEE92E01ACC80E090E008958F9266
:100A70009F92AF92BF920F931F93CF93DF93CDB707
:100A8000DEB7A1970FB6F894DEBF0FBECDBF19A297
:100A9000423008F44AE08E010F5D1F4F842E912CE6
:100AA000A12CB12CA5019401A9D5E62FB901CA0149
:100AB00001501109EA3014F4E05D01C0E95CD8018D
:100AC000EC93232B242B252B69F7C801BFDFA196BC
:100AD0000FB6F894DEBF0FBECDBFDF91CF911F914F
:100AE0000F91BF90AF909F908F9008952091EE024C
:100AF0009091ED02213208F04AC08091CA02811122
:100B0000FCCF32E03093CA0231E03093C9023FEFAC
:100B10003093C8021092C7022093C602ADECB2E037
:100B200046EA52E0FA013E2F341B321718F43D9189
:100B30003193F9CF1092A5022091A502990F922B23
:100B40009093A5029091A402913061F41092A402B6
:100B50009091A5029093BB009091BC0093FDF8CFBB
:100B600095EC01C095EE9093BC009091CA02923032
:100B7000E1F39091C8029F3F79F08091C8028032E2
:100B800041F08091C802803331F084E005C081E0FB
:100B900003C082E001C083E01092CC021092EE020A
:100BA0001092CB0208959091CA029111FCCF91E06E
:100BB0009093CA029093C9022FEF2093C80210921B
:100BC000C702260F2093C6029093A5029091A5021A
:100BD000880F892B8093A5028091A402813061F453
:100BE0001092A4028091A5028093BB008091BC006A
:100BF00083FDF8CF85EC01C085EE8093BC00809129
:100C0000CA028130E1F38091C702861710F4609127
:100C1000C702A6EAB2E024E832E0F9018E2F821B77
:100C2000861718F48D918193F9CF862F0895682F38
:100C30008CE893E0F5CC0F931F93CF93DF938C0157
:100C4000C8E9D3E0898191E09093CB028093ED02D3
:100C50001092CC021092EE02812F90E0E8DFC801E2
:100C60009927E5DF43DF888361E089819CDF10926B
:100C70008302809382028CE893E051DCC82F36DF38
:100C80008C2FDF91CF911F910F910895EF92FF92DA
:100C90000F931F93CF93DF931F92CDB7DEB78C01D5
:100CA00088E9E82E83E0F82EF701818191E09093A6
:100CB000CB028093ED021092CC021092EE02812FB3
:100CC00090E06983B4DFC8019927B1DF69818CE8BE
:100CD00093E0A6DC0BDFF70180830F90DF91CF91CB
:100CE0001F910F91FF90EF90089590E0FC01EE515D
:100CF000FE4F2491FC01E456FE4F8491882399F025
:100D000090E0880F991FFC01EE57FE4FA591B4911A
:100D1000FC01E859FE4F859194918FB7F894EC91BE
:100D2000E22BEC938FBF0895EF92FF920F931F93E6
:100D3000CF93DF937C018B01C8E9D3E0898191E0F7
:100D40009093CB028093ED021092CC021092EE02AF
:100D50008F2D90E06CDFC701992769DF812F90E02C
:100D600066DFC801992763DFC1DE8883DF91CF91F9
:100D70001F910F91FF90EF90089590E0FC01319743
:100D8000E231F10508F04DC08827EE58FF4F8F4F34
:100D900057C4809180008F7703C0809180008F7D41
:100DA00080938000089580918000877FF9CF84B57B
:100DB0008F7702C084B58F7D84BD08958091B00087
:100DC0008F7703C08091B0008F7D8093B00008952D
:100DD000809190008F7707C0809190008F7D03C035
:100DE00080919000877F8093900008958091A0006B
:100DF0008F7707C08091A0008F7D03C08091A000F5
:100E0000877F8093A0000895809120018F7707C08D
:100E1000809120018F7D03C080912001877F809386
:100E2000200108951F93CF93DF93282F30E0F9011D
:100E3000EE5DFE4F8491F901EE51FE4FD491F90120
:100E4000E456FE4FC491CC23C1F0162F811195DFDB
:100E5000EC2FF0E0EE0FFF1FE859FE4FA591B49183
:100E60008FB7F894111105C09C91ED2FE095E923FF
:100E700002C0EC91ED2BEC938FBFDF91CF911F91CE
:100E800008953FB7F8948091A0039091A103A09199
:100E9000A203B091A30326B5A89B05C02F3F19F06C
:100EA0000196A11DB11D3FBFBA2FA92F982F8827EA
:100EB000820F911DA11DB11DBC01CD0142E0660F45
:100EC000771F881F991F4A95D1F708951F920F9297
:100ED0000FB60F9211242F933F938F939F93AF934D
:100EE000BF9380917E0290917F02A0918002B09189
:100EF000810230919F0323E0230F2D3720F40196C8
:100F0000A11DB11D05C026E8230F0296A11DB11D2C
:100F100020939F0380937E0290937F02A093800290
:100F2000B09381028091A0039091A103A091A203AC
:100F3000B091A3030196A11DB11D8093A0039093CE
:100F4000A103A093A203B093A303BF91AF919F917C
:100F50008F913F912F910F900FBE0F901F9018957A
:100F6000789484B5826084BD84B5816084BD85B584
:100F7000826085BD85B5816085BD80916E00816090
:100F800080936E0010928100809181008260809336
:100F90008100809181008160809381008091800038
:100FA0008160809380008091B10084608093B10063
:100FB0008091B00081608093B00080919100826048
:100FC0008093910080919100816080939100809145
:100FD00090008160809390008091A1008260809356
:100FE000A1008091A10081608093A1008091A00068
:100FF00081608093A0008091210182608093210113
:101000008091210181608093210180912001816084
:101010008093200180917A00846080937A0080918F
:101020007A00826080937A0080917A008160809358
:101030007A0080917A00806880937A001092C100D3
:10104000E091FF02F091000302E00083E091FB02D7
:10105000F091FC021082E091FD02F091FE0280E12D
:10106000808310920703E0910303F091040386E06C
:101070008083E0910103F09102038081806180838D
:10108000E0910103F0910203808188608083E09108
:101090000103F0910203808180688083E091010365
:1010A000F091020380818F7D8083109283021092E1
:1010B00082021092CC021092EE021092CA0211E04B
:1010C0001093C9021092A40261E084E1ABDE61E0FA
:1010D00085E1A8DE8091B9008E7F8093B900809170
:1010E000B9008D7F8093B90088E48093B80085E4CF
:1010F0008093BC0084E290E09EDD80939B0386E1B8
:1011000090E099DD813009F07FC080939A0361E01F
:1011100087E092E0BBDD61E088E092E0B7DD60E06F
:1011200086E990E0B3DD6DEF87E990E0AFDD60E048
:1011300083EE90E0ABDD64E084EE90E0A7DD62E05A
:1011400085EE90E0A3DD61E086EE90E09FDD63E058
:1011500087EE90E09BDD62E085EF90E097DD65E053
:1011600089ED90E093DD6EEC8BED90E08FDD63E038
:101170008CED90E08BDD68EF8DED90E087DD60E039
:101180008FE990E083DD6CE383EA90E07FDD60E04F
:1011900087EB90E07BDD6CE38BEB90E077DD69E043
:1011A00082EB90E073DD69E08AEC90E06FDD61E056
:1011B00088E991E06BDD67E180EB91E067DD60E05D
:1011C0008DEA91E063DD65E08FEF90E05FDD65E043
:1011D00080E091E05BDD65E089E991E057DD6BE15E
:1011E00086EA91E053DD6EE38CEA91E04FDD6FE13A
:1011F00087EA91E04BDD60E080E390E047DD60E06E
:1012000086E190E043DD41C0809199031093CB02C9
:101210008093ED021092CC021092EE0280E090E0FA
:1012200006DD86E990E003DD61DC8093980362E0EF
:1012300080919903B8DC10928302809382028CE83B
:1012400093E06DD9C82F8CE893E069D920E030E0B5
:101250003C2FE901C82BD92B49DCC435D10521F439
:1012600083E080939A0308C0CF37D10519F4009327
:101270009A0302C010939A0380919A0390919B0362
:10128000899F802D112480939B0360E38AE091E085
:10129000FDDC66E48FE390E0F9DC6FEF81E390E042
:1012A000F5DC63E670E080E490E03EDD61E08EE234
:1012B00090E0ECDC69E08BE190E0E8DC61E38EE358
:1012C00090E0E4DC64E284E190E0E0DC61E38CE166
:1012D00090E0DCDC60E083EA92E0D8DC81E080939F
:1012E0009A036DEF70E086E990E01EDD80919B032C
:1012F00060919A0364D1682F84E290E0C7DC60912A
:101300009A0370E084E190E066D181E290E0BEDC77
:101310008DE290E090DC8E7F61E090919A039130B5
:1013200009F060E0682B8DE290E0B0DCAADD4B01B3
:101330005C0148EEC42E43E0D42EE12CF12CA1DD5B
:10134000DC01CB0188199909AA09BB09883E9340A1
:10135000A105B10558F021E0C21AD108E108F10851
:1013600088EE880E83E0981EA11CB11CC114D10424
:10137000E104F10421F78BE1B8DC8AE1B6DC84E01A
:10138000B4DC60E08BE14EDD61E08AE14BDD61E0E1
:1013900084E048DD80E1809381001092800094E039
:1013A00090937A022BE137EB309379022093780205
:1013B000309387002093860094E19093810080937E
:1013C00091001092900082E08093770280E197E292
:1013D0009093760280937502909397008093960085
:1013E00082E18093910086E491E09093740280936F
:1013F000730281E080936F002AE431E0309372023F
:101400002093710280937100C6E2D1E006EE11E0F4
:1014100030EAE32E31E0F32E80917D02882309F437
:1014200064C010927D022FB7F89460917E02709193
:101430007F0280918002909181022FBF4AE017DBEA
:1014400084E292E003DB60917C0270E080E090E057
:101450004AE00DDB84E292E0F9DAB0909A0361E0B1
:1014600088E190E013DC2FB7F89480917E02909190
:101470007F02A0918002B09181022FBF6C018FE4A6
:1014800090E0D9DB82FD1FC080919C0390919D0369
:10149000892BA9F32FB7F89480917E0290917F0257
:1014A000A0918002B09181022FBF8C199D092091DB
:1014B0009C0330919D032817390708F781E080933A
:1014C0009E032FEF09C082E690E0B5DBD82E61E0E5
:1014D00085E190E0DBDB2D2D30E0AB2DB0E0B8D026
:1014E0004AE0C5DA86E292E0B1DA80917B02882395
:1014F00009F110927B02FE018491F801C490F7017A
:10150000D490DD2079F0811138DC8D2D90E0880FAA
:10151000991F885F9E4FFC01A591B4918C91C822C0
:1015200061E009F460E0617060937C0281E068270B
:1015300084E078DC0E9447026FCFEFEEF2E0138286
:10154000128288EE93E0A0E0B0E084839583A683C6
:10155000B78324E032E03183208325EC30E0358707
:10156000248724EC30E03787268720EC30E0318B6D
:10157000208B21EC30E0338B228B22EC30E0358B5A
:10158000248B26EC30E0378B268B118E128E138E37
:10159000148EECE8F3E01382128284839583A68391
:1015A000B78386E192E091838083E8E9F3E089E202
:1015B0008183128213821582148216820895991BE8
:1015C00079E004C0991F961708F0961B881F7A953A
:1015D000C9F78095089597FB072E16F4009406D05E
:1015E00077FD08D044D007FC05D03EF49095819556
:1015F0009F4F0895709561957F4F0895A1E21A2E2F
:10160000AA1BBB1BFD010DC0AA1FBB1FEE1FFF1FA6
:10161000A217B307E407F50720F0A21BB30BE40BF6
:10162000F50B661F771F881F991F1A9469F760953D
:101630007095809590959B01AC01BD01CF010895F7
:10164000EE0FFF1F881F8BBF0790F691E02D1994B6
:10165000A29FB001B39FC001A39F700D811D1124F3
:10166000911DB29F700D811D1124911D0895AA1B1B
:10167000BB1B51E107C0AA1FBB1FA617B70710F07D
:10168000A61BB70B881F991F5A95A9F780959095AF
:10169000BC01CD01089581E090E0F89400C0F89479
:0216A000FFCF7A
:1016A20000000000E0014E0179012602AA01880132
:1016B2009C01000000001003E102AC027F02A302C1
:0A16C2008F0280023B000D0A0000B9
:00000001FF
