:100000000C9435000C945D000C945D000C945D0024
:100010000C945D000C945D000C945D000C945D00EC
:100020000C945D000C945D000C945D000C945D00DC
:100030000C945D000C945D000C945D000C945D00CC
:100040000C9490010C945D000C9400020C94DA0165
:100050000C945D000C945D000C945D000C945D00AC
:100060000C945D000C945D00910311241FBECFEF32
:10007000D8E0DEBFCDBF11E0A0E0B1E0E0E9FAE0FA
:1000800002C005900D92A432B107D9F721E0A4E295
:10009000B1E001C01D92A73EB207E1F710E0C5E351
:1000A000D0E004C02197FE010E943B05C433D10774
:1000B000C9F70E9432020C9446050C9400003FB729
:1000C000F8948091E3019091E401A091E501B09151
:1000D000E60126B5A89B05C02F3F19F00196A11D8A
:1000E000B11D3FBFBA2FA92F982F8827820F911DCE
:1000F000A11DB11DBC01CD0142E0660F771F881F15
:10010000991F4A95D1F70895CF92DF92EF92FF920F
:100110000F931F93CF93DF936C017A018B01C0E0A3
:10012000D0E0CE15DF0589F0D8016D918D01D601A3
:10013000ED91FC910190F081E02DC6010995892B8C
:1001400011F47E0102C02196ECCFC701DF91CF915F
:100150001F910F91FF90EF90DF90CF900895089539
:1001600080E090E00895FC01538D448D252F30E010
:10017000842F90E0821B930B541710F0CF960895B4
:1001800001970895FC01918D828D981761F0828D01
:10019000DF01A80FB11D5D968C91928D9F5F9F73BB
:1001A000928F90E008958FEF9FEF0895FC01918D5D
:1001B000828D981731F0828DE80FF11D858D90E0CA
:1001C00008958FEF9FEF0895FC01918D228D892F67
:1001D00090E0805C9F4F821B91098F73992708954F
:1001E00084E291E00E94E40021E0892B09F420E000
:1001F000822F0895FC01848DDF01A80FB11DA35A41
:10020000BF4F2C91848D90E001968F739927848F36
:10021000A689B7892C93A089B1898C9180648C932D
:10022000938D848D981306C00288F389E02D808118
:100230008F7D80830895EF92FF920F931F93CF934A
:10024000DF93EC0181E0888F9B8D8C8D981305C026
:10025000E889F989808185FD24C0F62E0B8D10E098
:100260000F5F1F4F0F731127E02E8C8DE8120CC00B
:100270000FB607FCFACFE889F989808185FFF5CFB1
:10028000CE010E94FA00F1CF8B8DFE01E80FF11D27
:10029000E35AFF4FF0820B8FEA89FB8980818062ED
:1002A00007C0EE89FF896083E889F98980818064CD
:1002B000808381E090E0DF91CF911F910F91FF90BB
:1002C000EF900895CF93DF93EC01888D8823C9F0D8
:1002D000EA89FB89808185FD05C0A889B9898C914F
:1002E00086FD0FC00FB607FCF5CF808185FFF2CFEA
:1002F000A889B9898C9185FFEDCFCE010E94FA00C3
:10030000E7CFDF91CF91089580E090E0892B29F02D
:100310000E94F00081110C94000008950E94410594
:100320001F920F920FB60F9211242F933F938F932A
:100330009F93AF93BF938091DF019091E001A091D3
:10034000E101B091E2013091DE0123E0230F2D376E
:1003500020F40196A11DB11D05C026E8230F0296C9
:10036000A11DB11D2093DE018093DF019093E00178
:10037000A093E101B093E2018091E3019091E40147
:10038000A091E501B091E6010196A11DB11D8093F8
:10039000E3019093E401A093E501B093E601BF91DE
:1003A000AF919F918F913F912F910F900FBE0F9022
:1003B0001F9018951F920F920FB60F9211242F9332
:1003C0003F934F935F936F937F938F939F93AF93DD
:1003D000BF93EF93FF9384E291E00E94FA00FF91B4
:1003E000EF91BF91AF919F918F917F916F915F91AD
:1003F0004F913F912F910F900FBE0F901F90189526
:100400001F920F920FB60F9211242F938F939F93E9
:10041000EF93FF93E0913401F09135018081E091F9
:100420003A01F0913B0182FD12C0908180913D0123
:100430008F5F8F7320913E01821751F0E0913D0153
:10044000F0E0EC5DFE4F958F80933D0101C080810F
:10045000FF91EF919F918F912F910F900FBE0F9071
:100460001F901895789484B5826084BD84B58160AE
:1004700084BD85B5826085BD85B5816085BD80916F
:100480006E00816080936E001092810080918100E7
:1004900082608093810080918100816080938100DF
:1004A000809180008160809380008091B1008460A1
:1004B0008093B1008091B00081608093B000809102
:1004C0007A00846080937A0080917A0082608093C1
:1004D0007A0080917A00816080937A0080917A001E
:1004E000806880937A001092C100E0913401F0910D
:1004F000350182E08083E0913001F091310110827A
:10050000E0913201F09133018FEC808310923C0135
:10051000E0913801F091390186E08083E091360165
:10052000F0913701808180618083E0913601F09104
:100530003701808188608083E0913601F091370136
:10054000808180688083E0913601F091370180815D
:100550008F7D80834EE050E062E171E084E291E0C3
:100560000E94840042E050E061E271E084E291E0A8
:100570000E948400812C912C90E8A92E9FEBB92E2B
:1005800080E090E0A0E8BFE38093DA019093DB0184
:10059000A093DC01B093DD018092D6019092D70147
:1005A000A092D801B092D9012091CE013091CF0113
:1005B0004091D0015091D10160E070E080E89FEB64
:1005C0000E9419046B017C012091D2013091D3016A
:1005D0004091D4015091D5010E941A042B013C0195
:1005E000A7019601C701B6010E941A049B01AC0144
:1005F000C301B2010E941A046B017C01CB01D70137
:100600008093CA019093CB01A093CC01B093CD010C
:1006100020E030E04AE754E4B601C7010E94360505
:1006200018167CF020E030E04AE754ECB601C70130
:100630000E94860487FD0AC05C2D4D2D3E2D2F2D76
:1006400009C050E040E03AE724E404C050E040E054
:100650003AE724EC852F942FA32FB22F8093C60165
:100660009093C701A093C801B093C901652F742F5F
:10067000832F922F0E948B049B01AC01245F314099
:1006800041095109AFEFB0E00E94DD0328E13CEFE2
:100690004FEF5FEF0E94BE032093C5018092CE0111
:1006A0009092CF01A092D001B092D101C601D701A2
:1006B0008093D2019093D301A093D401B093D5013C
:1006C0001092C1011092C2011092C3011092C40194
:1006D0000E945F002B013C0184E1C82ED12CE12C4B
:1006E000F12C0E945F00DC01CB0184199509A60959
:1006F000B709883E9340A105B10558F091E0C91AA9
:10070000D108E108F108A8EE4A0EA3E05A1E611CC8
:10071000711CC114D104E104F10419F70E94840191
:100720002FCFE4E2F1E01382128288EE93E0A0E0A2
:10073000B0E084839583A683B78384E091E09183BE
:10074000808385EC90E09587848784EC90E09787A0
:10075000868780EC90E0918B808B81EC90E0938B8E
:10076000828B82EC90E0958B848B86EC90E0978B6B
:10077000868B118E128E138E148E0895052E97FB84
:100780001EF400940E94D50357FD07D00E94E80391
:1007900007FC03D04EF40C94D5035095409530954A
:1007A00021953F4F4F4F5F4F0895909580957095DD
:1007B00061957F4F8F4F9F4F08950E940A04A59F18
:1007C000900DB49F900DA49F800D911D112408954C
:1007D000A1E21A2EAA1BBB1BFD010DC0AA1FBB1F45
:1007E000EE1FFF1FA217B307E407F50720F0A21BB7
:1007F000B30BE40BF50B661F771F881F991F1A9424
:1008000069F760957095809590959B01AC01BD014D
:10081000CF010895A29FB001B39FC001A39F700DA7
:10082000811D1124911DB29F700D811D1124911DF8
:1008300008955058BB27AA270E9431040C94FC0449
:100840000E94EE0438F00E94F50420F039F49F3F36
:1008500019F426F40C94EB040EF4E095E7FB0C94E9
:10086000E504E92F0E940D0558F3BA1762077307D4
:100870008407950720F079F4A6F50C942F050EF463
:10088000E0950B2EBA2FA02D0B01B90190010C01A0
:10089000CA01A0011124FF27591B99F0593F50F4B8
:1008A000503E68F11A16F040A22F232F342F442710
:1008B000585FF3CF469537952795A795F040539508
:1008C000C9F77EF41F16BA0B620B730B840BBAF0D8
:1008D0009150A1F0FF0FBB1F661F771F881FC2F743
:1008E0000EC0BA0F621F731F841F48F48795779557
:1008F0006795B795F7959E3F08F0B0CF9395880F11
:1009000008F09927EE0F9795879508950E94C104E6
:1009100008F481E008950E9492046894B1110C9447
:10092000300508950E94150588F09F5798F0B92F5B
:100930009927B751B0F0E1F0660F771F881F991F14
:100940001AF0BA95C9F714C0B13091F00E942F0582
:10095000B1E008950C942F05672F782F8827B85F92
:1009600039F0B93FCCF3869577956795B395D9F76C
:100970003EF490958095709561957F4F8F4F9F4F76
:100980000895990F0008550FAA0BE0E8FEEF161620
:100990001706E807F907C0F012161306E407F50773
:1009A00098F0621B730B840B950B39F40A2661F0E7
:1009B000232B242B252B21F408950A2609F4A1408A
:1009C000A6958FEF811D811D089597F99F6780E897
:1009D00070E060E008959FEF80EC089500240A9491
:1009E0001616170618060906089500240A9412160A
:1009F0001306140605060895092E0394000C11F43D
:100A0000882352F0BB0F40F4BF2B11F460FF04C0E9
:100A10006F5F7F4F8F4F9F4F089557FD9058440F42
:100A2000551F59F05F3F71F04795880F97FB991F4D
:100A300061F09F3F79F0879508951216130614060A
:100A4000551FF2CF4695F1DF08C016161706180697
:100A5000991FF1CF86957105610508940895E89472
:100A6000BB2766277727CB0197F908950E94C10419
:100A700008F48FEF0895EE0FFF1F0590F491E02D1D
:100A8000099481E090E0F8940C944605F894FFCF27
:100A9000000000001B018400B3006201E400C200FA
:100AA000D60073657269616C20656E61626C656405
:040AB000000D0A002B
:00000001FF
