:100000000C9435000C945D000C945D000C945D0024
:100010000C945D000C945D000C945D000C945D00EC
:100020000C945D000C945D000C945D000C945D00DC
:100030000C945D000C945D000C945D000C945D00CC
:100040000C94A2010C945D000C9412020C94EC012F
:100050000C945D000C945D000C945D000C945D00AC
:100060000C945D000C945D008F0311241FBECFEF34
:10007000D8E0DEBFCDBF11E0A0E0B1E0E0E4F8E001
:1000800002C005900D92A032B107D9F721E0A0E29D
:10009000B1E001C01D92AC3CB207E1F710E0C5E34E
:1000A000D0E004C02197FE010E941304C433D1079D
:1000B000C9F70E9444020C941E040C9400003FB740
:1000C000F89480912B0190912C01A0912D01B09179
:1000D0002E0126B5A89B05C02F3F19F00196A11D42
:1000E000B11D3FBFBA2FA92F982F8827820F911DCE
:1000F000A11DB11DBC01CD0142E0660F771F881F15
:10010000991F4A95D1F70895CF92DF92EF92FF920F
:100110000F931F93CF93DF936C017A018B01C0E0A3
:10012000D0E0CE15DF0589F0D8016D918D01D601A3
:10013000ED91FC910190F081E02DC6010995892B8C
:1001400011F47E0102C02196ECCFC701DF91CF915F
:100150001F910F91FF90EF90DF90CF900895089539
:1001600080E090E00895FC01538D448D252F30E010
:10017000842F90E0821B930B541710F0CF960895B4
:1001800001970895FC01918D828D981761F0828D01
:10019000DF01A80FB11D5D968C91928D9F5F9F73BB
:1001A000928F90E008958FEF9FEF0895FC01918D5D
:1001B000828D981731F0828DE80FF11D858D90E0CA
:1001C00008958FEF9FEF0895FC01918D228D892F67
:1001D00090E0805C9F4F821B91098F73992708954F
:1001E0008FE291E00E94E40021E0892B09F420E0F5
:1001F000822F0895FC01848DDF01A80FB11DA35A41
:10020000BF4F2C91848D90E001968F739927848F36
:10021000A689B7892C93A089B1898C9180648C932D
:10022000938D848D981306C00288F389E02D808118
:100230008F7D80830895EF92FF920F931F93CF934A
:10024000DF93EC0181E0888F9B8D8C8D981305C026
:10025000E889F989808185FD24C0F62E0B8D10E098
:100260000F5F1F4F0F731127E02E8C8DE8120CC00B
:100270000FB607FCFACFE889F989808185FFF5CFB1
:10028000CE010E94FA00F1CF8B8DFE01E80FF11D27
:10029000E35AFF4FF0820B8FEA89FB8980818062ED
:1002A00007C0EE89FF896083E889F98980818064CD
:1002B000808381E090E0DF91CF911F910F91FF90BB
:1002C000EF900895CF93DF93EC01888D8823C9F0D8
:1002D000EA89FB89808185FD05C0A889B9898C914F
:1002E00086FD0FC00FB607FCF5CF808185FFF2CFEA
:1002F000A889B9898C9185FFEDCFCE010E94FA00C3
:10030000E7CFDF91CF91089580E090E0892B29F02D
:100310000E94F00081110C9400000895009769F08C
:10032000FC0101900020E9F73197AF01481B590B00
:10033000BC018FE291E00C94840080E090E008958D
:100340000E9419041F920F920FB60F9211242F933F
:100350003F938F939F93AF93BF9380912701909189
:100360002801A0912901B0912A013091260123E0B2
:10037000230F2D3720F40196A11DB11D05C026E8DD
:10038000230F0296A11DB11D209326018093270102
:1003900090932801A0932901B0932A0180912B0109
:1003A00090912C01A0912D01B0912E010196A11DDB
:1003B000B11D80932B0190932C01A0932D01B0933C
:1003C0002E01BF91AF919F918F913F912F910F90EF
:1003D0000FBE0F901F9018951F920F920FB60F929D
:1003E00011242F933F934F935F936F937F938F933A
:1003F0009F93AF93BF93EF93FF938FE291E00E949F
:10040000FA00FF91EF91BF91AF919F918F917F91F2
:100410006F915F914F913F912F910F900FBE0F9071
:100420001F9018951F920F920FB60F9211242F93C1
:100430008F939F93EF93FF93E0913F01F0914001E1
:100440008081E0914501F091460182FD12C09081CA
:10045000809148018F5F8F7320914901821751F07D
:10046000E0914801F0E0E15DFE4F958F80934801F7
:1004700001C08081FF91EF919F918F912F910F90FB
:100480000FBE0F901F901895CF93DF93CDB7DEB7B7
:10049000A1970FB6F894DEBF0FBECDBF789484B598
:1004A000826084BD84B5816084BD85B5826085BD70
:1004B00085B5816085BD80916E00816080936E00FE
:1004C00010928100809181008260809381008091F0
:1004D00081008160809381008091800081608093A1
:1004E00080008091B10084608093B1008091B00061
:1004F00081608093B00080917A00846080937A005C
:1005000080917A00826080937A0080917A00816085
:1005100080937A0080917A00806880937A001092AC
:10052000C100E0913F01F091400182E08083E091C1
:100530003B01F0913C011082E0913D01F0913E01C0
:1005400080E1808310924701E0914301F0914401E2
:1005500086E08083E0914101F091420180818061D9
:100560008083E0914101F091420180818860808325
:10057000E0914101F0914201808180688083E091A7
:100580004101F091420180818F7D80839AE0C92EE4
:10059000D12CE12CF12C8FE291E00E94E400892B18
:1005A00009F444C08FE291E00E94E400892BF1F14C
:1005B0008FE291E00E94C200909323018093220178
:1005C0008B32910521F08D32910559F012C0809146
:1005D000240190912501843F21E0920739F1019691
:1005E00021C080912401909125010097F9F0019795
:1005F00019C0DC01D097AA30B105C0F4B093210135
:10060000A093200126E930E00E940C0429E030E0AC
:1006100040E050E00E94BC03DA01C90188539F4FBB
:10062000AF4FBF4F909325018093240182E191E069
:100630000E948E014090240150902501052C000C51
:100640006608770877FE26C0E0912F01F09130010F
:100650000190F081E02D6DE28FE291E00995222773
:100660003327A901241935094609570919A28E0112
:100670000F5D1F4FCA01B901A70196010E94DB035C
:10068000605DF80162938F01211531054105510527
:1006900089F715C0A301920119A28E010F5D1F4FAA
:1006A000CA01B901A70196010E94DB03605DF80150
:1006B00062938F01211531054105510589F7C80164
:1006C0000E948E018DE191E00E948E010E945F00E8
:1006D0004B015C0184E6482E512C612C712C0E9448
:1006E0005F00DC01CB0188199909AA09BB09883E82
:1006F0009340A105B10558F0F1E04F1A5108610887
:10070000710828EE820E23E0921EA11CB11C411438
:1007100051046104710419F70E9484013CCFEFE297
:10072000F1E01382128288EE93E0A0E0B0E08483CF
:100730009583A683B78384E091E09183808385ECE1
:1007400090E09587848784EC90E09787868780EC9B
:1007500090E0918B808B81EC90E0938B828B82EC8C
:1007600090E0958B848B86EC90E0978B868B118E36
:10077000128E138E148E0895052E97FB1EF400948E
:100780000E94D30357FD07D00E94DB0307FC03D070
:100790004EF40C94D30350954095309521953F4FDE
:1007A0004F4F5F4F089590958095709561957F4F5D
:1007B0008F4F9F4F0895A1E21A2EAA1BBB1BFD016C
:1007C0000DC0AA1FBB1FEE1FFF1FA217B307E40730
:1007D000F50720F0A21BB30BE40BF50B661F771F88
:1007E000881F991F1A9469F7609570958095909568
:1007F0009B01AC01BD01CF010895A29FB001B39F41
:10080000C001A39F700D811D1124911DB29F700D19
:10081000811D1124911D08950E94FD03B7FF0895C5
:10082000821B930B0895EE0FFF1F0590F491E02DAE
:10083000099481E090E0F8940C941E04F894FFCFA2
:10084000000000001B018400B3006201E400C2004C
:10085000D600646174615365743A0909000D0A0099
:00000001FF
