:1000000019C1000048C1000046C1000044C1000001
:1000100042C1000040C100003EC100003CC10000E0
:100020003AC1000038C1000036C1000034C10000F0
:1000300032C1000030C100002EC100002CC1000000
:100040002AC1000028C1000026C1000024C1000010
:1000500010C5000020C100001EC1000061C40000E6
:100060001AC10000D0C40000A5C4000014C10000E3
:1000700012C1000010C100000EC100000CC1000040
:100080000AC1000008C1000006C1000004C1000050
:1000900002C1000000C10000FEC0000015C5000044
:1000A000FAC00000F8C00000F6C00000F4C0000074
:1000B000F2C00000F0C00000EEC00000ECC0000084
:1000C000EAC00000E8C00000E6C00000E4C0000094
:1000D000E2C00000E0C00000DEC00000DCC00000A4
:1000E000DAC0000042044504340438043C047C04B3
:1000F00049044D04530457045B0461046504690416
:100100007C046F0473047704FA07FF0704080E08E1
:100110001808910822082A0832083C0846085008A6
:100120005F086908910873087D08870800000A0BBA
:1001300002090C0D0E080703040100000000000076
:1001400000000000000000000000000000000000AF
:10015000000000000000000012111000000000006C
:10016000000000000000000000000000000000008F
:10017000000000002200250028002B002E00310086
:10018000340002010000050108010B0100002100FC
:10019000240027002A002D00300033000101000058
:1001A000040107010A0105050505070508080808F7
:1001B000020202020A0A08080404040401010101FF
:1001C00001010101030303030303030304070707FA
:1001D0000C0C0C0C0C0C0C0C02020202060606069F
:1001E000060606060B0B0B0B0B0B0B0B010210206C
:1001F000200808102040102040800201020108045D
:1002000002010102040810204080804020100804F0
:100210000201800402018040201008040201080449
:10022000020101020408102040800102040810208D
:100230004080F50C11241FBECFEFD1E2DEBFCDBF51
:1002400000E00CBF12E0A0E0B2E0ECEDFFE100E066
:100250000BBF02C007900D92AE33B107D9F723E070
:10026000AEE3B2E001C01D92A53DB207E1F711E097
:10027000CAE1D1E000E006C021970109802FFE010C
:100280000E94CC0FC931D10780E00807A9F70E946E
:10029000C1090C94EC0FB4CE3FB7F8948091B4022E
:1002A0009091B502A091B602B091B70226B5A89B75
:1002B00005C02F3F19F00196A11DB11D3FBFBA2FF8
:1002C000A92F982F8827820F911DA11DB11DBC0158
:1002D000CD0142E0660F771F881F991F4A95D1F71D
:1002E00008958F929F92AF92BF92CF92DF92EF923A
:1002F000FF926B017C01D0DF4B015C01C114D10482
:10030000E104F104E9F0C8DFDC01CB0188199909A7
:10031000AA09BB09883E9340A105B10578F321E005
:10032000C21AD108E108F10888EE880E83E0981E11
:10033000A11CB11CC114D104E104F10421F7DECFEA
:10034000FF90EF90DF90CF90BF90AF909F908F90F5
:100350000895CF92DF92EF92FF920F931F93CF9366
:10036000DF936C017A018B01C0E0D0E0CE15DF0590
:1003700089F0D8016D918D01D601ED91FC9101902C
:10038000F081E02DC6011995892B11F47E0102C080
:100390002196ECCFC701DF91CF911F910F91FF9074
:1003A000EF90DF90CF900895FC01538D448D252F61
:1003B00030E0842F90E0821B930B541710F0CF96FF
:1003C000089501970895FC01918D828D981761F031
:1003D000828DDF01A80FB11D5D968C91928D9F5F7C
:1003E0009F73928F90E008958FEF9FEF0895FC0127
:1003F000918D828D981731F0828DE80FF11D858DDA
:1004000090E008958FEF9FEF0895FC01918D228D6C
:10041000892F90E0805C9F4F821B91098F739927F1
:10042000089585E293E0F1DF21E0892B09F420E0D3
:10043000822F0895FC01848DDF01A80FB11DA35AFE
:10044000BF4F2C91848D90E001968F739927848FF4
:10045000A689B7892C93A089B1898C9180648C93EB
:10046000938D848D981306C00288F389E02D8081D6
:100470008F7D80830895EF92FF920F931F93CF9308
:10048000DF93EC0181E0888F9B8D8C8D981305C0E4
:10049000E889F989808185FD23C0F62E0B8D10E057
:1004A0000F5F1F4F0F731127E02E8C8DE8120BC0CA
:1004B0000FB607FCFACFE889F989808185FFF5CF6F
:1004C000CE01B8DFF2CF8B8DFE01E80FF11DE35AAC
:1004D000FF4FF0820B8FEA89FB898081806207C021
:1004E000EE89FF896083E889F9898081806480834F
:1004F00081E090E0DF91CF911F910F91FF90EF90FD
:100500000895CF93DF93EC01888D8823C1F0EA89A9
:10051000FB89808185FD05C0A889B9898C9186FDFC
:100520000EC00FB607FCF5CF808185FFF2CFA889FA
:10053000B9898C9185FFEDCFCE017CDFE8CFDF91CB
:10054000CF91089580E090E0892B19F06ADF811146
:1005500025C080E090E0892B41F080E090E0892B7D
:1005600021F00E94000081111CC080E090E0892BE6
:1005700041F080E090E0892B21F00E940000811181
:1005800013C080E090E0892BA1F080E090E0892BFF
:1005900081F00E94000081110AC008950E940000AD
:1005A000D8CF0E940000E1CF0E940000EACF0C9457
:1005B000000008950895E091B9028091B802E8170B
:1005C00030F4F0E0E654FD4F808190E008958FEF25
:1005D0009FEF08959091B9028091B802981750F456
:1005E000E92FF0E0E654FD4F208130E09F5F9093CB
:1005F000B90202C02FEF3FEFC90108958091B80200
:1006000090E02091B902821B91090895089580E03D
:1006100090E0089585ED8093BC008091BC0084FD3E
:10062000FCCF10920003089540916402262F30E021
:10063000240F311D21323105DCF4209100032430D8
:10064000C9F4FC0180E090E0861758F43091640210
:100650002191DC01AE5BBD4FA30FB11D2C93019620
:10066000F3CF80916402680F6093640280E0089584
:1006700081E0089582E00895CF92DF92EF92FF9299
:100680000F931F93CF93DF937C01262F972F8A011F
:1006900080910103882391F0C62FD72F6E01C40EDD
:1006A000D51ECC15DD0569F06991D701ED91FC915E
:1006B0000190F081E02DC7011995F3CF642F822FAF
:1006C000B3DFC801DF91CF911F910F91FF90EF90A1
:1006D000DF90CF900895CF93DF931F92CDB7DEB711
:1006E0006983209101032223D1F020912403203239
:1006F00040F021E030E0FC013383228380E090E091
:1007000014C080910203E82FF0E0ED5FFC4F998167
:1007100090838F5F809302038093240304C061E081
:10072000CE01019681DF81E090E00F90DF91CF91C3
:10073000089580913E0290913F02A0914002B091B5
:100740004102BC01CD016F5F7F4F8F4F9F4F609380
:100750003E0270933F02809340029093410221E059
:100760002093AE022093A2022093A70220E530E05E
:1007700040E050E00E94370D672B682B692B09F58C
:1007800020E030E045E353E46091A3027091A402BD
:100790008091A5029091A6020E94F30D882329F072
:1007A00080E090E0A5E3B3E404C080E090E0ADE138
:1007B000B3E48093A3029093A402A093A502B09304
:1007C000A60208958093D003E82FF0E0EE0FFF1FFC
:1007D000E050FE4F6081718186E990E0A9D580915B
:1007E000D1036091D0030E94AD0F682F84E290E0A6
:1007F00070D56091D00370E084E190E00E94B90F61
:1008000081E290E066D58DE290E038D58E7F61E0A0
:100810009091D003913009F060E0682B8DE290E078
:1008200058C50E94E80F362F90E0FC01E45DFE4FB2
:100830004491FC01E451FE4F2491FC01EA55FE4F26
:100840009491992309F46BC0442309F455C050E0F6
:10085000FA013197E231F10508F04EC08827EE58D1
:10086000FF4F8F4F0C94CC0F809180008F7707C083
:10087000809180008F7D03C080918000877F80936E
:1008800080003AC084B58F7702C084B58F7D84BD67
:1008900033C08091B0008F7703C08091B0008F7D0E
:1008A0008093B00029C0809190008F7707C080911D
:1008B00090008F7D03C080919000877F809390008F
:1008C0001BC08091A0008F7707C08091A0008F7D12
:1008D00003C08091A000877F8093A0000DC080910D
:1008E00020018F7707C0809120018F7D03C0809108
:1008F0002001877F80932001E92FF0E0EE0FFF1F9A
:10090000EE58FE4FA591B4918FB7F894EC91311148
:1009100003C020952E2301C02E2B2C938FBF08954A
:100920001F920F920FB60F9211242F933F938F9324
:100930009F93AF93BF938091B0029091B102A09129
:10094000B202B091B3023091AF0223E0230F2D37F2
:1009500020F40196A11DB11D05C026E8230F0296C3
:10096000A11DB11D2093AF028093B0029093B102FC
:10097000A093B202B093B3028091B4029091B502F9
:10098000A091B602B091B7020196A11DB11D80934E
:10099000B4029093B502A093B602B093B702BF9190
:1009A000AF919F918F913F912F910F900FBE0F901C
:1009B0001F9018951F920F920FB60F9211240BB62D
:1009C0000F922F933F934F935F936F937F938F93E8
:1009D0009F93AF93BF93EF93FF9385E293E02ADD5C
:1009E000FF91EF91BF91AF919F918F917F916F9107
:1009F0005F914F913F912F910F900BBE0F900FBEC3
:100A00000F901F9018951F920F920FB60F921124FE
:100A10000BB60F922F938F939F93EF93FF93E091D9
:100A20003503F09136038081E0913B03F0913C0364
:100A300082FD12C0908180913E038F5F8F73209161
:100A40003F03821751F0E0913E03F0E0EB5DFC4F75
:100A5000958F80933E0301C08081FF91EF919F911C
:100A60008F912F910F900BBE0F900FBE0F901F9084
:100A700018951F920F920FB60F9211240BB60F927A
:100A80002F933F934F935F936F937F938F939F9396
:100A9000AF93BF93EF93FF93E0918902F0918A02A5
:100AA0001995FF91EF91BF91AF919F918F917F9198
:100AB0006F915F914F913F912F910F900BBE0F90CF
:100AC0000FBE0F901F9018951F920F920FB60F92A6
:100AD00011240BB60F922F933F934F935F936F9315
:100AE0007F938F939F93AF93BF93EF93FF938091E7
:100AF000B900887F803609F49CC068F5883209F413
:100B00005BC090F4803109F454C038F4882309F4B0
:100B1000F6C0883009F44DC0F5C0883109F44CC0E6
:100B2000803209F45DC0EEC0803409F468C048F436
:100B3000803309F455C0883309F0E4C08093FE0285
:100B4000D8C0803509F44FC0883509F45DC08834B9
:100B500009F0D8C0D6C0883909F4C7C0A8F48837CE
:100B600009F467C038F4883609F463C0803709F4A3
:100B700060C0C8C0883809F4B8C0803909F45FC0C3
:100B8000803809F0BFC05BC0803B09F486C038F4F0
:100B9000803A09F466C0883A09F47FC0B3C0803C4B
:100BA00009F4A7C0883C09F4A4C0883B09F48AC0B2
:100BB000A9C08091DB0210C09091FD028091FC02DF
:100BC000981770F5E091FD0281E08E0F8093FD0291
:100BD000F0E0E452FD4F80818093BB0085EC86C03D
:100BE0008093FE028EC0E091FD0281E08E0F809323
:100BF000FD028091BB00F0E0E452FD4F80839091B4
:100C0000FD028091FC026EC0E091FD0281E08E0F3A
:100C10008093FD028091BB00F0E0E452FD4F8083A1
:100C20008091FF0281116DC081E08093DA0284EA35
:100C300061C083E08093000310928802CFCF80913F
:100C40008802803208F051C0E091880281E08E0F66
:100C5000809388028091BB00F0E0E859FD4F8083CB
:100C6000BDCF85EC8093BC00109200038091880278
:100C7000803230F4E0918802F0E0E859FD4F1082B4
:100C80006091880270E0E0916602F091670288E668
:100C900092E019951092880235C084E08093000399
:100CA0001092650210926402E0916202F091630278
:100CB000199580916402811105C081E080936402DE
:100CC00010924202E091650281E08E0F80936502EE
:100CD000F0E0EE5BFD4F80818093BB009091650258
:100CE00080916402981708F479CF85E88093BC005E
:100CF00009C085EC8093BC001092000303C01092E1
:100D0000FE0288DCFF91EF91BF91AF919F918F918F
:100D10007F916F915F914F913F912F910F900BBEFB
:100D20000F900FBE0F901F901895009761F0FC0177
:100D300001900020E9F73197AF01481B590BBC0126
:100D400085E293E006CB80E090E008958F929F9239
:100D5000AF92BF920F931F93CF93DF93CDB7DEB7C0
:100D6000A1970FB6F894DEBF0FBECDBF19A24230D7
:100D700008F44AE08E010F5D1F4F842E912CA12CA8
:100D8000B12CA501940199D6E62FB901CA010150F1
:100D90001109EA3014F4E05D01C0E95CD801EC937C
:100DA000232B242B252B69F7C801BFDFA1960FB693
:100DB000F894DEBF0FBECDBFDF91CF911F910F9191
:100DC000BF90AF909F908F9008954F925F926F92D7
:100DD0007F928F929F92AF92BF92CF92DF92EF92CB
:100DE000FF926B017C01B42E9B01AC010E94A90F04
:100DF000882319F081E392E026C026013701E894A8
:100E000077F82FEF3FEF4FE75FE7C301B2010E9492
:100E1000A90F81110CC02FEF3FEF4FE75FE7C30130
:100E2000B201E1D618161CF485E392E00CC02FEF56
:100E30003FEF4FE75FE4C701B6010E94420F18166B
:100E40007CF489E392E0FF90EF90DF90CF90BF9029
:100E5000AF909F908F907F906F905F904F9065CFF5
:100E60002FEF3FEF4FE75FECC701B601BCD687FD20
:100E7000E8CF20E030E0A901C701B601B4D687FF72
:100E800011C0E0912503F09126030190F081E02D3F
:100E90006DE285E293E019954C01F7FAF094F7F8CA
:100EA000F09402C0812C912CA12C60E070E080E0D5
:100EB0009FE3AB1439F020E030E040E251E497D6F4
:100EC000A394F7CF9B01AC01C701B60128D62B0133
:100ED0003C01FAD66B017C0123D79B01AC01C30115
:100EE000B2011CD62B013C014AE0C701B6012EDF3E
:100EF0007C01E80CF91CBB2069F0E0912503F0911E
:100F000026030190F081E02D6EE285E293E01995D1
:100F1000E80EF91EDB2CDD20F9F020E030E040E2A5
:100F200051E4C301B201B2D72B013C01CDD64B0134
:100F3000A12CB12C4AE0C501B40108DFE80EF91E6E
:100F4000C501B401EDD69B01AC01C301B201E6D5E8
:100F50002B013C01DA94DFCFC701FF90EF90DF90C7
:100F6000CF90BF90AF909F908F907F906F905F9049
:100F70004F90089590E0FC01E451FE4F2491FC0154
:100F8000EA55FE4F8491882399F090E0880F991FCD
:100F9000FC01E457FE4FA591B491FC01EE58FE4FC1
:100FA000859194918FB7F894EC91E22BEC938FBFDD
:100FB0000895CF93DF93EC0184E0DCDF209711F4F8
:100FC00060E004C0CF3FD10529F461E084E0DF9107
:100FD000CF9129CCE0E3F1E0E4918E2F90E0FC0189
:100FE0003197E231F10508F09CC08827EC57FF4F9C
:100FF0008F4FD2C784B5806884BDC7BD97C084B504
:10100000806284BDC8BD92C080918000806880935A
:101010008000D0938900C093880088C080918000B0
:10102000806280938000D0938B00C0938A007EC042
:1010300080918000886080938000D0938D00C09361
:101040008C0074C08091B00080688093B000C09321
:10105000B3006CC08091B00080628093B000C093F8
:10106000B40064C080919000806880939000D09319
:101070009900C09398005AC080919000806280933C
:101080009000D0939B00C0939A0050C08091900034
:10109000886080939000D0939D00C0939C0046C0D0
:1010A0008091A00080688093A0008091A0008F7B39
:1010B0008093A000D093A900C093A80037C080916E
:1010C000A00080628093A000D093AB00C093AA00E0
:1010D0002DC08091A00088608093A000D093AD00C7
:1010E000C093AC0023C080912001806880932001D0
:1010F000D0932901C093280119C0809120018062FA
:1011000080932001D0932B01C0932A010FC08091BE
:101110002001886080932001D0932D01C0932C0181
:1011200005C0C038D1050CF050CF4ACFDF91CF9128
:1011300008952091240390912303213208F04AC09E
:10114000809100038111FCCF32E03093000331E045
:101150003093FF023FEF3093FE021092FD02209386
:10116000FC02A3E0B3E04CED52E0FA013E2F341B49
:10117000321718F43D913193F9CF1092DB02209190
:10118000DB02990F922B9093DB029091DA0291305F
:1011900061F41092DA029091DB029093BB0090917F
:1011A000BC0093FDF8CF95EC01C095EE9093BC0088
:1011B000909100039230E1F39091FE029F3F79F00D
:1011C0008091FE02803241F08091FE02803331F046
:1011D00084E005C081E003C082E001C083E010929A
:1011E00002031092240310920103089590910003CA
:1011F0009111FCCF91E0909300039093FF022FEFA9
:101200002093FE021092FD02260F2093FC02909381
:10121000DB029091DB02880F892B8093DB028091A7
:10122000DA02813061F41092DA028091DB0280935D
:10123000BB008091BC0083FDF8CF85EC01C085EE3A
:101240008093BC00809100038130E1F38091FD0226
:10125000861710F46091FD02ACEDB2E02AEB32E0AB
:10126000F9018E2F821B861718F48D918193F9CF87
:10127000862F0895682F82EC93E02DCA0F931F9359
:10128000CF93DF938C01CEECD3E0898191E09093F2
:101290000103809323031092020310922403812FF1
:1012A00090E0E8DFC8019927E5DF43DF888361E04C
:1012B00089819CDF1092B9028093B80282EC93E09E
:1012C00089D9C82F36DF8C2FDF91CF911F910F91D5
:1012D0000895EF92FF920F931F93CF93DF931F9286
:1012E000CDB7DEB78C018EECE82E83E0F82EF70147
:1012F000818191E090930103809323031092020374
:1013000010922403812F90E06983B4DFC8019927EC
:10131000B1DF698182EC93E0DED90BDFF7018083D6
:101320000F90DF91CF911F910F91FF90EF90089553
:10133000EF92FF920F931F93CF93DF937C018B016A
:10134000CEECD3E0898191E0909301038093230355
:1013500010920203109224038F2D90E08BDFC701BF
:10136000992788DF812F90E085DFC801992782DFE8
:10137000E0DE8883DF91CF911F910F91FF90EF9076
:101380000895789484B5826084BD84B5816084BDFD
:1013900085B5826085BD85B5816085BD80916E0013
:1013A000816080936E001092810080918100826044
:1013B0008093810080918100816080938100809181
:1013C00080008160809380008091B1008460809370
:1013D000B1008091B00081608093B0008091910055
:1013E0008260809391008091910081608093910050
:1013F000809190008160809390008091A100826034
:101400008093A1008091A10081608093A1008091D0
:10141000A00081608093A000809121018260809370
:10142000210180912101816080932101809120011F
:1014300081608093200180917A00846080937A009B
:1014400080917A00826080937A0080917A00816036
:1014500080937A0080917A00806880937A0010925D
:10146000C1008BE187DD8AE185DD84E083DD60E01A
:101470008BE1D9D961E08AE1D6D961E084E0D3D9A2
:10148000E0913503F0913603D2E0D083E09131034F
:10149000F09132031082E0913303F091340390E134
:1014A000908310923D03E0913903F0913A0386E076
:1014B0008083E0913703F0913803808180618083DD
:1014C000E0913703F0913803808188608083E09158
:1014D0003703F0913803808180688083E09137037F
:1014E000F091380380818F7D8083909381001092EA
:1014F0008000D0938D0288EA91E690938C028093CD
:101500008B02909387008093860082E18093810014
:1015100064E670E080E090E00E94710189E993E068
:1015200090938A0280938902C1E0C0936F00109269
:10153000B9021092B8021092020310922403109282
:101540000003C093FF021092DA0261E084E16BD9DC
:1015500061E085E168D98091B9008E7F8093B90000
:101560008091B9008D7F8093B90088E48093B800A2
:1015700085E48093BC0084E290E080DE8093D10318
:1015800086E190E07BDE813009F07FC08093D0035C
:1015900061E087E092E09DDE61E088E092E099DE24
:1015A00060E086E990E095DE6DEF87E990E091DEFE
:1015B00060E083EE90E08DDE64E084EE90E089DE12
:1015C00062E085EE90E085DE61E086EE90E081DE0F
:1015D00063E087EE90E07DDE62E085EF90E079DE0B
:1015E00065E089ED90E075DE6EEC8BED90E071DEEC
:1015F00063E08CED90E06DDE68EF8DED90E069DEEC
:1016000060E08FE990E065DE6CE383EA90E061DE04
:1016100060E087EB90E05DDE6CE38BEB90E059DE01
:1016200069E082EB90E055DE69E08AEC90E051DE03
:1016300061E088E991E04DDE67E180EB91E049DE11
:1016400060E08DEA91E045DE65E08FEF90E041DEFD
:1016500065E080E091E03DDE65E089E991E039DE1A
:101660006BE186EA91E035DE6EE38CEA91E031DEF3
:101670006FE187EA91E02DDE60E080E390E029DE13
:1016800060E086E190E025DE45C08091CF03C09305
:10169000010380932303109202031092240380E03D
:1016A00090E0E8DD86E990E0E5DD43DD8093CE0360
:1016B00062E08091CF039ADD1092B9028093B80264
:1016C00082EC93E00E94EA02F82E82EC93E00E9402
:1016D000EA0220E030E03F2D7901E82AF92A29DDED
:1016E00084E5E816F10421F483E08093D00309C077
:1016F0008FE7E816F10419F4D093D00302C0C09329
:10170000D0038091D0039091D103899F802D112423
:101710008093D10360E38AE091E0DBDD66E48FE350
:1017200090E0D7DD6FEF81E390E0D3DD63E670E01A
:1017300080E490E0FDDD61E08EE290E0CADD69E0EA
:101740008BE190E0C6DD61E38EE390E0C2DD64E210
:1017500084E190E0BEDD61E38CE190E0BADD60E021
:1017600083EA92E0B6DD81E02DD882E02BD880EFCD
:1017700090E01FDC6CEB72E080E090E00E94710171
:1017800080E090E0AEE3B3E48093A3029093A402E0
:10179000A093A502B093A60220E2422E23E0522E8F
:1017A000612C712C8091AE02882309F44EC01092F6
:1017B000AE02C091D00361E088E190E08ADD2FB7EE
:1017C000F8948091B0029091B102A091B202B091D0
:1017D000B3022FBF7C018FE490E050DD82FD1FC07B
:1017E0008091D2039091D303892BA9F32FB7F8945A
:1017F0008091B0029091B102A091B202B091B30277
:101800002FBF8E199F092091D2033091D30328173F
:10181000390708F781E08093D4032FEF09C082E6EF
:1018200090E02CDDF82E61E085E190E052DD2F2D77
:1018300030E0AC2FB0E063D173D26093AA02709312
:10184000AB028093AC029093AD028091A9028823F1
:1018500009F497C01092A9022091AA023091AB021C
:101860004091AC025091AD0260E070E0CB0156D1E6
:101870004B015C0160939E0270939F028093A002D3
:101880009093A10229E931E84AE05DE3FFD29B0190
:10189000AC0160919A0270919B0280919C029091A0
:1018A0009D023CD16B017C0129E630E04FEE5CE308
:1018B000609196027091970280919802909199029E
:1018C000E5D29B01AC01C701B60129D16B017C01B6
:1018D0006093A3027093A4028093A5029093A60242
:1018E00020E030E048E454E4CDD2181684F020E043
:1018F00030E048E454ECC701B60175D187FF0DC054
:10190000C12CD12C88E4E82E84ECF82E06C0C12C22
:10191000D12C98E4E92E94E4F92EC0929202D09250
:101920009302E0929402F0929502C701B601C7D1EA
:101930009B01AC01A4EBB0E0B6D0A301920197D01B
:10194000DA01C901C296A11DB11D8093A80280923F
:10195000960290929702A0929802B0929902C09239
:101960009A02D0929B02E0929C02F0929D02109209
:101970008E0210928F02109290021092910290E0CB
:1019800018DB8091A702882369F01092A70260916A
:10199000A3027091A4028091A5029091A6028FD11A
:1019A000CB0107DB8091A2028823E1F01092A20212
:1019B0006091A3027091A4028091A5029091A60269
:1019C00042E003DA8CE292E0B0D96091AA02709111
:1019D000AB028091AC029091AD0242E0F6D98EE26A
:1019E00092E0A3D90E94A202DDCEE5E2F3E01382E9
:1019F000128288EE93E0A0E0B0E084839583A68312
:101A0000B7832CE032E03183208325EC30E035874A
:101A1000248724EC30E03787268720EC30E0318BB8
:101A2000208B21EC30E0338B228B22EC30E0358BA5
:101A3000248B26EC30E0378B268B118E128E138E82
:101A4000148EE2ECF3E01382128284839583A683E2
:101A5000B7838EE192E091838083EEECF3E089E23C
:101A60008183128213821582148216820895052EB4
:101A700097FB16F400940FD057FD05D01ED007FC3D
:101A800002D046F408C050954095309521953F4FBF
:101A90004F4F5F4F089590958095709561957F4F5A
:101AA0008F4F9F4F08952BD0A59F900DB49F900D01
:101AB000A49F800D911D11240895A1E21A2EAA1B46
:101AC000BB1BFD010DC0AA1FBB1FEE1FFF1FA217EE
:101AD000B307E407F50720F0A21BB30BE40BF50BEB
:101AE000661F771F881F991F1A9469F76095709574
:101AF000809590959B01AC01BD01CF010895A29FF7
:101B0000B001B39FC001A39F700D811D1124911DD1
:101B1000B29F700D811D1124911D08955058BB274F
:101B2000AA270ED075C166D130F06BD120F031F408
:101B30009F3F11F41EF45BC10EF4E095E7FB51C129
:101B4000E92F77D180F3BA176207730784079507E7
:101B500018F071F49EF58FC10EF4E0950B2EBA2F9C
:101B6000A02D0B01B90190010C01CA01A0011124A3
:101B7000FF27591B99F0593F50F4503E68F11A164F
:101B8000F040A22F232F342F4427585FF3CF4695E0
:101B900037952795A795F0405395C9F77EF41F1602
:101BA000BA0B620B730B840BBAF09150A1F0FF0FCC
:101BB000BB1F661F771F881FC2F70EC0BA0F621FB8
:101BC000731F841F48F4879577956795B795F795A8
:101BD0009E3F08F0B3CF9395880F08F09927EE0F3A
:101BE000979587950895D9D008F481E008950CD091
:101BF0000FC107D140F0FED030F021F45F3F19F063
:101C0000F0C0511139C1F3C014D198F39923C9F32D
:101C10005523B1F3951B550BBB27AA2762177307F2
:101C2000840738F09F5F5F4F220F331F441FAA1FA6
:101C3000A9F333D00E2E3AF0E0E830D09150504066
:101C4000E695001CCAF729D0FE2F27D0660F771F14
:101C5000881FBB1F261737074807AB07B0E809F0F6
:101C6000BB0B802DBF01FF2793585F4F2AF09E3F8B
:101C7000510568F0B6C000C15F3FECF3983EDCF35D
:101C8000869577956795B795F7959F5FC9F7880F04
:101C9000911D9695879597F90895E1E0660F771F56
:101CA000881FBB1F621773078407BA0720F0621BE7
:101CB000730B840BBA0BEE1F88F7E095089504D0E0
:101CC0006894B111D9C00895BCD088F09F5790F0A6
:101CD000B92F9927B751A0F0D1F0660F771F881F51
:101CE000991F1AF0BA95C9F712C0B13081F0C3D06C
:101CF000B1E00895C0C0672F782F8827B85F39F00A
:101D0000B93FCCF3869577956795B395D9F73EF4AF
:101D100090958095709561957F4F8F4F9F4F089557
:101D2000E89409C097FB3EF4909580957095619575
:101D30007F4F8F4F9F4F9923A9F0F92F96E9BB272B
:101D40009395F695879577956795B795F111F8CFA7
:101D5000FAF4BB0F11F460FF1BC06F5F7F4F8F4F12
:101D60009F4F16C0882311F096E911C0772321F008
:101D70009EE8872F762F05C0662371F096E8862FA0
:101D800070E060E02AF09A95660F771F881FDAF7F7
:101D9000880F9695879597F90895990F0008550F24
:101DA000AA0BE0E8FEEF16161706E807F907C0F0E1
:101DB00012161306E407F50798F0621B730B840BE9
:101DC000950B39F40A2661F0232B242B252B21F4C3
:101DD00008950A2609F4A140A6958FEF811D811D63
:101DE000089597F99F6780E870E060E008959FEF9D
:101DF00080EC089500240A941616170618060906A2
:101E0000089500240A941216130614060506089570
:101E1000092E0394000C11F4882352F0BB0F40F4F8
:101E2000BF2B11F460FF04C06F5F7F4F8F4F9F4F38
:101E3000089557FD9058440F551F59F05F3F71F0BA
:101E40004795880F97FB991F61F09F3F79F0879521
:101E50000895121613061406551FF2CF4695F1DFAA
:101E600008C0161617061806991FF1CF869571053A
:101E7000610508940895E894BB2766277727CB016E
:101E800097F908958ADF08F48FEF08950BD0C0CF3B
:101E9000B1DF28F0B6DF18F0952309F0A2CFA7CF65
:101EA0001124EACFC6DFA0F3959FD1F3950F50E040
:101EB000551F629FF001729FBB27F00DB11D639FFC
:101EC000AA27F00DB11DAA1F649F6627B00DA11DA2
:101ED000661F829F2227B00DA11D621F739FB00D48
:101EE000A11D621F839FA00D611D221F749F3327B8
:101EF000A00D611D231F849F600D211D822F762F51
:101F00006A2F11249F5750408AF0E1F088234AF04D
:101F1000EE0FFF1FBB1F661F771F881F9150504099
:101F2000A9F79E3F510570F05CCFA6CF5F3FECF361
:101F3000983EDCF3869577956795B795F795E79585
:101F40009F5FC1F7FE2B880F911D9695879597F996
:101F5000089523DF880B990B0895991B79E004C03D
:101F6000991F961708F0961B881F7A95C9F78095D8
:101F7000089597FB072E16F4009406D077FD08D03D
:101F800013D007FC05D03EF4909581959F4F08959E
:101F9000709561957F4F0895EE0FFF1F881F8BBFCF
:101FA0000790F691E02D1994AA1BBB1B51E107C0C5
:101FB000AA1FBB1FA617B70710F0A61BB70B881FD9
:101FC000991F5A95A9F780959095BC01CD01089568
:0C1FD00081E090E0F89400C0F894FFCF8E
:101FDC000000FD007F005400000000003B02A9013E
:101FEC00D40181020502E301F701000000006B033C
:101FFC003C030703DA02FE02EA02DB0209000D0AC7
:0E200C00006E616E00696E66006F7666000001
:00000001FF
