:1000000019C1000047C1000045C1000043C1000004
:1000100041C100003FC100003DC100003BC10000E4
:1000200039C1000037C1000035C1000033C10000F4
:1000300031C100002FC100002DC100002BC1000004
:1000400029C1000027C1000025C1000023C1000014
:1000500090C300001FC100001DC100007FC7000049
:1000600019C1000050C3000025C3000013C10000E7
:1000700011C100000FC100000DC100000BC1000044
:1000800009C1000007C1000005C1000003C1000054
:1000900001C10000FFC00000FDC0000095C30000CA
:1000A000F9C00000F7C00000F5C00000F3C0000078
:1000B000F1C00000EFC00000EDC00000EBC0000088
:1000C000E9C00000E7C00000E5C00000E3C0000098
:1000D000E1C00000DFC00000DDC00000DBC00000A8
:1000E000D9C00000090B0E0B130B1D0B270BA00B27
:1000F000310B390B410B4B0B550B5F0B6E0B780B18
:10010000A00B820B8C0B960B3B073E072D0731078C
:1001100035077507420746074C07500754075A072B
:100120005E076207750768076C07700700000A0B17
:1001300002090C0D0E080703040100000000000076
:1001400000000000000000000000000000000000AF
:10015000000000000000000012111000000000006C
:10016000000000000000000000000000000000008F
:10017000000000002200250028002B002E00310086
:10018000340002010000050108010B0100002100FC
:10019000240027002A002D00300033000101000058
:1001A000040107010A0105050505070508080808F7
:1001B000020202020A0A08080404040401010101FF
:1001C00001010101030303030303030304070707FA
:1001D0000C0C0C0C0C0C0C0C02020202060606069F
:1001E000060606060B0B0B0B0B0B0B0B010210206C
:1001F000200808102040102040800201020108045D
:1002000002010102040810204080804020100804F0
:100210000201800402018040201008040201080449
:10022000020101020408102040800102040810208D
:1002300040805A0C11241FBECFEFD1E2DEBFCDBFEC
:1002400000E00CBF12E0A0E0B2E0EEECFDE100E067
:100250000BBF02C007900D92AC33B107D9F723E072
:10026000ACE3B2E001C01D92AB3CB207E1F711E094
:10027000CAE1D1E000E006C021970109802FFE010C
:100280000E94C50EC931D10780E00807A9F7B0D692
:100290000C94E50EB5CE80913D0290913E02A09166
:1002A0003F02B09140020196A11DB11D80933D0215
:1002B00090933E02A0933F02B093400281E080936E
:1002C000A40280939E0280933C0280939F02089533
:1002D000CF92DF92EF92FF920F931F93CF93DF9312
:1002E0006C017A018B01C0E0D0E0CE15DF0589F00A
:1002F000D8016D918D01D601ED91FC910190F081B5
:10030000E02DC6011995892B11F47E0102C02196BA
:10031000ECCFC701DF91CF911F910F91FF90EF902C
:10032000DF90CF900895FC01538D448D252F30E050
:10033000842F90E0821B930B541710F0CF960895F2
:1003400001970895FC01918D828D981761F0828D3F
:10035000DF01A80FB11D5D968C91928D9F5F9F73F9
:10036000928F90E008958FEF9FEF0895FC01918D9B
:10037000828D981731F0828DE80FF11D858D90E008
:1003800008958FEF9FEF0895FC01918D228D892FA5
:1003900090E0805C9F4F821B91098F73992708958D
:1003A00086E193E0F1DF21E0892B09F420E0822F40
:1003B0000895FC01848DDF01A80FB11DA35ABF4F22
:1003C0002C91848D90E001968F739927848FA68954
:1003D000B7892C93A089B1898C9180648C93938D7B
:1003E000848D981306C00288F389E02D80818F7D6B
:1003F00080830895EF92FF920F931F93CF93DF9323
:10040000EC0181E0888F9B8D8C8D981305C0E88965
:10041000F989808185FD23C0F62E0B8D10E00F5FDA
:100420001F4F0F731127E02E8C8DE8120BC00FB6F3
:1004300007FCFACFE889F989808185FFF5CFCE01E5
:10044000B8DFF2CF8B8DFE01E80FF11DE35AFF4FAD
:10045000F0820B8FEA89FB898081806207C0EE8978
:10046000FF896083E889F98980818064808381E0E5
:1004700090E0DF91CF911F910F91FF90EF90089541
:10048000CF93DF93EC01888D8823C1F0EA89FB8943
:10049000808185FD05C0A889B9898C9186FD0EC033
:1004A0000FB607FCF5CF808185FFF2CFA889B98907
:1004B0008C9185FFEDCFCE017CDFE8CFDF91CF912E
:1004C000089580E090E0892B19F06ADF811125C042
:1004D00080E090E0892B41F080E090E0892B21F0D2
:1004E0000E94000081111CC080E090E0892B41F047
:1004F00080E090E0892B21F00E940000811113C060
:1005000080E090E0892BA1F080E090E0892B81F0E1
:100510000E94000081110AC008950E940000D8CFF7
:100520000E940000E1CF0E940000EACF0C9400007E
:1005300008950895E091AA028091A902E81730F485
:10054000F0E0E555FD4F808190E008958FEF9FEF3B
:1005500008959091AA028091A902981750F4E92F6A
:10056000F0E0E555FD4F208130E09F5F9093AA02B7
:1005700002C02FEF3FEFC90108958091A90290E0DA
:100580002091AA02821B91090895089580E090E0CD
:10059000089585ED8093BC008091BC0084FDFCCF64
:1005A0001092F102089540916302262F30E0240F4B
:1005B000311D21323105DCF42091F1022430C9F4DF
:1005C000FC0180E090E0861758F43091630221919D
:1005D000DC01AF5BBD4FA30FB11D2C930196F3CF90
:1005E00080916302680F6093630280E0089581E068
:1005F000089582E00895CF92DF92EF92FF920F93D9
:100600001F93CF93DF937C01262F972F8A01809130
:10061000F202882391F0C62FD72F6E01C40ED51E8B
:10062000CC15DD0569F06991D701ED91FC91019040
:10063000F081E02DC7011995F3CF642F822FB3DF2E
:10064000C801DF91CF911F910F91FF90EF90DF9044
:10065000CF900895CF93DF931F92CDB7DEB7698314
:100660002091F2022223D1F020911503203240F094
:1006700021E030E0FC013383228380E090E014C06D
:100680008091F302E82FF0E0EC50FD4F99819083C8
:100690008F5F8093F3028093150304C061E0CE0165
:1006A000019681DF81E090E00F90DF91CF91089576
:1006B0000E94E10E1F920F920FB60F9211240BB6FB
:1006C0000F922F933F934F935F936F937F938F93EB
:1006D0009F93AF93BF93EF93FF9386E193E069DE1F
:1006E000FF91EF91BF91AF919F918F917F916F910A
:1006F0005F914F913F912F910F900BBE0F900FBEC6
:100700000F901F9018951F920F920FB60F92112401
:100710000BB60F922F938F939F93EF93FF93E091DC
:100720002603F09127038081E0912C03F0912D03A3
:1007300082FD12C0908180912F038F5F8F73209173
:100740003003821751F0E0912F03F0E0EA5EFC4F96
:10075000958F80932F0301C08081FF91EF919F912E
:100760008F912F910F900BBE0F900FBE0F901F9087
:1007700018951F920F920FB60F9211240BB60F927D
:100780002F933F934F935F936F937F938F939F9399
:10079000AF93BF93EF93FF93E0918802F0918902AA
:1007A0001995FF91EF91BF91AF919F918F917F919B
:1007B0006F915F914F913F912F910F900BBE0F90D2
:1007C0000FBE0F901F9018951F920F920FB60F92A9
:1007D00011240BB60F922F933F934F935F936F9318
:1007E0007F938F939F93AF93BF93EF93FF938091EA
:1007F000B900887F803609F49CC068F5883209F416
:100800005BC090F4803109F454C038F4882309F4B3
:10081000F6C0883009F44DC0F5C0883109F44CC0E9
:10082000803209F45DC0EEC0803409F468C048F439
:10083000803309F455C0883309F0E4C08093EF0297
:10084000D8C0803509F44FC0883509F45DC08834BC
:1008500009F0D8C0D6C0883909F4C7C0A8F48837D1
:1008600009F467C038F4883609F463C0803709F4A6
:1008700060C0C8C0883809F4B8C0803909F45FC0C6
:10088000803809F0BFC05BC0803B09F486C038F4F3
:10089000803A09F466C0883A09F47FC0B3C0803C4E
:1008A00009F4A7C0883C09F4A4C0883B09F48AC0B5
:1008B000A9C08091CC0210C09091EE028091ED020F
:1008C000981770F5E091EE0281E08E0F8093EE02B2
:1008D000F0E0E353FD4F80818093BB0085EC86C040
:1008E0008093EF028EC0E091EE0281E08E0F809344
:1008F000EE028091BB00F0E0E353FD4F80839091C6
:10090000EE028091ED026EC0E091EE0281E08E0F6A
:100910008093EE028091BB00F0E0E353FD4F8083B3
:100920008091F00281116DC081E08093CB0284EA56
:1009300061C083E08093F10210928702CFCF809153
:100940008702803208F051C0E091870281E08E0F6B
:10095000809387028091BB00F0E0E959FD4F8083CE
:10096000BDCF85EC8093BC001092F102809187028C
:10097000803230F4E0918702F0E0E959FD4F1082B7
:100980006091870270E0E0916502F091660287E66F
:1009900092E019951092870235C084E08093F102AD
:1009A0001092640210926302E0916102F09162027F
:1009B000199580916302811105C081E080936302E3
:1009C00010924102E091640281E08E0F80936402F4
:1009D000F0E0EF5BFD4F80818093BB00909164025B
:1009E00080916302981708F479CF85E88093BC0062
:1009F00009C085EC8093BC001092F10203C01092F4
:100A0000EF02C7DDFF91EF91BF91AF919F918F9161
:100A10007F916F915F914F913F912F910F900BBEFE
:100A20000F900FBE0F901F90189520911503909175
:100A30001403213208F04AC08091F1028111FCCFE9
:100A400032E03093F10231E03093F0023FEF309327
:100A5000EF021092EE022093ED02A4EFB2E04DEC13
:100A600052E0FA013E2F341B321718F43D913193B6
:100A7000F9CF1092CC022091CC02990F922B909337
:100A8000CC029091CB02913061F41092CB02909104
:100A9000CC029093BB009091BC0093FDF8CF95ECF5
:100AA00001C095EE9093BC009091F1029230E1F379
:100AB0009091EF029F3F79F08091EF02803241F0F8
:100AC0008091EF02803331F084E005C081E003C003
:100AD00082E001C083E01092F3021092150310929D
:100AE000F20208959091F1029111FCCF91E0909360
:100AF000F1029093F0022FEF2093EF021092EE029A
:100B0000260F2093ED029093CC029091CC02880F97
:100B1000892B8093CC028091CB02813061F41092BA
:100B2000CB028091CC028093BB008091BC0083FDFE
:100B3000F8CF85EC01C085EE8093BC008091F10276
:100B40008130E1F38091EE02861710F46091EE029D
:100B5000ADECB2E02BEA32E0F9018E2F821B861752
:100B600018F48D918193F9CF862F0895682F83EB28
:100B700093E070CD0F931F93CF93DF938C01CFEB56
:100B8000D3E0898191E09093F20280931403109254
:100B9000F30210921503812F90E0E8DFC801992736
:100BA000E5DF43DF888361E089819CDF1092AA0240
:100BB0008093A90283EB93E0CCDCC82F36DF8C2F27
:100BC000DF91CF911F910F910895EF92FF920F93B4
:100BD0001F93CF93DF931F92CDB7DEB78C018FEBBE
:100BE000E82E83E0F82EF701818191E09093F202E4
:100BF000809314031092F30210921503812F90E05A
:100C00006983B4DFC8019927B1DF698183EB93E081
:100C100021DD0BDFF70180830F90DF91CF911F91D2
:100C20000F91FF90EF90089590E0FC01E451FE4F8A
:100C30002491FC01EA55FE4F8491882399F090E0BD
:100C4000880F991FFC01E457FE4FA591B491FC0158
:100C5000EE58FE4F859194918FB7F894EC91E22B6A
:100C6000EC938FBF0895009761F0FC010190002084
:100C7000E9F73197AF01481B590BBC0186E193E0BE
:100C800027CB80E090E008958F929F92AF92BF9221
:100C90000F931F93CF93DF93CDB7DEB7A1970FB616
:100CA000F894DEBF0FBECDBF19A2423008F44AE06F
:100CB0008E010F5D1F4F842E912CA12CB12CA5010C
:100CC000940160D6E62FB901CA0101501109EA303A
:100CD00014F4E05D01C0E95CD801EC93232B242BD4
:100CE000252B69F7C801BFDFA1960FB6F894DEBFC8
:100CF0000FBECDBFDF91CF911F910F91BF90AF90ED
:100D00009F908F900895CF92DF92EF92FF92CF93B2
:100D1000DF936C01990FEE08FF08F7FE1EC0E0910B
:100D20001603F09117030190F081E02D6DE286E14A
:100D300093E01995EC0166277727CB016C197D09A3
:100D40008E099F094AE0A0DF8C0F9D1FDF91CF9194
:100D5000FF90EF90DF90CF9008954AE0C701B60171
:100D6000DF91CF91FF90EF90DF90CF908DCFEF92FA
:100D7000FF920F931F93CF93DF937C018B01CFEBF7
:100D8000D3E0898191E09093F20280931403109252
:100D9000F302109215038F2D90E0E8DEC70199272A
:100DA000E5DE812F90E0E2DEC8019927DFDE3DDE3F
:100DB0008883DF91CF911F910F91FF90EF9008955D
:100DC0008093C103E82FF0E0EE0FFF1FE45FFD4FBB
:100DD0006081718186E990E0CADF8091C2036091F1
:100DE000C103B4D7682F84E290E0EFDE6091C103C5
:100DF00070E084E190E0B6D781E290E0E6DE8DE23B
:100E000090E0B8DE8E7F61E09091C103913009F0EF
:100E100060E0682B8DE290E0D8CE362F90E0FC01A8
:100E2000E45DFE4F4491FC01E451FE4F2491FC012E
:100E3000EA55FE4F9491992309F46AC0442309F4BA
:100E400054C050E0FA013197E231F10508F04DC08D
:100E50008827EC57FF4F8F4F98C7809180008F777E
:100E600007C0809180008F7D03C080918000877FC4
:100E7000809380003AC084B58F7702C084B58F7D9F
:100E800084BD33C08091B0008F7703C08091B000E3
:100E90008F7D8093B00029C0809190008F7707C02C
:100EA000809190008F7D03C080919000877F809318
:100EB00090001BC08091A0008F7707C08091A00098
:100EC0008F7D03C08091A000877F8093A0000DC01C
:100ED000809120018F7707C0809120018F7D03C012
:100EE00080912001877F80932001E92FF0E0EE0FB1
:100EF000FF1FEE58FE4FA591B4918FB7F894EC9177
:100F0000311103C020952E2301C02E2B2C938FBFAF
:100F100008953FB7F8948091C7039091C803A091BA
:100F2000C903B091CA0326B5A89B05C02F3F19F08D
:100F30000196A11DB11D3FBFBA2FA92F982F882759
:100F4000820F911DA11DB11DBC01CD0142E0660FB4
:100F5000771F881F991F4A95D1F708951F920F9206
:100F60000FB60F9211242F933F938F939F93AF93BC
:100F7000BF938091A5029091A602A091A702B09183
:100F8000A8023091C60323E0230F2D3720F40196E9
:100F9000A11DB11D05C026E8230F0296A11DB11D9C
:100FA0002093C6038093A5029093A602A093A70264
:100FB000B093A8028091C7039091C803A091C90380
:100FC000B091CA030196A11DB11D8093C7039093F0
:100FD000C803A093C903B093CA03BF91AF919F9177
:100FE0008F913F912F910F900FBE0F901F901895EA
:100FF000789484B5826084BD84B5816084BD85B5F4
:10100000826085BD85B5816085BD80916E008160FF
:1010100080936E00109281008091810082608093A5
:1010200081008091810081608093810080918000A7
:101030008160809380008091B10084608093B100D2
:101040008091B00081608093B000809191008260B7
:1010500080939100809191008160809391008091B4
:1010600090008160809390008091A10082608093C5
:10107000A1008091A10081608093A1008091A000D7
:1010800081608093A0008091210182608093210182
:1010900080912101816080932101809120018160F4
:1010A0008093200180917A00846080937A008091FF
:1010B0007A00826080937A0080917A0081608093C8
:1010C0007A0080917A00806880937A001092C10043
:1010D0008BE1AADD8AE1A8DD84E0A6DD60E08BE19A
:1010E0009CDE61E08AE199DE61E084E096DEE091D9
:1010F0002603F091270392E09083E0912203F09180
:1011000023031082E0912403F091250320E1208342
:1011100010922E03E0912A03F0912B0386E0808346
:10112000E0912803F0912903808180618083E09120
:101130002803F0912903808188608083E09128034F
:10114000F0912903808180688083E0912803F091E9
:10115000290380818F7D80832093810010928000FD
:1011600090938C0280E593EC90938B0280938A029B
:10117000909387008093860082E180938100C9DE8E
:101180002B013C0144E6C42ED12CE12CF12CC1DE14
:10119000DC01CB0184199509A609B709883E934063
:1011A000A105B10558F021E0C21AD108E108F10803
:1011B00088EE480E83E0581E611C711CC114D104D6
:1011C000E104F10421F78BE491E09093890280938C
:1011D000880211E010936F001092AA021092A902E7
:1011E0001092F302109215031092F1021093F00284
:1011F0001092CB0261E084E110DE61E085E10DDE5A
:101200008091B9008E7F8093B9008091B9008D7F65
:101210008093B90088E48093B80085E48093BC0093
:1012200084E290E0A7DC8093C20386E190E0A2DC38
:10123000813009F07FC08093C10361E087E092E0D4
:10124000C4DC61E088E092E0C0DC60E086E990E028
:10125000BCDC6DEF87E990E0B8DC60E083EE90E005
:10126000B4DC64E084EE90E0B0DC62E085EE90E017
:10127000ACDC61E086EE90E0A8DC63E087EE90E015
:10128000A4DC62E085EF90E0A0DC65E089ED90E011
:101290009CDC6EEC8BED90E098DC63E08CED90E0F4
:1012A00094DC68EF8DED90E090DC60E08FE990E0F9
:1012B0008CDC6CE383EA90E088DC60E087EB90E014
:1012C00084DC6CE38BEB90E080DC69E082EB90E007
:1012D0007CDC69E08AEC90E078DC61E088E991E010
:1012E00074DC67E180EB91E070DC60E08DEA91E016
:1012F0006CDC65E08FEF90E068DC65E080E091E019
:1013000064DC65E089E991E060DC6BE186EA91E00C
:101310005CDC6EE38CEA91E058DC6FE187EA91E0F7
:1013200054DC60E080E390E050DC60E086E190E037
:101330004CDC40C08091C0031093F20280931403F0
:101340001092F3021092150380E090E00FDC86E922
:1013500090E00CDC6ADB8093BF0362E08091C00305
:10136000C1DB1092AA028093A90283EB93E0F1D82B
:10137000C82F83EB93E0EDD820E030E03C2FE9016B
:10138000C82BD92B52DBC435D10511F483E004C03E
:10139000CF37D10521F482E08093C10302C01093BE
:1013A000C1038091C1039091C203899F802D1124B4
:1013B0008093C20360E38AE091E007DC66E48FE398
:1013C00090E003DC6FEF81E390E0FFDB63E670E029
:1013D00080E490E0CCDC61E08EE290E0F6DB69E056
:1013E0008BE190E0F2DB61E38EE390E0EEDB64E220
:1013F00084E190E0EADB61E38CE190E0E6DB60E031
:1014000083EA92E0E2DB81E0DBDC82E0D9DC20E70A
:10141000422E2EEF522E66246A94762C30E3232E31
:1014200031E0332E8091A402882309F44EC010923B
:10143000A4021091C10361E088E190E0C6DB2FB700
:10144000F8948091A5029091A602A091A702B09174
:10145000A8022FBFEC018FE490E08CDB82FD1FC05F
:101460008091C3039091C403892BA9F32FB7F894FB
:101470008091A5029091A602A091A702B091A80226
:101480002FBF8C1B9D0B2091C3033091C4032817E1
:10149000390708F781E08093C5032FEF09C082E682
:1014A00090E068DBC82F61E085E190E08EDB2C2FB7
:1014B00030E0A12FB0E088D230D36093A0027093C7
:1014C000A1028093A2029093A30280919F0288239D
:1014D00009F46BC110929F022091A0023091A102E9
:1014E0004091A2025091A3026091080270910902FA
:1014F00080910A0290910B0276D2609399027093C8
:101500009A0280939B0290939C02209191023091C9
:101510009202409193025091940265D26B017C013A
:1015200020E030E040E05EE3AED3209195023091C0
:101530009602409197025091980256D24B015C015D
:1015400020E030E040E05FE3C701B6019CD39B019F
:10155000AC01C501B40148D26B017C016093040267
:1015600070930502809306029093070220E030E01A
:1015700048E453E484D3181684F020E030E048E4D3
:1015800053ECC701B60194D287FF0DC0C12CD12CFA
:1015900088E4E82E83ECF82E06C0C12CD12C98E408
:1015A000E92E93E4F92EC0928D02D0928E02E09241
:1015B0008F02F0929002C701B6017ED29B01AC016E
:1015C000285C310941095109AFEFB0E0D1D1A30145
:1015D0009201B2D1122F20939D02C22FD0E084E05D
:1015E00023DB111102C060E003C01F3F21F461E062
:1015F00084E013DCAAC0F101849190E0FC013197F2
:10160000E231F10508F09CC08827EE58FF4F8F4F5C
:10161000BCC384B5806884BD17BD97C084B58062A3
:1016200084BD18BD92C08091800080688093800046
:10163000D0938900C093880088C080918000806228
:1016400080938000D0938B00C0938A007EC08091ED
:101650008000886080938000D0938D00C0938C00C0
:1016600074C08091B00080688093B0001093B30084
:101670006CC08091B00080628093B0001093B40081
:1016800064C080919000806880939000D09399000E
:10169000C09398005AC0809190008062809390001F
:1016A000D0939B00C0939A0050C0809190008860B6
:1016B00080939000D0939D00C0939C0046C0809181
:1016C000A00080688093A0008091A0008F7B809311
:1016D000A000D093A900C093A80037C08091A000BB
:1016E00080628093A000D093AB00C093AA002DC06D
:1016F0008091A00088608093A000D093AD00C0933B
:10170000AC0023C080912001806880932001D09399
:101710002901C093280119C0809120018062809323
:101720002001D0932B01C0932A010FC0809120018A
:10173000886080932001D0932D01C0932C0105C0B7
:10174000C038D1050CF053CF4ECF809199029091C3
:101750009A02A0919B02B0919C0280939102909377
:101760009202A0939302B09394028091040290910C
:101770000502A0910602B091070280939502909312
:101780009602A0939702B0939802809108029091DC
:101790000902A0910A02B0910B028093000290937B
:1017A0000102A0930202B093030280919E0288235B
:1017B00009F47DC086E193E00E94C401892BB9F051
:1017C00086E193E00E94C401892B89F086E193E0D1
:1017D0000E94A201BC01990F880B990BA0D16093C4
:1017E00008027093090280930A0290930B021092F0
:1017F0009E02C0900802D0900902E0900A02F09088
:101800000B0220E030E046EC52E4C701B60137D2CB
:1018100018161CF4C701B6010BC080E090E073DA23
:10182000609108027091090280910A0290910B0266
:1018300043D1CB0168DA88E392E015DA80919D020A
:10184000843618F090E05FDA0AC080E090E05BDA5E
:1018500060919D0270E080E090E04AE015DA88E354
:1018600092E001DAC090A002D090A102E090A20222
:10187000F090A30220E030E046EC52E4C701B6014C
:10188000FED118161CF4C701B6010BC080E090E031
:101890003ADA6091A0027091A1028091A202909127
:1018A000A3020AD1CB012FDA8AE392E0DCD90E94AD
:1018B0006102B8CDE6E1F3E01382128288EE93E094
:1018C000A0E0B0E084839583A683B78328E132E06B
:1018D0003183208325EC30E03587248724EC30E009
:1018E0003787268720EC30E0318B208B21EC30E0ED
:1018F000338B228B22EC30E0358B248B26EC30E0CE
:10190000378B268B118E128E138E148EE3EBF3E041
:101910001382128284839583A683B7838AE292E03E
:1019200091838083EFEBF3E089E28183128213825B
:101930001582148216820895052E97FB16F40094E2
:101940000FD057FD05D01ED007FC02D046F408C0CA
:1019500050954095309521953F4F4F4F5F4F0895DB
:1019600090958095709561957F4F8F4F9F4F08950B
:101970002BD0A59F900DB49F900DA49F800D911D1D
:1019800011240895A1E21A2EAA1BBB1BFD010DC054
:10199000AA1FBB1FEE1FFF1FA217B307E407F5071F
:1019A00020F0A21BB30BE40BF50B661F771F881FFB
:1019B000991F1A9469F760957095809590959B0191
:1019C000AC01BD01CF010895A29FB001B39FC0013A
:1019D000A39F700D811D1124911DB29F700D811D5B
:1019E0001124911D08955058BB27AA270ED00DC170
:1019F000FED030F003D120F031F49F3F11F41EF4FB
:101A0000F3C00EF4E095E7FBE9C0E92F0FD180F3B6
:101A1000BA17620773078407950718F071F49EF5EB
:101A200027C10EF4E0950B2EBA2FA02D0B01B901A2
:101A300090010C01CA01A0011124FF27591B99F044
:101A4000593F50F4503E68F11A16F040A22F232F50
:101A5000342F4427585FF3CF469537952795A795A0
:101A6000F0405395C9F77EF41F16BA0B620B730B47
:101A7000840BBAF09150A1F0FF0FBB1F661F771FB8
:101A8000881FC2F70EC0BA0F621F731F841F48F46D
:101A9000879577956795B795F7959E3F08F0B3CFF3
:101AA0009395880F08F09927EE0F979587950895DD
:101AB00071D008F481E0089504D06894B111D9C0C0
:101AC0000895BCD088F09F5790F0B92F9927B7514F
:101AD000A0F0D1F0660F771F881F991F1AF0BA95F2
:101AE000C9F712C0B13081F0C3D0B1E00895C0C0D1
:101AF000672F782F8827B85F39F0B93FCCF38695E8
:101B000077956795B395D9F73EF490958095709544
:101B100061957F4F8F4F9F4F0895E89409C097FBC1
:101B20003EF490958095709561957F4F8F4F9F4FB4
:101B30009923A9F0F92F96E9BB279395F6958795F8
:101B400077956795B795F111F8CFFAF4BB0F11F4BB
:101B500060FF1BC06F5F7F4F8F4F9F4F16C0882362
:101B600011F096E911C0772321F09EE8872F762F98
:101B700005C0662371F096E8862F70E060E02AF0D9
:101B80009A95660F771F881FDAF7880F96958795C5
:101B900097F90895990F0008550FAA0BE0E8FEEF9A
:101BA00016161706E807F907C0F012161306E40721
:101BB000F50798F0621B730B840B950B39F40A261A
:101BC00061F0232B242B252B21F408950A2609F4F8
:101BD000A140A6958FEF811D811D089597F99F67FC
:101BE00080E870E060E008959FEF80EC08950024A5
:101BF0000A941616170618060906089500240A9472
:101C000012161306140605060895092E0394000CF7
:101C100011F4882352F0BB0F40F4BF2B11F460FF86
:101C200004C06F5F7F4F8F4F9F4F089557FD9058AF
:101C3000440F551F59F05F3F71F04795880F97FB90
:101C4000991F61F09F3F79F087950895121613064A
:101C50001406551FF2CF4695F1DF08C01616170679
:101C60001806991FF1CF86957105610508940895AE
:101C7000E894BB2766277727CB0197F908958ADF79
:101C800008F48FEF08950BD0C0CFB1DF28F0B6DF96
:101C900018F0952309F0A2CFA7CF1124EACFC6DF11
:101CA000A0F3959FD1F3950F50E0551F629FF0016F
:101CB000729FBB27F00DB11D639FAA27F00DB11DC8
:101CC000AA1F649F6627B00DA11D661F829F222751
:101CD000B00DA11D621F739FB00DA11D621F839FD8
:101CE000A00D611D221F749F3327A00D611D231FAE
:101CF000849F600D211D822F762F6A2F11249F57FC
:101D000050408AF0E1F088234AF0EE0FFF1FBB1F1E
:101D1000661F771F881F91505040A9F79E3F5105BD
:101D200070F05CCFA6CF5F3FECF3983EDCF3869576
:101D300077956795B795F795E7959F5FC1F7FE2B68
:101D4000880F911D9695879597F90895991B79E0CD
:101D500004C0991F961708F0961B881F7A95C9F73B
:101D60008095089597FB072E16F4009406D077FD12
:101D700008D013D007FC05D03EF4909581959F4F75
:101D80000895709561957F4F0895EE0FFF1F881F8E
:101D90008BBF0790F691E02D1994AA1BBB1B51E154
:101DA00007C0AA1FBB1FA617B70710F0A61BB70BCB
:101DB000881F991F5A95A9F780959095BC01CD0170
:0E1DC000089581E090E0F89400C0F894FFCF01
:101DCE000000F042000048C20000F0420000FD009A
:101DDE007F00540000000000FA01680193014002E8
:101DEE00C401A201B601000000002A03FB02C602D4
:0C1DFE009902BD02A9029A022C003B00D1
:00000001FF
