:1000000019C1000047C1000045C1000043C1000004
:1000100041C100003FC100003DC100003BC10000E4
:1000200039C1000037C1000035C1000033C10000F4
:1000300031C100002FC100002DC100002BC1000004
:1000400029C1000027C1000025C1000023C1000014
:100050009CC300001FC100001DC100003AC7000082
:1000600019C100005CC3000031C3000013C10000CF
:1000700011C100000FC100000DC100000BC1000044
:1000800009C1000007C1000005C1000003C1000054
:1000900001C10000FFC00000FDC00000A1C30000BE
:1000A000F9C00000F7C00000F5C00000F3C0000078
:1000B000F1C00000EFC00000EDC00000EBC0000088
:1000C000E9C00000E7C00000E5C00000E3C0000098
:1000D000E1C00000DFC00000DDC00000DBC00000A8
:1000E000D9C000000A0B0F0B140B1E0B280BA10B21
:1000F000320B3A0B420B4C0B560B600B6F0B790B10
:10010000A10B830B8D0B970BF606F906E806EC06A0
:10011000F0063007FD06010707070B070F07150755
:1001200019071D073007230727072B0700002100A9
:10013000240027002A002D003000330001010000B8
:10014000040107010A0100002200250028002B00FD
:100150002E003100340002010000050108010B01EE
:1001600005050505070508080808020202020A0A33
:100170000808040404040101010101010101030351
:10018000030303030303040707070C0C0C0C0C0CFC
:100190000C0C0202020206060606060606060B0BF9
:1001A0000B0B0B0B0B0B010210202008081020403A
:1001B000102040800201020108040201010204082B
:1001C00010204080804020100804020180040201B9
:1001D0008040201008040201080402010102040802
:1001E00010204080010204081020408000000A0B0B
:1001F00002090C0D0E0807030401000000000000B6
:1002000000000000000000000000000000000000EE
:1002100000000000000000001211100000000000AB
:1002200000000000000000000000000000000000CE
:100230000000610C11241FBECFEFD1E2DEBFCDBFA5
:1002400000E00CBF12E0A0E0B2E0E4EEFDE100E06F
:100250000BBF02C007900D92AE33B107D9F723E070
:10026000AEE3B2E001C01D92A53DB207E1F711E097
:10027000CAE1D1E000E006C021970109802FFE010C
:100280000E94D00EC931D10780E00807A9F76BD6CC
:100290000C94F00EB5CECF92DF92EF92FF920F93B7
:1002A0001F93CF93DF936C017A018B01C0E0D0E004
:1002B000CE15DF0589F0D8016D918D01D601ED9144
:1002C000FC910190F081E02DC6011995892B11F464
:1002D0007E0102C02196ECCFC701DF91CF911F9123
:1002E0000F91FF90EF90DF90CF900895FC01538D18
:1002F000448D252F30E0842F90E0821B930B541700
:1003000010F0CF96089501970895FC01918D828D8C
:10031000981761F0828DDF01A80FB11D5D968C9159
:10032000928D9F5F9F73928F90E008958FEF9FEF64
:100330000895FC01918D828D981731F0828DE80F20
:10034000F11D858D90E008958FEF9FEF0895FC01DA
:10035000918D228D892F90E0805C9F4F821B9109A7
:100360008F739927089580E293E0F1DF21E0892BD4
:1003700009F420E0822F0895FC01848DDF01A80F8D
:10038000B11DA35ABF4F2C91848D90E001968F73BD
:100390009927848FA689B7892C93A089B1898C91DC
:1003A00080648C93938D848D981306C00288F389A2
:1003B000E02D80818F7D80830895EF92FF920F93CF
:1003C0001F93CF93DF93EC0181E0888F9B8D8C8D01
:1003D000981305C0E889F989808185FD23C0F62E30
:1003E0000B8D10E00F5F1F4F0F731127E02E8C8DC8
:1003F000E8120BC00FB607FCFACFE889F9898081B3
:1004000085FFF5CFCE01B8DFF2CF8B8DFE01E80F6F
:10041000F11DE35AFF4FF0820B8FEA89FB8980813F
:10042000806207C0EE89FF896083E889F98980814D
:100430008064808381E090E0DF91CF911F910F91E4
:10044000FF90EF900895CF93DF93EC01888D882380
:10045000C1F0EA89FB89808185FD05C0A889B98939
:100460008C9186FD0EC00FB607FCF5CF808185FF0D
:10047000F2CFA889B9898C9185FFEDCFCE017CDFC1
:10048000E8CFDF91CF91089580E090E0892B19F0BB
:100490006ADF811125C080E090E0892B41F080E087
:1004A00090E0892B21F00E94000081111CC080E0A7
:1004B00090E0892B41F080E090E0892B21F00E94B0
:1004C0000000811113C080E090E0892BA1F080E052
:1004D00090E0892B81F00E94000081110AC00895EC
:1004E0000E940000D8CF0E940000E1CF0E940000CF
:1004F000EACF0C94000008950895E091B402809131
:10050000B302E81730F4F0E0EB54FD4F808190E047
:1005100008958FEF9FEF08959091B4028091B302F8
:10052000981750F4E92FF0E0EB54FD4F208130E0B4
:100530009F5F9093B40202C02FEF3FEFC90108956F
:100540008091B30290E02091B402821B910908953A
:10055000089580E090E0089585ED8093BC0080913F
:10056000BC0084FDFCCF1092FB0208954091600214
:10057000262F30E0240F311D21323105DCF420918B
:10058000FB022430C9F4FC0180E090E0861758F4A7
:10059000309160022191DC01A25CBD4FA30FB11D1F
:1005A0002C930196F3CF80916002680F60936002F4
:1005B00080E0089581E0089582E00895CF92DF926F
:1005C000EF92FF920F931F93CF93DF937C01262F1F
:1005D000972F8A018091FC02882391F0C62FD72F94
:1005E0006E01C40ED51ECC15DD0569F06991D701E9
:1005F000ED91FC910190F081E02DC7011995F3CFA9
:10060000642F822FB3DFC801DF91CF911F910F912B
:10061000FF90EF90DF90CF900895CF93DF931F92DC
:10062000CDB7DEB769832091FC022223D1F020915F
:100630001F03203240F021E030E0FC0133832283AD
:1006400080E090E014C08091FD02E82FF0E0E250DD
:10065000FD4F998190838F5F8093FD0280931F03EC
:1006600004C061E0CE01019681DF81E090E00F904F
:10067000DF91CF91089581E08093AE028093A9022B
:100680008093A8028093A30220E030E0A90160914A
:100690009F027091A0028091A1029091A2020E94FB
:1006A0005F0D811104C080E090E0DC0104C080E0B7
:1006B00090E0AFE7B3E480939F029093A002A093F1
:1006C000A102B093A20208950E94EC0E1F920F9215
:1006D0000FB60F9211240BB60F922F933F934F93A7
:1006E0005F936F937F938F939F93AF93BF93EF939A
:1006F000FF9380E293E040DEFF91EF91BF91AF91D5
:100700009F918F917F916F915F914F913F912F9129
:100710000F900BBE0F900FBE0F901F9018951F9259
:100720000F920FB60F9211240BB60F922F938F9347
:100730009F93EF93FF93E0913003F0913103808119
:10074000E0913603F091370382FD12C090818091D1
:1007500039038F5F8F7320913A03821751F0E09134
:100760003903F0E0E05EFC4F958F8093390301C0C0
:100770008081FF91EF919F918F912F910F900BBEF0
:100780000F900FBE0F901F9018951F920F920FB6EB
:100790000F9211240BB60F922F933F934F935F93B9
:1007A0006F937F938F939F93AF93BF93EF93FF9339
:1007B000E0918502F09186021995FF91EF91BF912A
:1007C000AF919F918F917F916F915F914F913F91E9
:1007D0002F910F900BBE0F900FBE0F901F9018958A
:1007E0001F920F920FB60F9211240BB60F922F93F8
:1007F0003F934F935F936F937F938F939F93AF93A9
:10080000BF93EF93FF938091B900887F803609F4FE
:100810009CC068F5883209F45BC090F4803109F41B
:1008200054C038F4882309F4F6C0883009F44DC068
:10083000F5C0883109F44CC0803209F45DC0EEC0C7
:10084000803409F468C048F4803309F455C0883313
:1008500009F0E4C08093F902D8C0803509F44FC094
:10086000883509F45DC0883409F0D8C0D6C088390D
:1008700009F4C7C0A8F4883709F467C038F488368B
:1008800009F463C0803709F460C0C8C0883809F42F
:10089000B8C0803909F45FC0803809F0BFC05BC0C0
:1008A000803B09F486C038F4803A09F466C0883A7F
:1008B00009F47FC0B3C0803C09F4A7C0883C09F4A8
:1008C000A4C0883B09F48AC0A9C08091D60210C098
:1008D0009091F8028091F702981770F5E091F80274
:1008E00081E08E0F8093F802F0E0E952FD4F8081A5
:1008F0008093BB0085EC86C08093F9028EC0E091A6
:10090000F80281E08E0F8093F8028091BB00F0E046
:10091000E952FD4F80839091F8028091F7026EC0FA
:10092000E091F80281E08E0F8093F8028091BB0085
:10093000F0E0E952FD4F80838091FA0281116DC091
:1009400081E08093D50284EA61C083E08093FB025A
:1009500010928402CFCF80918402803208F051C07F
:10096000E091840281E08E0F809384028091BB002D
:10097000F0E0EC59FD4F8083BDCF85EC8093BC0047
:100980001092FB0280918402803230F4E091840264
:10099000F0E0EC59FD4F10826091840270E0E0912C
:1009A0006202F091630284E692E01995109284024B
:1009B00035C084E08093FB021092610210926002C5
:1009C000E0915E02F0915F021995809160028111C1
:1009D00005C081E08093600210923E02E0916102C6
:1009E00081E08E0F80936102F0E0E25CFD4F808138
:1009F0008093BB009091610280916002981708F487
:100A000079CF85E88093BC0009C085EC8093BC0059
:100A10001092FB0203C01092F9029EDDFF91EF914C
:100A2000BF91AF919F918F917F916F915F914F9106
:100A30003F912F910F900BBE0F900FBE0F901F9004
:100A40001895009761F0FC0101900020E9F73197BB
:100A5000AF01481B590BBC0180E293E01CCC80E045
:100A600090E008958F929F92AF92BF920F931F9341
:100A7000CF93DF93CDB7DEB7A1970FB6F894DEBF63
:100A80000FBECDBF19A2423008F44AE08E010F5DBF
:100A90001F4F842E912CA12CB12CA501940179D744
:100AA000E62FB901CA0101501109EA3014F4E05DE2
:100AB00001C0E95CD801EC93232B242B252B69F78B
:100AC000C801BFDFA1960FB6F894DEBF0FBECDBF41
:100AD000DF91CF911F910F91BF90AF909F908F901A
:100AE000089520911F0390911E03213208F04AC0FF
:100AF0008091FB028111FCCF32E03093FB0231E0A8
:100B00003093FA023FEF3093F9021092F8022093EB
:100B1000F702AEEFB2E047ED52E0FA013E2F341B90
:100B2000321718F43D913193F9CF1092D6022091EB
:100B3000D602990F922B9093D6029091D5029130C4
:100B400061F41092D5029091D6029093BB009091DF
:100B5000BC0093FDF8CF95EC01C095EE9093BC00DE
:100B60009091FB029230E1F39091F9029F3F79F06E
:100B70008091F902803241F08091F902803331F0A6
:100B800084E005C081E003C082E001C083E01092F0
:100B9000FD0210921F031092FC0208959091FB0237
:100BA0009111FCCF91E09093FB029093FA022FEF0A
:100BB0002093F9021092F802260F2093F7029093E7
:100BC000D6029091D602880F892B8093D60280910D
:100BD000D502813061F41092D5028091D6028093C3
:100BE000BB008091BC0083FDF8CF85EC01C085EE91
:100BF0008093BC008091FB028130E1F38091F80288
:100C0000861710F46091F802A7EDB2E025EB32E010
:100C1000F9018E2F821B861718F48D918193F9CFDD
:100C2000862F0895682F8DEB93E0F7CC0F931F93D9
:100C3000CF93DF938C01C9ECD3E0898191E090934D
:100C4000FC0280931E031092FD0210921F03812F5D
:100C500090E0E8DFC8019927E5DF43DF888361E0A2
:100C600089819CDF1092B4028093B3028DEB93E0F4
:100C700053DCC82F36DF8C2FDF91CF911F910F915E
:100C80000895EF92FF920F931F93CF93DF931F92DC
:100C9000CDB7DEB78C0189ECE82E83E0F82EF701A2
:100CA000818191E09093FC0280931E031092FD02DB
:100CB00010921F03812F90E06983B4DFC801992748
:100CC000B1DF69818DEB93E0A8DC0BDFF701808356
:100CD0000F90DF91CF911F910F91FF90EF900895AA
:100CE000EF92FF920F931F93CF93DF937C018B01C1
:100CF000C9ECD3E0898191E09093FC0280931E03BC
:100D00001092FD0210921F038F2D90E08BDFC70120
:100D1000992788DF812F90E085DFC801992782DF3E
:100D2000E0DE8883DF91CF911F910F91FF90EF90CC
:100D300008958093CB03E82FF0E0EE0FFF1FE05003
:100D4000FE4F6081718186E990E0CADF8091CC031B
:100D50006091CB030E94B10E682F84E290E091DF96
:100D60006091CB0370E084E190E00E94BD0E81E2CF
:100D700090E087DF8DE290E059DF8E7F61E0909117
:100D8000CB03913009F060E0682B8DE290E079CFE1
:100D9000362F90E0FC01E451FE4F4491FC01EA55EE
:100DA000FE4F2491FC01E05AFE4F9491992309F4DF
:100DB0006AC0442309F454C050E0FA013197E2318B
:100DC000F10508F04DC08827EC57FF4F8F4FE8C75B
:100DD000809180008F7707C0809180008F7D03C055
:100DE00080918000877F809380003AC084B58F77A0
:100DF00002C084B58F7D84BD33C08091B0008F77F1
:100E000003C08091B0008F7D8093B00029C0809195
:100E100090008F7707C0809190008F7D03C08091F4
:100E20009000877F809390001BC08091A0008F77F7
:100E300007C08091A0008F7D03C08091A000877FB4
:100E40008093A0000DC0809120018F7707C0809112
:100E500020018F7D03C080912001877F8093200136
:100E6000E92FF0E0EE0FFF1FEA5BFE4FA591B49172
:100E70008FB7F894EC91311103C020952E2301C057
:100E80002E2B2C938FBF08953FB7F8948091D103F8
:100E90009091D203A091D303B091D40326B5A89B1F
:100EA00005C02F3F19F00196A11DB11D3FBFBA2FFC
:100EB000A92F982F8827820F911DA11DB11DBC015C
:100EC000CD0142E0660F771F881F991F4A95D1F721
:100ED00008951F920F920FB60F9211242F933F93F4
:100EE0008F939F93AF93BF938091AF029091B00285
:100EF000A091B102B091B2023091D00323E0230F50
:100F00002D3720F40196A11DB11D05C026E8230F41
:100F10000296A11DB11D2093D0038093AF02909340
:100F2000B002A093B102B093B2028091D10390912C
:100F3000D203A091D303B091D4030196A11DB11D9A
:100F40008093D1039093D203A093D303B093D4039F
:100F5000BF91AF919F918F913F912F910F900FBEB5
:100F60000F901F901895CF93DF9300D01F92CDB7AD
:100F7000DEB7789484B5826084BD84B5816084BD19
:100F800085B5826085BD85B5816085BD80916E0027
:100F9000816080936E001092810080918100826058
:100FA0008093810080918100816080938100809195
:100FB00080008160809380008091B1008460809384
:100FC000B1008091B00081608093B0008091910069
:100FD0008260809391008091910081608093910064
:100FE000809190008160809390008091A100826048
:100FF0008093A1008091A10081608093A1008091E5
:10100000A00081608093A000809121018260809384
:101010002101809121018160809321018091200133
:1010200081608093200180917A00846080937A00AF
:1010300080917A00826080937A0080917A0081604A
:1010400080937A0080917A00806880937A00109271
:10105000C100E0913003F091310392E09083E09180
:101060002C03F0912D031082E0912E03F0912F03B9
:1010700020E1208310923803E0913403F09135038E
:1010800086E08083E0913203F091330380818061B8
:101090008083E0913203F091330380818860808304
:1010A000E0913203F0913303808180688083E09186
:1010B0003203F091330380818F7D80832093810000
:1010C000109280009093890280E29EE490938802BF
:1010D00080938702909387008093860082E18093BB
:1010E0008100D2DE4B015C0164E6C62ED12CE12CDE
:1010F000F12CCADEDC01CB0188199909AA09BB09C8
:10110000883E9340A105B10558F021E0C21AD108EC
:10111000E108F10888EE880E83E0981EA11CB11C3E
:10112000C114D104E104F10421F78BE393E090931F
:1011300086028093850211E010936F001092B40232
:101140001092B3021092FD0210921F031092FB0244
:101150001093FA021092D50261E084E119DE61E099
:1011600085E116DE8091B9008E7F8093B900809171
:10117000B9008D7F8093B90088E48093B80085E43E
:101180008093BC0084E290E051DD8093CC0386E143
:1011900090E04CDD813009F07FC08093CB0361E0AB
:1011A00087E092E06EDD61E088E092E06ADD60E079
:1011B00086E990E066DD6DEF87E990E062DD60E052
:1011C00083EE90E05EDD64E084EE90E05ADD62E064
:1011D00085EE90E056DD61E086EE90E052DD63E062
:1011E00087EE90E04EDD62E085EF90E04ADD65E05D
:1011F00089ED90E046DD6EEC8BED90E042DD63E042
:101200008CED90E03EDD68EF8DED90E03ADD60E042
:101210008FE990E036DD6CE383EA90E032DD60E058
:1012200087EB90E02EDD6CE38BEB90E02ADD69E04C
:1012300082EB90E026DD69E08AEC90E022DD61E05F
:1012400088E991E01EDD67E180EB91E01ADD60E066
:101250008DEA91E016DD65E08FEF90E012DD65E04C
:1012600080E091E00EDD65E089E991E00ADD6BE167
:1012700086EA91E006DD6EE38CEA91E002DD6FE143
:1012800087EA91E0FEDC60E080E390E0FADC60E079
:1012900086E190E0F6DC42C08091CA031093FC0224
:1012A00080931E031092FD0210921F0380E090E0D5
:1012B000B9DC86E990E0B6DC14DC8093C90362E017
:1012C0008091CA036BDC1092B4028093B3028DEB61
:1012D00093E022D9082F8DEB93E01ED920E030E077
:1012E000302F7901E82AF92AFCDBF4E5EF16F10446
:1012F00011F483E005C02FE7E216F10421F482E047
:101300008093CB0302C01093CB038091CB039091C9
:10131000CC03899F802D11248093CC0360E38AE065
:1013200091E0AFDC66E48FE390E0ABDC6FEF81E34C
:1013300090E0A7DC63E670E080E490E0D1DC61E05F
:101340008EE290E09EDC69E08BE190E09ADC61E364
:101350008EE390E096DC64E284E190E092DC61E36D
:101360008CE190E08EDC60E083EA92E08ADC81E050
:10137000E0DC83E0DEDC5AEA252E51E0352E04E67F
:1013800011E08091AE02882309F44EC01092AE02A3
:10139000D090CB0361E088E190E073DC2FB7F89444
:1013A0008091AF029091B002A091B102B091B202CF
:1013B0002FBF7C018FE490E039DC82FD1FC080915B
:1013C000CD039091CE03892BA9F32FB7F894809188
:1013D000AF029091B002A091B102B091B2022FBFC2
:1013E0008E199F092091CD033091CE03281739071C
:1013F00008F781E08093CF032FEF09C082E690E0E9
:1014000015DCF82E61E085E190E03BDC2F2D30E02B
:10141000AD2DB0E0E0D288D36093AA027093AB0206
:101420008093AC029093AD028091A902882309F4C5
:10143000AAC01092A90240909F025090A002609012
:10144000A1027090A2022091AA023091AB024091B9
:10145000AC025091AD02C301B201CCD26B017C0150
:1014600060939B0270939C0280939D0290939E02D6
:1014700020919302309194024091950250919602EE
:10148000B9D24B015C0120919702309198024091B2
:10149000990250919A02AFD269837A838B839C839D
:1014A000A5019401C501B401A6D29B01AC016981DB
:1014B0007A818B819C819FD24B015C01CB01D5014C
:1014C0008093A4029093A502A093A602B093A702D2
:1014D00020E030E04AE754E4B401C501D7D3181640
:1014E00074F020E030E04AE754ECB401C501E7D2E3
:1014F00087FD0AC0582D492D3A2D2B2D09C050E0EB
:1015000040E03AE724E404C050E040E03AE724EC4D
:10151000852F942FA32FB22F80938F029093900248
:10152000A0939102B0939202652F742F832F922F74
:10153000CAD29B01AC01245F314041095109AFEF90
:10154000B0E01DD228E13CEF4FEF5FEFFCD12093DC
:101550008E02C0929302D0929402E0929502F09291
:101560009602C401D5018093970290939802A093AC
:101570009902B0939A0240928A0250928B02609232
:101580008C0270928D028091A802882309F4DEC03B
:101590001092A8026091A4027091A5028091A60207
:1015A0009091A70290D26B017C019B01F1016491A3
:1015B000F8018491882399F090E0880F991FFC012D
:1015C000E45DFE4FA591B491FC01EA5BFE4F4591AD
:1015D00054918FB7F8949C91692B6C938FBF211510
:1015E000310511F460E004C02F3F310521F461E0C2
:1015F00084E0CEDBABC0E0EFF1E0849190E0FC0151
:101600003197E231F10508F09CC08827EE58FF4F72
:101610008F4FC6C384B5806884BDC7BC97C084B5EE
:10162000806284BDC8BC92C0809180008068809335
:101630008000D0928900C092880088C0809180008C
:10164000806280938000D0928B00C0928A007EC01E
:1016500080918000886080938000D0928D00C0923D
:101660008C0074C08091B00080688093B000C092FC
:10167000B3006CC08091B00080628093B000C092D3
:10168000B40064C080919000806880939000D092F4
:101690009900C09298005AC0809190008062809317
:1016A0009000D0929B00C0929A0050C08091900010
:1016B000886080939000D0929D00C0929C0046C0AC
:1016C0008091A00080688093A0008091A0008F7B13
:1016D0008093A000D092A900C092A80037C080914A
:1016E000A00080628093A000D092AB00C092AA00BC
:1016F0002DC08091A00088608093A000D092AD00A2
:10170000C092AC0023C080912001806880932001AA
:10171000D0922901C092280119C0809120018062D5
:1017200080932001D0922B01C0922A010FC080919A
:101730002001886080932001D0922D01C0922C015D
:1017400005C0203831050CF052CF4CCF8091A30258
:10175000882309F4B3C01092A3022FB7F8946091C4
:10176000AF027091B0028091B1029091B2022FBF8E
:101770004AE078D98CE292E064D9C090AA02D09075
:10178000AB02E090AC02F090AD02A7019601C70158
:10179000B601E3D2882319F08EE292E018C0460128
:1017A0005701E894B7F82FEF3FEF4FE75FE7C50128
:1017B000B401D3D281110DC02FEF3FEF4FE75FE7A8
:1017C000C501B4017CD1181624F482E392E039D922
:1017D00072C02FEF3FEF4FE75FE4C701B60156D26B
:1017E00018161CF486E392E0F2CF2FEF3FEF4FE79D
:1017F0005FECC701B60163D187FDF4CF20E030E094
:10180000A901C701B6015BD187FF0FC0E09120039A
:10181000F09121030190F081E02D6DE280E293E0F0
:101820001995F7FAF094F7F8F0942AE037ED43EAC7
:101830005BE3C701B601DFD04B015C0149D16B010D
:101840007C0172D19B01AC01C501B401D3D04B0125
:101850005C014AE0C701B60105D9E0912003F0918F
:1018600021030190F081E02D6EE280E293E0199572
:1018700020E030E040E251E4C501B4010BD26B013D
:101880007C0126D14B01A12CB12C4AE0C501B40149
:10189000E9D8C501B40148D19B01AC01C701B6012B
:1018A000A9D020E030E040E251E4F4D111D180E051
:1018B00090E04AE0D7D88AE392E0C3D80E9444027D
:1018C00060CDE0E2F3E01382128288EE93E0A0E0C4
:1018D000B0E084839583A683B7832CE032E0318324
:1018E000208325EC30E03587248724EC30E03787EF
:1018F000268720EC30E0318B208B21EC30E0338BDD
:10190000228B22EC30E0358B248B26EC30E0378BB9
:10191000268B118E128E138E148EEDEBF3E0138254
:10192000128284839583A683B7838EE192E09183AC
:101930008083E9ECF3E089E28183128213821582CD
:10194000148216820895052E97FB16F400940FD08A
:1019500057FD05D01ED007FC02D046F408C05095B4
:101960004095309521953F4F4F4F5F4F089590958B
:101970008095709561957F4F8F4F9F4F08952BD025
:10198000A59F900DB49F900DA49F800D911D1124D3
:101990000895A1E21A2EAA1BBB1BFD010DC0AA1FB0
:1019A000BB1FEE1FFF1FA217B307E407F50720F0C8
:1019B000A21BB30BE40BF50B661F771F881F991F43
:1019C0001A9469F760957095809590959B01AC018C
:1019D000BD01CF010895A29FB001B39FC001A39F95
:1019E000700D811D1124911DB29F700D811D112458
:1019F000911D08955058BB27AA270ED00DC1FED0C7
:101A000030F003D120F031F49F3F11F41EF4F3C005
:101A10000EF4E095E7FBE9C0E92F0FD180F3BA1788
:101A2000620773078407950718F071F49EF527C1C4
:101A30000EF4E0950B2EBA2FA02D0B01B9019001E9
:101A40000C01CA01A0011124FF27591B99F0593F2D
:101A500050F4503E68F11A16F040A22F232F342F75
:101A60004427585FF3CF469537952795A795F040C3
:101A70005395C9F77EF41F16BA0B620B730B840BD8
:101A8000BAF09150A1F0FF0FBB1F661F771F881F90
:101A9000C2F70EC0BA0F621F731F841F48F48795E8
:101AA00077956795B795F7959E3F08F0B3CF9395D7
:101AB000880F08F09927EE0F97958795089571D0B4
:101AC00008F481E0089504D06894B111D9C0089554
:101AD000BCD088F09F5790F0B92F9927B751A0F04C
:101AE000D1F0660F771F881F991F1AF0BA95C9F7B2
:101AF00012C0B13081F0C3D0B1E00895C0C0672FEB
:101B0000782F8827B85F39F0B93FCCF38695779561
:101B10006795B395D9F73EF490958095709561954A
:101B20007F4F8F4F9F4F0895E89409C097FB3EF475
:101B300090958095709561957F4F8F4F9F4F99231A
:101B4000A9F0F92F96E9BB279395F6958795779598
:101B50006795B795F111F8CFFAF4BB0F11F460FF58
:101B60001BC06F5F7F4F8F4F9F4F16C0882311F0B0
:101B700096E911C0772321F09EE8872F762F05C0C4
:101B8000662371F096E8862F70E060E02AF09A955F
:101B9000660F771F881FDAF7880F9695879597F954
:101BA0000895990F0008550FAA0BE0E8FEEF1616EE
:101BB0001706E807F907C0F012161306E407F50741
:101BC00098F0621B730B840B950B39F40A2661F0B5
:101BD000232B242B252B21F408950A2609F4A14058
:101BE000A6958FEF811D811D089597F99F6780E865
:101BF00070E060E008959FEF80EC089500240A945F
:101C00001616170618060906089500240A941216D7
:101C10001306140605060895092E0394000C11F40A
:101C2000882352F0BB0F40F4BF2B11F460FF04C0B7
:101C30006F5F7F4F8F4F9F4F089557FD9058440F10
:101C4000551F59F05F3F71F04795880F97FB991F1B
:101C500061F09F3F79F087950895121613061406D8
:101C6000551FF2CF4695F1DF08C016161706180665
:101C7000991FF1CF86957105610508940895E89440
:101C8000BB2766277727CB0197F908958ADF08F4E9
:101C90008FEF08950BD0C0CFB1DF28F0B6DF18F07A
:101CA000952309F0A2CFA7CF1124EACFC6DFA0F376
:101CB000959FD1F3950F50E0551F629FF001729FE1
:101CC000BB27F00DB11D639FAA27F00DB11DAA1F00
:101CD000649F6627B00DA11D661F829F2227B00D4D
:101CE000A11D621F739FB00DA11D621F839FA00DD8
:101CF000611D221F749F3327A00D611D231F849F28
:101D0000600D211D822F762F6A2F11249F5750407E
:101D10008AF0E1F088234AF0EE0FFF1FBB1F661F19
:101D2000771F881F91505040A9F79E3F510570F0D2
:101D30005CCFA6CF5F3FECF3983EDCF386957795BA
:101D40006795B795F795E7959F5FC1F7FE2B880FCD
:101D5000911D9695879597F9089523DF880B990B28
:101D60000895991B79E004C0991F961708F0961BF7
:101D7000881F7A95C9F78095089597FB072E16F46A
:101D8000009406D077FD08D013D007FC05D03EF4B0
:101D9000909581959F4F0895709561957F4F089517
:101DA000EE0FFF1F881F8BBF0790F691E02D19944F
:101DB000AA1BBB1B51E107C0AA1FBB1FA617B70771
:101DC00010F0A61BB70B881F991F5A95A9F780958D
:101DD0009095BC01CD01089581E090E0F89400C099
:041DE000F894FFCFA5
:101DE4000000FD007F00540000000000DD014B01F5
:101DF40076012302A70185019901000000000D036B
:101E0400DE02A9027C02A0028C027D023B006E610C
:0E1E14006E00696E66006F7666000D0A0000B3
:00000001FF
