:1000000019C1000047C1000045C1000043C1000004
:1000100041C100003FC100003DC100003BC10000E4
:1000200039C1000037C1000035C1000033C10000F4
:1000300031C100002FC100002DC100002BC1000004
:1000400029C1000027C1000025C1000023C1000014
:10005000FFC300001FC100001DC1000050C300000D
:1000600019C10000BFC3000094C3000013C1000009
:1000700011C100000FC100000DC100000BC1000044
:1000800009C1000007C1000005C1000003C1000054
:1000900001C10000FFC00000FDC0000004C400005A
:1000A000F9C00000F7C00000F5C00000F3C0000078
:1000B000F1C00000EFC00000EDC00000EBC0000088
:1000C000E9C00000E7C00000E5C00000E3C0000098
:1000D000E1C00000DFC00000DDC00000DBC00000A8
:1000E000D9C00000010C060C0B0C150C1F0C980C51
:1000F000290C310C390C430C4D0C570C660C700C50
:10010000980C7A0C840C8E0C7508780867086B08BC
:100110006F08AF087C08800886088A088E08940853
:1001200098089C08AF08A208A608AA0800000A0BB5
:1001300002090C0D0E080703040100000000000076
:1001400000000000000000000000000000000000AF
:10015000000000000000000012111000000000006C
:10016000000000000000000000000000000000008F
:10017000000000002200250028002B002E00310086
:10018000340002010000050108010B0100002100FC
:10019000240027002A002D00300033000101000058
:1001A000040107010A0105050505070508080808F7
:1001B000020202020A0A08080404040401010101FF
:1001C00001010101030303030303030304070707FA
:1001D0000C0C0C0C0C0C0C0C02020202060606069F
:1001E000060606060B0B0B0B0B0B0B0B010210206C
:1001F000200808102040102040800201020108045D
:1002000002010102040810204080804020100804F0
:100210000201800402018040201008040201080449
:10022000020101020408102040800102040810208D
:100230004080A60D11241FBECFEFD1E2DEBFCDBF9F
:1002400000E00CBF12E0A0E0B2E0EAE4F1E200E07E
:100250000BBF02C007900D92AE33B107D9F723E070
:10026000AEE3B2E001C01D92AB3DB207E1F711E091
:10027000CAE1D1E000E006C021970109802FFE010C
:100280000E947D10C931D10780E00807A9F7B3D7D4
:100290000C94A310B5CE80913E0290913F02A091A4
:1002A0004002B09141020196A11DB11D80933E0212
:1002B00090933F02A0934002B093410281E080936B
:1002C000B4028093AD028093AE028093AF02089592
:1002D000CF92DF92EF92FF920F931F93CF93DF9312
:1002E0006C017A018B01C0E0D0E0CE15DF0589F00A
:1002F000D8016D918D01D601ED91FC910190F081B5
:10030000E02DC6011995892B11F47E0102C02196BA
:10031000ECCFC701DF91CF911F910F91FF90EF902C
:10032000DF90CF900895FC01538D448D252F30E050
:10033000842F90E0821B930B541710F0CF960895F2
:1003400001970895FC01918D828D981761F0828D3F
:10035000DF01A80FB11D5D968C91928D9F5F9F73F9
:10036000928F90E008958FEF9FEF0895FC01918D9B
:10037000828D981731F0828DE80FF11D858D90E008
:1003800008958FEF9FEF0895FC01918D228D892FA5
:1003900090E0805C9F4F821B91098F73992708958D
:1003A0008BE293E0F1DF21E0892B09F420E0822F3A
:1003B0000895FC01848DDF01A80FB11DA35ABF4F22
:1003C0002C91848D90E001968F739927848FA68954
:1003D000B7892C93A089B1898C9180648C93938D7B
:1003E000848D981306C00288F389E02D80818F7D6B
:1003F00080830895EF92FF920F931F93CF93DF9323
:10040000EC0181E0888F9B8D8C8D981305C0E88965
:10041000F989808185FD23C0F62E0B8D10E00F5FDA
:100420001F4F0F731127E02E8C8DE8120BC00FB6F3
:1004300007FCFACFE889F989808185FFF5CFCE01E5
:10044000B8DFF2CF8B8DFE01E80FF11DE35AFF4FAD
:10045000F0820B8FEA89FB898081806207C0EE8978
:10046000FF896083E889F98980818064808381E0E5
:1004700090E0DF91CF911F910F91FF90EF90089541
:10048000CF93DF93EC01888D8823C1F0EA89FB8943
:10049000808185FD05C0A889B9898C9186FD0EC033
:1004A0000FB607FCF5CF808185FFF2CFA889B98907
:1004B0008C9185FFEDCFCE017CDFE8CFDF91CF912E
:1004C000089580E090E0892B19F06ADF811125C042
:1004D00080E090E0892B41F080E090E0892B21F0D2
:1004E0000E94000081111CC080E090E0892B41F047
:1004F00080E090E0892B21F00E940000811113C060
:1005000080E090E0892BA1F080E090E0892B81F0E1
:100510000E94000081110AC008950E940000D8CFF7
:100520000E940000E1CF0E940000EACF0C9400007E
:1005300008950895E091BF028091BE02E81730F45B
:10054000F0E0E054FD4F808190E008958FEF9FEF41
:1005500008959091BF028091BE02981750F4E92F40
:10056000F0E0E054FD4F208130E09F5F9093BF02A8
:1005700002C02FEF3FEFC90108958091BE0290E0C5
:100580002091BF02821B91090895089580E090E0B8
:10059000089585ED8093BC008091BC0084FDFCCF64
:1005A00010920603089540916402262F30E0240F34
:1005B000311D21323105DCF4209106032430C9F4C9
:1005C000FC0180E090E0861758F43091640221919C
:1005D000DC01AE5BBD4FA30FB11D2C930196F3CF91
:1005E00080916402680F6093640280E0089581E066
:1005F000089582E00895CF92DF92EF92FF920F93D9
:100600001F93CF93DF937C01262F972F8A01809130
:100610000703882391F0C62FD72F6E01C40ED51E75
:10062000CC15DD0569F06991D701ED91FC91019040
:10063000F081E02DC7011995F3CF642F822FB3DF2E
:10064000C801DF91CF911F910F91FF90EF90DF9044
:10065000CF900895CF93DF931F92CDB7DEB7698314
:10066000209107032223D1F020912A03203240F069
:1006700021E030E0FC013383228380E090E014C06D
:1006800080910803E82FF0E0E75FFC4F99819083A9
:100690008F5F8093080380932A0304C061E0CE013A
:1006A000019681DF81E090E00F90DF91CF91089576
:1006B0000E949F103FB7F8948091BA029091BB02BC
:1006C000A091BC02B091BD0226B5A89B05C02F3FEA
:1006D00019F00196A11DB11D3FBFBA2FA92F982F68
:1006E0008827820F911DA11DB11DBC01CD0142E0E3
:1006F000660F771F881F991F4A95D1F708951F929B
:100700000F920FB60F9211242F933F938F939F93C5
:10071000AF93BF938091B6029091B702A091B802B7
:10072000B091B9023091B50223E0230F2D3720F4A8
:100730000196A11DB11D05C026E8230F0296A11D3B
:10074000B11D2093B5028093B6029093B702A09397
:10075000B802B093B9028091BA029091BB02A09105
:10076000BC02B091BD020196A11DB11D8093BA02D9
:100770009093BB02A093BC02B093BD02BF91AF9116
:100780009F918F913F912F910F900FBE0F901F90CF
:1007900018951F920F920FB60F9211240BB60F925D
:1007A0002F933F934F935F936F937F938F939F9379
:1007B000AF93BF93EF93FF938BE293E0FADDFF914A
:1007C000EF91BF91AF919F918F917F916F915F91C9
:1007D0004F913F912F910F900BBE0F900FBE0F9036
:1007E0001F9018951F920F920FB60F9211240BB6FF
:1007F0000F922F938F939F93EF93FF93E0913B037F
:10080000F0913C038081E0914103F091420382FD2D
:1008100012C09081809144038F5F8F7320914503B4
:10082000821751F0E0914403F0E0E55DFC4F958FB5
:100830008093440301C08081FF91EF919F918F913C
:100840002F910F900BBE0F900FBE0F901F90189519
:100850001F920F920FB60F9211240BB60F922F9387
:100860003F934F935F936F937F938F939F93AF9338
:10087000BF93EF93FF93E0918902F0918A0219955B
:10088000FF91EF91BF91AF919F918F917F916F9168
:100890005F914F913F912F910F900BBE0F900FBE24
:1008A0000F901F9018951F920F920FB60F92112460
:1008B0000BB60F922F933F934F935F936F937F935A
:1008C0008F939F93AF93BF93EF93FF938091B90062
:1008D000887F803609F49CC068F5883209F45BC0D3
:1008E00090F4803109F454C038F4882309F4F6C038
:1008F000883009F44DC0F5C0883109F44CC080320D
:1009000009F45DC0EEC0803409F468C048F4803357
:1009100009F455C0883309F0E4C080930403D8C0BB
:10092000803509F44FC0883509F45DC0883409F07A
:10093000D8C0D6C0883909F4C7C0A8F4883709F4EC
:1009400067C038F4883609F463C0803709F460C0A2
:10095000C8C0883809F4B8C0803909F45FC080384D
:1009600009F0BFC05BC0803B09F486C038F4803A10
:1009700009F466C0883A09F47FC0B3C0803C09F42A
:10098000A7C0883C09F4A4C0883B09F48AC0A9C068
:100990008091E10210C090910303809102039817A7
:1009A00070F5E091030381E08E0F80930303F0E084
:1009B000EE51FD4F80818093BB0085EC86C0809313
:1009C00004038EC0E091030381E08E0F8093030344
:1009D0008091BB00F0E0EE51FD4F808390910303C6
:1009E000809102036EC0E091030381E08E0F80933B
:1009F00003038091BB00F0E0EE51FD4F80838091B6
:100A0000050381116DC081E08093E00284EA61C03A
:100A100083E08093060310928802CFCF80918802F2
:100A2000803208F051C0E091880281E08E0F8093FF
:100A300088028091BB00F0E0E859FD4F8083BDCF74
:100A400085EC8093BC00109206038091880280326E
:100A500030F4E0918802F0E0E859FD4F1082609197
:100A6000880270E0E0916602F091670288E692E009
:100A700019951092880235C084E080930603109285
:100A8000650210926402E0916202F091630219958E
:100A900080916402811105C081E08093640210920C
:100AA0004202E091650281E08E0F80936502F0E0E2
:100AB000EE5BFD4F80818093BB0090916502809139
:100AC0006402981708F479CF85E88093BC0009C0C8
:100AD00085EC8093BC001092060303C010920403BF
:100AE00058DDFF91EF91BF91AF919F918F917F91D1
:100AF0006F915F914F913F912F910F900BBE0F908F
:100B00000FBE0F901F90189520912A0390912903F2
:100B1000213208F04AC0809106038111FCCF32E0F7
:100B20003093060331E0309305033FEF3093040325
:100B30001092030320930203A9E0B3E042EE52E0D7
:100B4000FA013E2F341B321718F43D913193F9CF3F
:100B50001092E1022091E102990F922B9093E10211
:100B60009091E002913061F41092E0029091E102E4
:100B70009093BB009091BC0093FDF8CF95EC01C021
:100B800095EE9093BC00909106039230E1F3909122
:100B900004039F3F79F080910403803241F08091FB
:100BA0000403803331F084E005C081E003C082E0BB
:100BB00001C083E01092080310922A0310920703E9
:100BC0000895909106039111FCCF91E09093060354
:100BD000909305032FEF2093040310920303260F35
:100BE000209302039093E1029091E102880F892BF8
:100BF0008093E1028091E002813061F41092E00282
:100C00008091E1028093BB008091BC0083FDF8CF0E
:100C100085EC01C085EE8093BC0080910603813095
:100C2000E1F380910303861710F460910303A2EEB1
:100C3000B2E020EC32E0F9018E2F821B861718F407
:100C40008D918193F9CF862F0895682F88EC93E0DA
:100C500001CD0F931F93CF93DF938C01C4EDD3E0AD
:100C6000898191E0909307038093290310920803F0
:100C700010922A03812F90E0E8DFC8019927E5DF71
:100C800043DF888361E089819CDF1092BF028093FB
:100C9000BE0288EC93E05DDCC82F36DF8C2FDF913D
:100CA000CF911F910F910895EF92FF920F931F9391
:100CB000CF93DF931F92CDB7DEB78C0184EDE82E82
:100CC00083E0F82EF701818191E0909307038093F0
:100CD00029031092080310922A03812F90E0698360
:100CE000B4DFC8019927B1DF698188EC93E0B2DCF9
:100CF0000BDFF70180830F90DF91CF911F910F9150
:100D0000FF90EF90089590E0FC01E451FE4F249194
:100D1000FC01EA55FE4F8491882399F090E0880FFA
:100D2000991FFC01E457FE4FA591B491FC01EE58C8
:100D3000FE4F859194918FB7F894EC91E22BEC9350
:100D40008FBF0895EF92FF920F931F93CF93DF937E
:100D50007C018B01C4EDD3E0898191E0909307037E
:100D6000809329031092080310922A038F2D90E09C
:100D70006CDFC701992769DF812F90E066DFC8012A
:100D8000992763DFC1DE8883DF91CF911F910F9197
:100D9000FF90EF9008958093D603E82FF0E0EE0FD8
:100DA000FF1FE050FE4F6081718186E990E0CADF4D
:100DB0008091D7036091D6030E945E10682F84E271
:100DC00090E072DF6091D60370E084E190E00E94D1
:100DD0006A1081E290E068DF8DE290E03ADF8E7F7A
:100DE00061E09091D603913009F060E0682B8DE2CC
:100DF00090E05ACFE0912B03F0912C030190F08109
:100E0000E02D682F8BE293E01994009761F0FC01CC
:100E100001900020E9F73197AF01481B590BBC0145
:100E20008BE293E055CA80E090E008958F929F9204
:100E3000AF92BF920F931F93CF93DF93CDB7DEB7DF
:100E4000A1970FB6F894DEBF0FBECDBF19A24230F6
:100E500008F44AE08E010F5D1F4F842E912CA12CC7
:100E6000B12CA5019401DAD6E62FB901CA010150CF
:100E70001109EA3014F4E05D01C0E95CD801EC939B
:100E8000232B242B252B69F7C801BFDFA1960FB6B2
:100E9000F894DEBF0FBECDBFDF91CF911F910F91B0
:100EA000BF90AF909F908F9008954F925F926F92F6
:100EB0007F928F929F92AF92BF92CF92DF92EF92EA
:100EC000FF926B017C01B42E9B01AC010E945A1071
:100ED000882319F08EE292E026C026013701E894BB
:100EE00077F82FEF3FEF4FE75FE7C301B2010E94B2
:100EF0005A1081110CC02FEF3FEF4FE75FE7C3019E
:100F0000B20122D718161CF482E392E00CC02FEF36
:100F10003FEF4FE75FE4C701B6010E94F30F1816D9
:100F20007CF486E392E0FF90EF90DF90CF90BF904B
:100F3000AF909F908F907F906F905F904F9065CF14
:100F40002FEF3FEF4FE75FECC701B601FDD687FDFE
:100F5000E8CF20E030E0A901C701B601F5D687FF50
:100F600008C08DE247DF4C01F7FAF094F7F8F094EF
:100F700002C0812C912CA12C60E070E080E09FE306
:100F8000AB1439F020E030E040E251E4E1D6A39424
:100F9000F7CF9B01AC01C701B60172D62B013C0112
:100FA00044D76B017C016DD79B01AC01C301B20139
:100FB00066D62B013C014AE0C701B60137DF7C0150
:100FC000E80CF91CBB2021F08EE214DFE80EF91EBC
:100FD000DB2CDD2001F120E030E040E251E4C301F0
:100FE000B2010E94F70F2B013C011FD74B01A12C2E
:100FF000B12C4AE0C501B40119DFE80EF91EC501A4
:10100000B4013FD79B01AC01C301B20138D62B011B
:101010003C01DA94DECFC701FF90EF90DF90CF90D4
:10102000BF90AF909F908F907F906F905F904F9008
:101030000895CF92DF92EF92FF92CF93DF936C01EE
:10104000990FEE08FF08F7FE10C08DE2D3DEEC0129
:1010500066277727CB016C197D098E099F094AE025
:10106000E5DE7C01EC0EFD1E05C04AE0C701B601BD
:10107000DDDE7C018AE392E0C8DE8E0D9F1DDF91EC
:10108000CF91FF90EF90DF90CF900895362F90E0B2
:10109000FC01E45DFE4F4491FC01E451FE4F2491BC
:1010A000FC01EA55FE4F9491992309F46BC0442347
:1010B00009F455C050E0FA013197E231F10508F02A
:1010C0004EC08827EC57FF4F8F4F0C947D108091B6
:1010D00080008F7707C0809180008F7D03C0809152
:1010E0008000877F809380003AC084B58F7702C0EC
:1010F00084B58F7D84BD33C08091B0008F7703C0ED
:101100008091B0008F7D8093B00029C080919000C5
:101110008F7707C0809190008F7D03C080919000F1
:10112000877F809390001BC08091A0008F7707C0BD
:101130008091A0008F7D03C08091A000877F809365
:10114000A0000DC0809120018F7707C08091200101
:101150008F7D03C080912001877F80932001E92F3C
:10116000F0E0EE0FFF1FEE58FE4FA591B4918FB740
:10117000F894EC91311103C020952E2301C02E2B41
:101180002C938FBF08958F929F92AF92BF92CF9270
:10119000DF92EF92FF926B017C018CDA4B015C01D4
:1011A000C114D104E104F104E9F084DADC01CB01DB
:1011B00088199909AA09BB09883E9340A105B10580
:1011C00078F321E0C21AD108E108F10888EE880E10
:1011D00083E0981EA11CB11CC114D104E104F104E8
:1011E00021F7DECFFF90EF90DF90CF90BF90AF90D0
:1011F0009F908F900895CF93DF931F92CDB7DEB766
:10120000789484B5826084BD84B5816084BD85B5E1
:10121000826085BD85B5816085BD80916E008160ED
:1012200080936E0010928100809181008260809393
:101230008100809181008160809381008091800095
:101240008160809380008091B10084608093B100C0
:101250008091B00081608093B000809191008260A5
:1012600080939100809191008160809391008091A2
:1012700090008160809390008091A10082608093B3
:10128000A1008091A10081608093A1008091A000C5
:1012900081608093A0008091210182608093210170
:1012A00080912101816080932101809120018160E2
:1012B0008093200180917A00846080937A008091ED
:1012C0007A00826080937A0080917A0081608093B6
:1012D0007A0080917A00806880937A001092C10031
:1012E0008BE111DD8AE10FDD84E00DDD60E08BE153
:1012F000CDDE61E08AE1CADE61E084E0C7DEE09134
:101300003B03F0913C0302E00083E0913703F0914E
:1013100038031082E0913903F0913A0390E1908311
:1013200010924303E0913F03F091400386E08083F5
:10133000E0913D03F0913E03808180618083E091E4
:101340003D03F0913E03808188608083E0913D03FE
:10135000F0913E03808180688083E0913D03F091AD
:101360003E0380818F7D8083909381001092800066
:1013700000938D0280E593EC90938C0280938B0216
:10138000909387008093860082E18093810064E6D9
:1013900070E080E090E0F7DE8BE491E090938A02C9
:1013A0008093890211E010936F001092BF02109297
:1013B000BE021092080310922A03109206031093A3
:1013C00005031092E00261E084E160DE61E085E106
:1013D0005DDE8091B9008E7F8093B9008091B90065
:1013E0008D7F8093B90088E48093B80085E4809372
:1013F000BC0084E290E02DDC8093D70386E190E08E
:1014000028DC813009F07FC08093D60361E087E05B
:1014100092E04ADC61E088E092E046DC60E086E948
:1014200090E042DC6DEF87E990E03EDC60E083EE27
:1014300090E03ADC64E084EE90E036DC62E085EE39
:1014400090E032DC61E086EE90E02EDC63E087EE37
:1014500090E02ADC62E085EF90E026DC65E089ED33
:1014600090E022DC6EEC8BED90E01EDC63E08CED16
:1014700090E01ADC68EF8DED90E016DC60E08FE91B
:1014800090E012DC6CE383EA90E00EDC60E087EB36
:1014900090E00ADC6CE38BEB90E006DC69E082EB29
:1014A00090E002DC69E08AEC90E0FEDB61E088E934
:1014B00091E0FADB67E180EB91E0F6DB60E08DEA3A
:1014C00091E0F2DB65E08FEF90E0EEDB65E080E03D
:1014D00091E0EADB65E089E991E0E6DB6BE186EA31
:1014E00091E0E2DB6EE38CEA91E0DEDB6FE187EA1C
:1014F00091E0DADB60E080E390E0D6DB60E086E15B
:1015000090E0D2DB43C08091D50310930703809312
:1015100029031092080310922A0380E090E095DBE3
:1015200086E990E092DBF0DA8093D40362E0809168
:10153000D50347DB1092BF028093BE0288EC93E094
:1015400008D8F82E88EC93E004D820E030E03F2D56
:101550007901E82AF92AD8DA84E5E816F10421F4B9
:1015600083E08093D60309C0EFE7EE16F10419F487
:101570000093D60302C01093D6038091D6039091B6
:10158000D703899F802D11248093D70360E38AE0DD
:1015900091E08ADB66E48FE390E086DB6FEF81E326
:1015A00090E082DB63E670E080E490E0CBDB61E01A
:1015B0008EE290E079DB69E08BE190E075DB61E33E
:1015C0008EE390E071DB64E284E190E06DDB61E347
:1015D0008CE190E069DB60E083EA92E065DB81E02A
:1015E000DADB82E0D8DB6CEB72E080E090E0CBDD10
:1015F00080E090E0AEE3B3E48093A5029093A6026E
:10160000A093A702B093A80220E3222E21E0322E5D
:1016100039E0832E912CA12CB12C8091B402882327
:1016200009F44EC01092B4021091D60361E088E133
:1016300090E03ADB2FB7F8948091B6029091B70210
:10164000A091B802B091B9022FBF7C018FE490E065
:1016500000DB82FD1FC08091D8039091D903892BB4
:10166000A9F32FB7F8948091B6029091B702A09198
:10167000B802B091B9022FBF8E199F092091D803EB
:101680003091D9032817390708F781E08093DA03EE
:101690002FEF09C082E690E0DCDAF82E61E085E108
:1016A00090E002DB2F2D30E0A12FB0E0D9D2E9D3BA
:1016B0006093B0027093B1028093B2029093B30230
:1016C0008091AF02882309F469C11092AF02209182
:1016D000B0023091B1024091B2025091B3026091D8
:1016E000A9027091AA028091AB029091AC02C7D27C
:1016F00060939F027093A0028093A1029093A20234
:1017000020919702309198024091990250919A024B
:10171000B6D26B017C0120919B0230919C024091DA
:101720009D0250919E02ACD22B013C01A701960173
:10173000C701B601A5D29B01AC01C301B201A0D281
:101740006B017C016093A5027093A6028093A702AF
:101750009093A80220E030E04AE754E444D41816FD
:1017600084F020E030E04AE754ECC701B601ECD247
:1017700087FF0DC0C12CD12C8AE7E82E84ECF82E0F
:1017800006C0C12CD12C9AE7E92E94E4F92EC09220
:101790009302D0929402E0929502F0929602C701D1
:1017A000B6013ED39B01AC01245F31404109510990
:1017B000AFEFB0E029D228E13CEF4FEF5FEF08D266
:1017C000122F20939202E22EF12C84E029839BDADF
:1017D0002981111102C060E003C01F3F21F461E0C4
:1017E00084E054DCABC0F101849190E0FC013197BE
:1017F000E231F10508F09CC08827EE58FF4F8F4F6B
:101800007CC484B5806884BD27BD98C084B58062DF
:1018100084BD28BD93C08091800080688093800043
:10182000F0928900E092880089C0809180008062F7
:1018300080938000F0928B00E0928A007FC08091BC
:101840008000886080938000F0928D00E0928C0090
:1018500075C08091B00080688093B0002093B30081
:101860006DC08091B00080628093B0002093B4007E
:1018700065C080919000806880939000F0929900FC
:10188000E09298005BC0809190008062809390000D
:10189000F0929B00E0929A0051C080919000886085
:1018A00080939000F0929D00E0929C0047C0809150
:1018B000A00080688093A0008091A0008F7B80931F
:1018C000A000F092A900E092A80038C08091A0008A
:1018D00080628093A000F092AB00E092AA002EC03C
:1018E0008091A00088608093A000F092AD00E0920B
:1018F000AC0024C080912001806880932001F09288
:101900002901E09228011AC0809120018062809311
:101910002001F0922B01E0922A0110C08091200159
:10192000886080932001F0922D01E0922C0106C086
:10193000F0E8EF16F1040CF052CF4DCF80919F02EA
:101940009091A002A091A102B091A202809397026F
:1019500090939802A0939902B0939A028091A50265
:101960009091A602A091A702B091A80280939B0239
:1019700090939C02A0939D02B0939E028091A90235
:101980009091AA02A091AB02B091AC0280938E021A
:1019900090938F02A0939002B09391028091AE0237
:1019A00081111092AE028091AD02882309F4CBC060
:1019B0008BE293E00E94C401892B09F477C08BE28B
:1019C00093E00E94C401892B09F470C08BE293E07C
:1019D0000E94A2019093A4028093A3028B329105EE
:1019E00021F08D32910539F147C0C090A902D09005
:1019F000AA02E090AB02F090AC0220E030E04AEFA7
:101A000053E4C701B601A0D181110DC080E090E080
:101A1000AAEFB3E48093A9029093AA02A093AB0229
:101A2000B093AC0243C020E030E040E85FE3C70180
:101A3000B60126D133C0C090A902D090AA02E0908E
:101A4000AB02F090AC0220E030E0A901C701B60182
:101A50007BD1811109C01092A9021092AA021092A2
:101A6000AB021092AC0222C020E030E040E85FE31D
:101A7000C701B60104D112C0DC01D097AA30B1056C
:101A8000A8F428EC30E041D3A5019401A1D0CA010B
:101A9000B9016E5C7F4F8F4F9F4FF5D16093A902C4
:101AA0007093AA028093AB029093AC021092AD02A5
:101AB0006091A9027091AA028091AB029091AC0250
:101AC00042E0F3D98CE292E0A0D96091A502709136
:101AD000A6028091A7029091A80242E0E6D98CE28A
:101AE00092E093D96091B0027091B1028091B202FC
:101AF0009091B30242E0D9D98CE292E086D9C090AD
:101B0000B002D090B102E090B202F090B30220E0B7
:101B100030E046EC52E4C701B60165D218161CF459
:101B2000C701B6010DC04AE060E070E0CB017ED98C
:101B30006091B0027091B1028091B2029091B302B3
:101B40006FD1CB0176DA0E94610267CDEBE2F3E060
:101B50001382128288EE93E0A0E0B0E08483958344
:101B6000A683B7832CE032E03183208325EC30E07C
:101B70003587248724EC30E03787268720EC30E057
:101B8000318B208B21EC30E0338B228B22EC30E048
:101B9000358B248B26EC30E0378B268B118E128E02
:101BA000138E148EE8ECF3E0138212828483958303
:101BB000A683B7838EE192E091838083E4EDF3E026
:101BC00089E281831282138215821482168208951B
:101BD000052E97FB16F400940FD057FD05D01ED0AC
:101BE00007FC02D046F408C05095409530952195E9
:101BF0003F4F4F4F5F4F0895909580957095619539
:101C00007F4F8F4F9F4F08952BD0A59F900DB49F6E
:101C1000900DA49F800D911D11240895A1E21A2E0C
:101C2000AA1BBB1BFD010DC0AA1FBB1FEE1FFF1F80
:101C3000A217B307E407F50720F0A21BB30BE40BD0
:101C4000F50B661F771F881F991F1A9469F7609517
:101C50007095809590959B01AC01BD01CF010895D1
:101C6000A29FB001B39FC001A39F700D811D1124DD
:101C7000911DB29F700D811D1124911D0895505822
:101C8000BB27AA270ED075C166D130F06BD120F0EA
:101C900031F49F3F11F41EF45BC10EF4E095E7FBB5
:101CA00051C1E92F77D180F3BA1762077307840710
:101CB000950718F071F49EF58FC10EF4E0950B2E88
:101CC000BA2FA02D0B01B90190010C01CA01A0018E
:101CD0001124FF27591B99F0593F50F4503E68F1E9
:101CE0001A16F040A22F232F342F4427585FF3CF2A
:101CF000469537952795A795F0405395C9F77EF4FB
:101D00001F16BA0B620B730B840BBAF09150A1F043
:101D1000FF0FBB1F661F771F881FC2F70EC0BA0FC9
:101D2000621F731F841F48F4879577956795B79551
:101D3000F7959E3F08F0B3CF9395880F08F0992749
:101D4000EE0F979587950895D9D008F481E008950E
:101D50000CD00FC107D140F0FED030F021F45F3F2E
:101D600019F0F0C0511139C1F3C014D198F399237F
:101D7000C9F35523B1F3951B550BBB27AA2762174F
:101D80007307840738F09F5F5F4F220F331F441F94
:101D9000AA1FA9F333D00E2E3AF0E0E830D09150CC
:101DA0005040E695001CCAF729D0FE2F27D0660FB9
:101DB000771F881FBB1F261737074807AB07B0E8F8
:101DC00009F0BB0B802DBF01FF2793585F4F2AF00E
:101DD0009E3F510568F0B6C000C15F3FECF3983EEE
:101DE000DCF3869577956795B795F7959F5FC9F76B
:101DF000880F911D9695879597F90895E1E0660FF4
:101E0000771F881FBB1F621773078407BA0720F06C
:101E1000621B730B840BBA0BEE1F88F7E0950895D5
:101E200004D06894B111D9C00895BCD088F09F57F0
:101E300090F0B92F9927B751A0F0D1F0660F771F16
:101E4000881F991F1AF0BA95C9F712C0B13081F0F6
:101E5000C3D0B1E00895C0C0672F782F8827B85F3E
:101E600039F0B93FCCF3869577956795B395D9F757
:101E70003EF490958095709561957F4F8F4F9F4F61
:101E80000895E89409C097FB3EF49095809570956D
:101E900061957F4F8F4F9F4F9923A9F0F92F96E9B6
:101EA000BB279395F695879577956795B795F1112B
:101EB000F8CFFAF4BB0F11F460FF1BC06F5F7F4FC8
:101EC0008F4F9F4F16C0882311F096E911C07723DA
:101ED00021F09EE8872F762F05C0662371F096E8E3
:101EE000862F70E060E02AF09A95660F771F881FB2
:101EF000DAF7880F9695879597F90895990F000856
:101F0000550FAA0BE0E8FEEF16161706E807F907CB
:101F1000C0F012161306E407F50798F0621B730B66
:101F2000840B950B39F40A2661F0232B242B252BE7
:101F300021F408950A2609F4A140A6958FEF811D8A
:101F4000811D089597F99F6780E870E060E008952B
:101F50009FEF80EC089500240A94161617061806C1
:101F60000906089500240A9412161306140605069D
:101F70000895092E0394000C11F4882352F0BB0F2E
:101F800040F4BF2B11F460FF04C06F5F7F4F8F4F91
:101F90009F4F089557FD9058440F551F59F05F3FCC
:101FA00071F04795880F97FB991F61F09F3F79F07B
:101FB00087950895121613061406551FF2CF4695FD
:101FC000F1DF08C0161617061806991FF1CF86957F
:101FD0007105610508940895E894BB276627772763
:101FE000CB0197F908958ADF08F48FEF08950BD09D
:101FF000C0CFB1DF28F0B6DF18F0952309F0A2CFEB
:10200000A7CF1124EACFC6DFA0F3959FD1F3950F98
:1020100050E0551F629FF001729FBB27F00DB11D6C
:10202000639FAA27F00DB11DAA1F649F6627B00DFC
:10203000A11D661F829F2227B00DA11D621F739FE5
:10204000B00DA11D621F839FA00D611D221F749FF3
:102050003327A00D611D231F849F600D211D822F3A
:10206000762F6A2F11249F5750408AF0E1F0882381
:102070004AF0EE0FFF1FBB1F661F771F881F91508E
:102080005040A9F79E3F510570F05CCFA6CF5F3F4F
:10209000ECF3983EDCF3869577956795B795F795C1
:1020A000E7959F5FC1F7FE2B880F911D9695879549
:1020B00097F9089523DF880B990B0895991B79E010
:1020C00004C0991F961708F0961B881F7A95C9F7C8
:1020D0008095089597FB072E16F4009406D077FD9F
:1020E00008D019D007FC05D03EF4909581959F4FFC
:1020F0000895709561957F4F0895EE0FFF1F881F1B
:102100008BBF0790F691E02D1994AADDB7FF0895D3
:10211000821B930B0895AA1BBB1B51E107C0AA1F8A
:10212000BB1FA617B70710F0A61BB70B881F991F78
:102130005A95A9F780959095BC01CD01089581E04D
:0A21400090E0F89400C0F894FFCF7F
:10214A000000FD007F00540000000000FA01680151
:10215A0093014002C401A201B601000000002A0353
:10216A00FB02C6029902BD02A9029A0209006E6127
:0E217A006E00696E66006F7666000D0A00004A
:00000001FF
